:020000040800F2
:10000000789F00207D110108CD070008CF07000868
:10001000D3070008D7070008DB070008000000002E
:100020000000000000000000000000009D02000829
:10003000DF07000800000000F10200088D0F010832
:1000400097110108971101089711010897110108EC
:1000500097110108971101089711010897110108DC
:1000600097110108971101089711010897110108CC
:1000700097110108971101089711010897110108BC
:1000800097110108971101089711010897110108AC
:10009000971101089711010897110108971101089C
:1000A000971101089711010897110108971101088C
:1000B00023080008250800082708000897110108F0
:1000C000971101089711010897110108971101086C
:1000D000971101089711010897110108971101085C
:1000E000971101089711010897110108971101084C
:1000F000971101089711010897110108971101083C
:10010000971101089711010897110108971101082B
:10011000971101089711010897110108971101081B
:10012000971101089711010897110108971101080B
:1001300097110108E10700089711010897110108BC
:1001400097110108971101089711010897110108EB
:1001500097110108971101089711010897110108DB
:1001600097110108971101089711010897110108CB
:1001700097110108971101089711010897110108BB
:10018000971101089711010800F002F800F076F8C5
:100190000AA090E8000C82448344AAF10107DA45E2
:1001A00001D100F06BF8AFF2090EBAE80F0013F0BE
:1001B000010F18BFFB1A43F001031847344902002E
:1001C000544902000A444FF0000C10F8013B13F0B0
:1001D000070408BF10F8014B1D1108BF10F8015BA0
:1001E000641E05D010F8016B641E01F8016BF9D193
:1001F00013F0080F1EBF10F8014BAD1C0C1B09D1EA
:100200006D1E58BF01F801CBFAD505E014F8016B5B
:1002100001F8016B6D1EF9D59142D6D370470000ED
:100220000023002400250026103A28BF78C1FBD8FF
:10023000520728BF30C148BF0B607047662913F0D2
:100240004B80642911F07480752911F07180632945
:1002500011F05B85002070471FB513F033F89DE85F
:10026000030011F08DFA11F093FD0400002000212D
:1002700012F016FBE0601FBD10B510BD11F0A6FE18
:100280001146FFF7E9FF00F035F911F0C4FE03B4A1
:10029000FFF7F2FF03BC11F0F5FE00002A4B1968CE
:1002A0000868B0E8F04F80F30988BFF36F8F4FF014
:1002B000000080F3118870470000000006480068C5
:1002C000006880F3088862B661B6BFF34F8FBFF352
:1002D0006F8F00DF00BF00BF08ED00E0DFF80C000B
:1002E000016841F470010160704700BF88ED00E0D3
:1002F000EFF30980BFF36F8F134B1A681EF0100FD6
:1003000008BF20ED108A20E9F04F106008B44FF0CC
:10031000500080F31188BFF34F8FBFF36F8F0FF042
:1003200026FD4FF0000080F3118808BC19680868AA
:10033000B0E8F04F1EF0100F08BFB0EC108A80F349
:100340000988BFF36F8F70478C010020EFF30580A1
:100350007047000010B5864800880B2840D2DFE8BF
:1003600000F0AF064041424344717290AE0000215C
:100370004FF6FF7008F0AAF97E4808F0C4F97EA293
:100380008221142008F0CDFB4FF66861002008F0B0
:100390009DF97C4808F0B7F97BA26421822008F01F
:1003A000C0FB744808F0AFF977A2AA21502008F0EA
:1003B000B8FB40F2FC41002008F088F9714808F0D1
:1003C000A2F971A24FF4A571822008F0AAFB694836
:1003D00008F099F96CA24FF4C871502008F0A1FB05
:1003E0006EE06DE000BF00BF00BF4FF66861002007
:1003F00008F06CF9634808F086F964A2642178205B
:1004000008F08FFB5B4808F07EF961A2A521462029
:1004100008F087FB40F2FC41002008F057F95948EA
:1004200008F071F959A24FF4A571782008F079FB12
:10043000504808F068F958A24FF4C871462008F0F7
:1004400070FB3DE03CE04FF243414FF6FF7008F097
:100450003DF94C4808F057F951A26421782008F082
:1004600060FB45F2AA214FF6FF7008F02FF94548CE
:1004700008F049F94CA24FF4A571782008F051FB1F
:100480001EE045F2AA214FF6FF7008F01FF93D4823
:1004900008F039F942A26421782008F042FB4FF2BB
:1004A00043414FF6FF7008F011F9364808F02BF978
:1004B0003DA24FF4A571782008F033FB00E000BFA7
:1004C00000BF10BD00BF09F064FA07F02DFA07F075
:1004D00009FBFFF73FFFF6E710B500200AF056FFD3
:1004E00001200AF053FF02200AF050FF03200AF017
:1004F0004DFF10BD1CB54FF4E1312D4807F048FC0D
:10050000FFF7EAFF08F06CF8002002F082FA09F029
:1005100092F80AF088FE102002F0D4F848F2100099
:1005200002F0DAF800F0A8FB0020012103464FF4A6
:100530002062CDE900101FA1AFF277000FF0E1F8C3
:100540000FF0DFFD00BFFEE700BFFEE700BF502059
:1005500080F31188BFF34F8FBFF36F8F00BF00BFD1
:10056000FEE7704710B507F02EFB02F032F810BD21
:1005700020000020D800002030303A30303A3031AE
:1005800000000000D0000020302E35003135300052
:100590003430306D6C0000003230306D6C00000083
:1005A0003135206D33000000303620680000000037
:1005B000001001404D795461736B00000CB50020B0
:1005C000019000907648006840F4803074490860DB
:1005D00000BF7348006800F4003000900198401C90
:1005E0000190009818B90198B0F5A06FF1D16C484E
:1005F000006800F4003010B10120009001E00020FC
:1006000000900098012846D165484030006840F0CD
:1006100080506349403108606248006840F480407F
:10062000604908605E48083000685D49083108602C
:100630000846006840F4004008600846006840F43E
:10064000A05008605848091F0860081F006840F063
:100650008070091F086000BF5148006800F00070FA
:100660000028F9D040F20520504908604C48083075
:10067000006820F003004A49083108600846006815
:1006800040F00200086000BF45480830006800F0F4
:100690000C000828F8D10CBD10B54548006840F49E
:1006A0007000434908603E48006840F001003C4942
:1006B000086000203A4908310860394800683D491F
:1006C0000840374908603C48091D0860081F006859
:1006D00020F48020091F0860002031490C31086097
:1006E000FFF76CFF4FF0006031498039086010BDA2
:1006F00070B500200022022300240221284D083575
:100700002D6805F00C0020B1042806D0082834D14B
:1007100007E02A4D2A4E356033E02A4D284E3560D9
:100720002FE01F4D2D1D2D68C5F380541C4D2D1D30
:100730002D6805F03F0154B1224DB5FBF1F5184E7F
:10074000361D3668C6F3881605FB06F209E01B4D18
:10075000B5FBF1F5124E361D3668C6F3881605FB5B
:1007600006F20F4D2D1D2D68C5F301456D1C6B0064
:10077000B2FBF3F5124E356003E0104D104E3560BC
:1007800000BF00BF064D08352D68C5F303150E4E9A
:10079000705D0B4D2D68C540094E356070BD000081
:1007A000003802400070004019544007003C0240ED
:1007B00088ED00E0FFFFF6FE103000240024F40076
:1007C0000000002040787D0104000020704700BF39
:1007D000FEE700BFFEE700BFFEE700BFFEE7704791
:1007E00008B50020009040200DF025FF012804D11D
:1007F00069460D4800680EF0C6FC40200DF03FFF32
:100800004FF480300DF03BFF009848B1009838B1AC
:100810004FF0805005490860BFF34F8FBFF36F8FD3
:1008200008BD7047704770478401002004ED00E068
:1008300010B5B748006806F0CBFA00F0FFFA10BD1B
:10084000704710B5B248006806F0C2FA00F014FA1A
:1008500010BD10B5AE48006806F0BAFA01F057F9BD
:1008600010BD704710B5AB48007830B101280BD0EF
:10087000022810D003281CD114E0A548006806F017
:10088000A7FA00F0B2FB14E0A148006806F0A0FA55
:1008900000F0EEFF0DE09E48006806F099FA00F0C7
:1008A00045FD06E09A48006806F092FA00F05DFE09
:1008B00000BF00BF10BD704710B59548006806F036
:1008C00087FA00F0BBFA00209249087010BD10B5FD
:1008D0008F48006806F07CFA00F0CEF900208D49C0
:1008E000087010BD10B58A48006806F071FA00F073
:1008F0001DFD10BD10B58648006806F069FA00F0CD
:10090000B7FF10BD10B58248006806F061FA00F02C
:1009100095FA02207F49087010BD10B57C48006828
:1009200006F056FA00F0A8F900207A49087010BDC8
:1009300010B57748006806F04BFA00F056FB10BD82
:1009400010B57348006806F043FA00F00EFE10BDC3
:1009500010B56F48006806F03BFA00F06FFA03200C
:100960006C49087010BD10B56948006806F030FA8F
:1009700000F082F900206749087010BD10B5644886
:10098000006806F025FA00F073FF10BD10B560484E
:10099000006806F01DFA00F0C9FC10BD10B55C48F7
:1009A000006806F015FA00F049FA0120594908706C
:1009B00010BD10B55648006806F00AFA00F05CF960
:1009C00000205449087010BD10B55148006806F069
:1009D000FFF900F0ABFC10BD10B54D48006806F003
:1009E000F7F900F002FB10BD10B54948006806F0A9
:1009F000EFF900F023FA10BD10B54548006806F085
:100A0000E7F900F039F910BD10B54148006806F06B
:100A1000DFF901F08FF910BD10B53D48006806F010
:100A2000D7F901F00BFD10BD10B53948006806F08C
:100A3000CFF901F06CF810BD10B53548006806F02C
:100A4000C7F900F019F910BD70477047704710B52D
:100A50002F48006806F0BCF901F015FB10BD10B579
:100A60002B48006806F0B4F901F051F810BD10B53C
:100A70002748006806F0ACF900F0FEF810BD70479A
:100A80007047704710B52248006806F0A1F901F0E0
:100A900051F910BD10B51E48006806F099F901F033
:100AA00036F810BD10B51A48006806F091F900F04C
:100AB000E3F810BD10B518A007F017FA10BD10B577
:100AC0001DA007F012FA10BD10B523A007F00DFA13
:100AD00010BD10B52BA007F008FA10BD10B532A05C
:100AE00007F003FA10BD10B538A007F0FEF910BDED
:100AF00010B53FA007F0F9F910BD10B544A007F0FC
:100B0000F4F910BD10B54AA007F0EFF910BD0000D0
:100B10001C00002016000020506172616D65746534
:100B20007273576174657253637265656E5F496E67
:100B3000646F6F720D0A0000506172616D657465BB
:100B40007273576174657253637265656E5F4F753A
:100B500074646F6F720D0A00506172616D65746527
:100B60007273576174657253637265656E5F457821
:100B70007472656D65436F6E646974696F6E0D0A9A
:100B800000000000506172616D6574657273576199
:100B900074657253637265656E5F4C657373323052
:100BA0006F430D0A00000000506172616D6574654D
:100BB0007273576174657253637265656E5F32302C
:100BC0006F435F33306F430D0A0000005061726164
:100BD0006D65746572735761746572536372656590
:100BE0006E5F4D6F726533306F430D0A0000000079
:100BF000506172616D65746572735761746572538B
:100C0000637265656E5F536F66740D0A00000000C5
:100C1000506172616D65746572735761746572536A
:100C2000637265656E5F486172640D0A00000000C2
:100C3000506172616D65746572735761746572534A
:100C4000637265656E5F56657279486172640D0AFC
:100C50000000000010B5FE4B2022D221012006F03A
:100C600018FF0446FB4805F0E8FCFA4B2246F02149
:100C7000FA2005F06EF910BD08B5F7A007F035F9B8
:100C8000FFF7E8FF002007F0C2FD4FF6FF702023BA
:100C9000D222F0210090FA2008F08FF9F44807F0F2
:100CA00032FDF4A02023D222F0210090FA2008F097
:100CB000D8FB4FF6FF701C235A220C210090142001
:100CC00008F07BF9EE4807F01EFD4FF6FF7100209B
:100CD00007F0FCFCEBA214210E2007F022FF0021FC
:100CE0004FF6FF7007F0F2FCE14807F00CFDE7A2B9
:100CF0004FF49171142007F014FFE8A21421FA2098
:100D000007F00FFF4FF66860A023D2223C2100902D
:100D1000142008F052F940F2FC40A023D2223C21DA
:100D20000090FA2008F049F94FF66861002007F0BA
:100D3000CDFCCF4807F0E7FCDBA21E21502007F0D6
:100D4000F0FEDCA2AF21A02007F0EBFE40F2FC4158
:100D5000002007F0BBFCC64807F0D5FCD7A24FF433
:100D60008271502007F0DDFED6A24FF4C871A0209A
:100D700007F0D7FEB7480121C26990470120D24948
:100D80000880B448D149086008BD10B5FFF774FF6A
:100D900010BD2DE9F047CE4B1E22D221012006F0D6
:100DA00078FE0446CB4B1E22D221022006F071FEB3
:100DB0000546C94B5022D221032006F06AFE0646A2
:100DC000C64B5022D221042006F063FE0746C44BD6
:100DD0005022D221052006F05CFE8046C14B5022F5
:100DE000D221062006F055FE8146BF4805F025FCBD
:100DF000BD4B2246F021FA2005F0ABF8BA4B2A464B
:100E0000F021142005F0A5F8B74B32463C21142000
:100E100005F09FF8B44B3A463C21FA2005F099F8CA
:100E2000B14B42469621142005F093F8AE4B4A464A
:100E30009621FA2005F08DF8BDE8F08708B5ABA043
:100E400007F053F8FFF7A5FF002007F0E0FC4FF68E
:100E5000FF701C235A220C210090142008F0ADF8DA
:100E6000874807F050FC4FF6FF71002007F02EFC7A
:100E700084A214210E2007F054FE00214FF6FF70CB
:100E800007F024FC7A4807F03EFC7AA24FF4BE71CA
:100E9000142007F046FED22350223C21142007F0F4
:100EA00089FFD22350223C21FA2007F083FFD2236E
:100EB00050229621142007F07DFFD2235022962144
:100EC000FA2007F077FF4FF6FF701E23D222F021A1
:100ED0000090142008F071F8D2231E22F021FA208D
:100EE00007F068FF00214FF6FF7007F0EFFB604846
:100EF00007F009FC83A05023D2223C21009014204B
:100F000008F0AFFA82A05023D2223C210090FA20B0
:100F100008F0A7FA81A05023D22296210090142035
:100F200008F09FFA80A05023D22296210090FA2048
:100F300008F097FA80A01E23D222F0210090FA2018
:100F400008F08FFA4FF6FF71002007F0BFFB7DA07D
:100F50001E23D222F0210090142008F082FA624869
:100F60000121C26990470220574908805E485749CD
:100F7000086008BD2DE9F041764B1E22D2210120E8
:100F800006F087FD0446744B1E22D221022006F093
:100F900080FD0546714B4622D221032006F079FDE3
:100FA00006466F4B4622D221042006F072FD07460A
:100FB0006C4805F042FB6B4B2246F021FA2004F00E
:100FC000C8FF684B2A46F021142004F0C2FF654B8D
:100FD0003246AA21142004F0BCFF624B3A46AA21F3
:100FE000FA2004F0B6FFBDE8F08108B55EA006F077
:100FF0007CFFFFF7BFFF002007F009FC4FF6FF70F2
:101000001C235A220C210090142007F0D6FF1C4804
:1010100007F079FB4FF6FF71002007F057FB19A28C
:1010200014210E2007F07DFD00214FF6FF7007F020
:101030004DFB0F4807F067FB38A24FF4AA7114204C
:1010400007F06FFD4FF668606423D2223C219DE0DB
:1010500031080008EC0100204372656174655F533C
:101060007461727453637265656E0D0A000000004E
:10107000D800002053455454494E47530000000007
:10108000D00000205449544C4500000043484155CD
:10109000205048554F4320565500000042414348D8
:1010A000204B484F4100000043484C4F52494E45A9
:1010B000000000006D672F6C0000000050482D2DCF
:1010C0000000000070480000200000201C000020EC
:1010D0004108000843080008530800086308000896
:1010E00065080008B7080008900200204372656197
:1010F00074655F53657474696E6773536372656575
:101100006E0D0A00504152414D4554455253000066
:1011100043414C4942524154494F4E00444F534978
:101120004E4720544553540054595045204F4620B3
:1011300050524F42450000004C414E4755414745F3
:10114000530000004241434B20544F20535441521E
:1011500054000000B9080008CF080008E50800089E
:10116000F5080008340300204372656174655F442C
:101170006F73696E675465737453746172745374DA
:1011800061727453637265656E0D0A0000901420DD
:1011900007F013FF40F2FC406423D2223C21009070
:1011A000FA2007F00AFF4FF66861002007F08EFA78
:1011B000FE4807F0A8FAFEA21E21462007F0B1FC67
:1011C000FDA29B217F2007F0ACFC40F2FC410020F7
:1011D00007F07CFAF54807F096FAAFF218124FF4D0
:1011E0008271462007F09DFCF3A240F281117F201E
:1011F00007F097FC4FF6FF701E23D222F0210090DB
:10120000142007F0DAFE4FF6FF701E23D222F021E1
:101210000090FA2007F0D1FE4FF6686007F067FAF9
:10122000D2233C22AA21142007F0C4FD40F2FC4046
:1012300007F05DFAD2233C22AA21FA2007F0BAFD7A
:10124000DA4807F060FA00214FF6FF7007F03EFA27
:10125000AFF208103C23D222AA210090142008F0FB
:1012600000F9AFF218103C23D222AA210090FA20F4
:1012700008F0F7F84FF6FF71002007F027FACFA02B
:101280001E23D222F0210090FA2008F0EAF8AFF2F3
:101290004C101E23D222F0210090142008F0E1F817
:1012A000C8480121C26990470320C7490880C54842
:1012B000C649086008BD2DE9F041C54B1E22D22168
:1012C000012006F0E6FB0446C24B1E22D22102207A
:1012D00006F0DFFB0546C04B3C22D221032006F07E
:1012E000D8FB0646BD4B3C22D221042006F0D1FBA0
:1012F0000746BB4805F0A1F9B94B2246F021FA2078
:1013000004F027FEB64B2A46F021142004F021FEFB
:10131000B34B3246AA21142004F01BFEB04B3A46D0
:10132000AA21FA2004F015FEBDE8F08108B5ADA0B1
:1013300006F0DBFDFFF7BFFF002007F068FA4FF66D
:10134000FF701C235A220C210090142007F035FE58
:10135000AD4807F0D8F94FF6FF71002007F0B6F955
:10136000AFF2E02214210E2007F0DBFB00214FF644
:10137000FF7007F0ABF98D4807F0C5F9AFF26422B2
:101380004FF4AA71142007F0CCFB4FF66860642379
:10139000D2223C210090142007F00FFE40F2FC40C6
:1013A0006423D2223C210090FA2007F006FE4FF67B
:1013B0006861002007F08AF9934807F0A4F993A226
:1013C0006421782007F0ADFB784807F09CF978A2FB
:1013D0001E21462007F0A5FB8DA2A521462007F07F
:1013E000A0FB75A29B217F2007F09BFB40F2FC41F4
:1013F000002007F06BF9844807F085F983A24FF4C9
:10140000A571782007F08DFB684807F07CF9AFF2F2
:101410004C324FF48271462007F083FB7EA24FF4DA
:10142000C871462007F07DFB63A240F281117F2046
:1014300007F077FB4FF6FF701E23D222F0210090B9
:10144000142007F0BAFD4FF6FF701E23D222F021C0
:101450000090FA2007F0B1FD4FF6686007F047F9F9
:10146000D2233C22AA21142007F0A4FC40F2FC4025
:1014700007F03DF9D2233C22AA21FA2007F09AFC7A
:101480004A4807F040F900214FF6FF7007F01EF9B7
:1014900063A03C23D222AA210090142007F0E1FF90
:1014A000AFF258303C23D222AA210090FA2007F054
:1014B000D8FF4FF6FF71002007F008F93FA01E2368
:1014C000D222F0210090FA2007F0CBFFAFF28C304F
:1014D0001E23D222F0210090142007F0C2FF4048C2
:1014E0000121C26990470420374908803C483749A8
:1014F000086008BD2DE9F0414B4B1E22D22101208E
:1015000006F0C7FA0446494B1E22D221022006F0FB
:10151000C0FA0546464B3C22D221032006F0B9FA18
:101520000646444B3C22D221042006F0B2FA07467C
:10153000414805F082F8404B2246F021FA2004F0A1
:1015400008FD3D4B2A46F021142004F002FD3A4BE1
:101550003246AA21142004F0FCFC374B3A46AA215B
:10156000FA2004F0F6FCBDE8F08108B533A006F0DF
:10157000BCFCFFF7BFFF002007F049F94FF6FF70F2
:101580001C235A220C210090142007F016FD1E483F
:1015900007F0B9F84FF6FF71002007F097F8AFF2A7
:1015A0001C5214210E2007F0BCFA59E0D80000208C
:1015B000444953494E462E006D6C00004241434B56
:1015C0000000000034030020200000201C00002048
:1015D000050900081B090008310900084109000835
:1015E000D80300204372656174655F446F73696E50
:1015F000675465737453746F70537461727453637A
:101600007265656E0D0A0000D00000203135300093
:101610003430306D6C0000003230306D6C000000F2
:1016200053544F500000000051090008670900089A
:101630007D0900088D0900087C0400204372656163
:1016400074655F446F73696E675465737453746F28
:101650007053746F7053637265656E0D0A000000FD
:1016600000214FF6FF7007F031F8F84807F04BF80B
:10167000AFF258524FF4AA71142007F052FA4FF605
:1016800068606423D2223C210090142007F095FC6E
:1016900040F2FC406423D2223C210090FA2007F063
:1016A0008CFC4FF66861002007F010F8E84807F05E
:1016B0002AF8AFF2A8026421782007F032FAE34852
:1016C00007F021F8AFF218121E21462007F029FA80
:1016D000AFF2C402A521462007F023FAAFF2281288
:1016E0009B217F2007F01DFA40F2FC41002006F00C
:1016F000EDFFD74807F007F8AFF2F0024FF4A571FD
:10170000782007F00EFAD14806F0FDFFAFF24C62E8
:101710004FF48271462007F004FAAFF204124FF43E
:10172000C871462007F0FDF9AFF2741240F2811142
:101730007F2007F0F6F94FF6FF701E23D222F0212A
:101740000090142007F039FC4FF6FF701E23D222C0
:10175000F0210090FA2007F030FC4FF6686006F0A8
:10176000C6FFD2233C22AA21142007F023FB40F21B
:10177000FC4006F0BCFFD2233C22AA21FA2007F04D
:1017800019FBB24806F0BFFF00214FF6FF7006F0CC
:101790009DFFAFF274103C23D222AA2100901420A6
:1017A00007F05FFEAFF288103C23D222AA210090FE
:1017B000FA2007F056FE4FF6FF71002006F086FF74
:1017C000AFF208201E23D222F0210090FA2007F069
:1017D00048FEAFF290601E23D222F0210090142028
:1017E00007F03FFE9B480121C269904705209A49B6
:1017F000088098489949086008BD2DE9F041984B48
:101800001E22D221012006F044F90446954B1E22E7
:10181000D221022006F03DF90546934B3C22D2210D
:10182000032006F036F90646904B3C22D2210420D4
:1018300006F02FF907468E4804F0FFFE8C4B224637
:10184000F021FA2004F085FB894B2A46F021142070
:1018500004F07FFB864B3246AA21142004F079FB6A
:10186000834B3A46AA21FA2004F073FBBDE8F081CD
:1018700008B580A006F039FBFFF7BFFF002006F097
:10188000C6FF4FF6FF701C235A220C210090142033
:1018900007F093FB6E4806F036FF4FF6FF7100200D
:1018A00006F014FFAFF6240214210E2007F039F9D8
:1018B00000214FF6FF7006F009FF644806F023FF91
:1018C000AFF2A8724FF4AA71142007F02AF94FF66C
:1018D00068606423D2223C210090142007F06DFB45
:1018E00040F2FC406423D2223C210090FA2007F011
:1018F00064FB4FF66861002006F0E8FE544806F0ED
:1019000002FFAFF2F8226421782007F00AF94F486D
:1019100006F0F9FEAFF268321E21462007F001F909
:10192000AFF21432A521462007F0FBF8AFF278326F
:101930009B217F2007F0F5F840F2FC41002006F0E3
:10194000C5FE434806F0DFFEAFF240324FF4A5710A
:10195000782007F0E6F83D4806F0D5FEAFF69C0289
:101960004FF48271462007F0DCF8AFF254324FF4A6
:10197000C871462007F0D5F8AFF2C43240F28111A9
:101980007F2007F0CEF84FF6FF701E23D222F02101
:101990000090142007F011FB4FF6FF701E23D22297
:1019A000F0210090FA2007F008FB4FF6686006F07F
:1019B0009EFED2233C22AA21142007F0FBF940F21C
:1019C000FC4006F094FED2233C22AA21FA2007F024
:1019D000F1F91E4806F097FE00214FF6FF7006F061
:1019E00075FEAFF698003C23D222AA210090142065
:1019F00007F037FDAFF2D8303C23D222AA21009065
:101A0000FA2007F02EFD4FF6FF71002006F05EFE73
:101A1000AFF258401E23D222F0210090FA2007F0A6
:101A200020FDAFF6E0001E23D222F021009014200A
:101A300007F017FD0E480121C269904706200649AC
:101A400008800B480549086008BD0000D800002048
:101A5000D00000207C040020200000201C0000207A
:101A60009D090008B3090008C9090008D909000840
:101A7000200500204372656174655F446F73696E71
:101A80006754657374537461727453746F705363E5
:101A90007265656E0D0A00002DE9F041FE4B1E22B5
:101AA000D221012005F0F5FF0446FC4B1E22D22175
:101AB000022005F0EEFF0546F94B5022D22103200B
:101AC00005F0E7FF0646F74B5022D221042005F02F
:101AD000E0FF0746F44804F0B0FDF34B2246F02146
:101AE000FA2004F036FAF04B2A46F021142004F0D4
:101AF00030FAED4B32463C21142004F02AFAEA4B2E
:101B00003A463C21FA2004F024FABDE8F08108B5F9
:101B1000E6A006F0EAF9FFF7BFFF002006F077FE27
:101B20004FF6FF701C235A220C210090142007F05E
:101B300044FAE54806F0E7FD4FF6FF71002006F095
:101B4000C5FDAFF6C02214210E2006F0EAFF0021E9
:101B50004FF6FF7006F0BAFDDC4806F0D4FDAFF694
:101B60005C2240F26311142006F0DBFFD2235022E6
:101B70003C21142007F01EF9D22350223C21FA20E8
:101B800007F018F94FF668605023D2229621009092
:101B9000142007F012FA40F2FC405023D222962182
:101BA0000090FA2007F009FA00214FF6FF7006F0C6
:101BB0008DFD4FF66861002006F088FDC4A050231B
:101BC000D22296210090142007F04BFC40F2FC41F9
:101BD000002006F07BFDAFF614305023D222962170
:101BE0000090FA2007F03DFC4FF6FF701E23D22232
:101BF000F0210090142007F0E0F94FF6FF701E234B
:101C0000D222F0210090FA2007F0D7F9AF4806F071
:101C10007AFD00214FF6FF7006F058FDB0A050236A
:101C2000D2223C210090142007F01BFCAEA05023D0
:101C3000D2223C210090FA2007F013FC4FF6FF71EE
:101C4000002006F043FDAFF28C601E23D222F0216B
:101C50000090FA2007F005FCAFF618301E23D222C0
:101C6000F0210090142007F0FCFB4FF6FF710020DC
:101C700006F02CFD8C480121C269904707209C4941
:101C8000088089489B49086008BD2DE9F0479A4BB8
:101C90001E22D221012005F0FCFE0446974B1E2295
:101CA000D221022005F0F5FE0546954B3C22642129
:101CB000032005F0EEFE0646924B3C2264210420F0
:101CC00005F0E7FE0746904B3C22D221052005F0A7
:101CD000E0FE80468D4B6422D221062005F0D9FE1D
:101CE00081468B4804F0A9FC894B2246F021FA205A
:101CF00004F02FF9864B2A46F021142004F029F92C
:101D0000834B3246AA21142004F023F9804B3A4633
:101D1000AA21822004F01DF97D4B4246AA21FA2017
:101D200004F017F97A4B4A463C21FA2004F011F9E5
:101D3000BDE8F08708B577A006F0D7F8FFF7A5FF54
:101D4000002006F064FD4FF6FF701C235A220C2180
:101D50000090142007F031F95B4806F0D4FC4FF6F0
:101D6000FF71002006F0B2FCAFF6E84214210E200D
:101D700006F0D7FE00214FF6FF7006F0A7FC53488F
:101D800006F0C1FC6BA24FF49171142006F0C9FE5D
:101D90004FF243406423D2223C210090142007F0EC
:101DA0000CF945F2AA206423D2223C210090FA20AB
:101DB00007F003F94FF243414FF6FF7006F086FC3F
:101DC000414806F0A0FC5FA26421782006F0A9FE3D
:101DD0003E4806F098FC5DA21E21462006F0A1FEBA
:101DE00045F2AA214FF6FF7006F070FC364806F067
:101DF0008AFC59A24FF4A571782006F092FE334870
:101E000006F081FC56A2FF21462006F08AFE4FF61E
:101E1000FF701E23D222F0210090142007F0CDF88D
:101E20004FF6FF701E23D222F0210090FA2007F017
:101E3000C4F84FF6FF7006F05AFC64233C22AA2136
:101E4000142006F0B7FF64233C22AA21822006F06A
:101E5000B1FFD2233C22AA21FA2006F0ABFF1A4898
:101E600006F051FC00214FF6FF7006F02FFC41A058
:101E70003C236422AA210090142007F0F2FA3EA02D
:101E80003C236422AA210090822007F0EAFA0F483E
:101E900006F039FC39A073E0E9090008F9090008E7
:101EA000090A0008190A0008C40500204372656188
:101EB00074655F506172616D6574657273536372AE
:101EC00065656E0D0A000000D0000020D8000020DB
:101ED000444953494E46454354494F4E0000000083
:101EE000504F4F4C00000000574154455200000035
:101EF000200000201C000020290A0008390A0008E0
:101F0000490A00084B0A00084D0A00084F0A000859
:101F1000680600204372656174655F506172616D8F
:101F20006574657273566F6C756D65536372656524
:101F30006E0D0A00504F4F4C20504152414D4554B8
:101F4000455253003135206D33000000504F4F4C47
:101F500020564F4C554D450030362068000000009B
:101F600046494C54524154494F4E20504552494FD6
:101F7000440000002B0000002D0000004F4B00002B
:101F80003C23D222AA210090FA2007F06AFA4FF6E9
:101F9000FF71002006F09AFBAFF6E0101E23D2225C
:101FA000F0210090FA2007F05CFAAFF668601E237B
:101FB000D222F0210090142007F053FA4FF6FF715F
:101FC000002006F083FBF9480121C26990470820F0
:101FD000F7490880F548F749086008BD2DE9F04742
:101FE000F54B1E22D221012005F053FD0446F34B90
:101FF0001E22D221022005F04CFD0546F04B3C226A
:102000006421032005F045FD0646EE4B3C22642189
:10201000042005F03EFD0746EB4B3C22D221052073
:1020200005F037FD8046E94B6422D221062005F0F9
:1020300030FD8146E64804F000FBE54B2246F021E6
:10204000FA2003F086FFE24B2A46F021142003F029
:1020500080FFDF4B3246AA21142003F07AFFDC4BCD
:102060003A46AA21822003F074FFD94B4246AA21A6
:10207000FA2003F06EFFD64B4A463C21142003F0B1
:1020800068FFBDE8F08708B5D2A005F02EFFFFF786
:10209000A5FF002006F0BBFB4FF6FF701C235A2261
:1020A0000C210090142006F088FFD54806F02BFB89
:1020B0004FF6FF71002006F009FBD24A14210E20D2
:1020C00006F02FFD00214FF6FF7006F0FFFACE4814
:1020D00006F019FBAFF2A4124FF49171142006F030
:1020E00020FD45F2AA206423D2223C210090142036
:1020F00006F063FF4FF243406423D2223C2100905C
:10210000FA2006F05AFF45F2AA214FF6FF7006F0BA
:10211000DDFABB4806F0F7FAAFF2D8126421782056
:1021200006F0FFFCB84806F0EEFAAFF2E0121E210E
:10213000462006F0F6FC4FF243414FF6FF7006F0E2
:10214000C5FAAF4806F0DFFAAFF2F4124FF4A5710A
:10215000782006F0E6FCAC4806F0D5FAAFF2002293
:10216000FF21462006F0DDFC4FF6FF701E23D22231
:10217000F0210090142006F020FF4FF6FF701E2380
:10218000D222F0210090FA2006F017FF4FF6FF70E0
:1021900006F0ADFA64233C22AA21142006F00AFEC0
:1021A00064233C22AA21822006F004FED2233C2292
:1021B000AA21FA2006F0FEFD914806F0A4FA0021BB
:1021C0004FF6FF7006F082FAAFF258203C236422EB
:1021D000AA210090142007F044F9AFF264203C23B8
:1021E0006422AA210090822007F03BF9864806F07D
:1021F0008AFAAFF278203C23D222AA210090FA205A
:1022000007F02FF94FF6FF71002006F05FFAAFF6E6
:1022100054401E23D222F0210090FA2007F021F929
:102220007848C0301E23D222F0210090142007F0FD
:1022300018F94FF6FF71002006F048FA64480121B2
:10224000C269904709205A49088061485949086085
:1022500008BD2DE9F04F87B0012001F0B7F9044621
:10226000022001F0B3F90546032001F0AFF906465C
:10227000664B1E22D221042005F00BFC0746644B5E
:102280001E22D221052005F004FC8046614A5BA194
:1022900020462369984781465F4A58A12046236912
:1022A000984782465D4A55A1204623699847834650
:1022B0005B4A52A128462B6998470690594A4FA17C
:1022C00028462B6998470590574A4CA128462B6908
:1022D00098470490554A49A130463369984703907E
:1022E000534A46A13046336998470290514A43A168
:1022F00030463369984701904F4804F09EF94E4BA1
:102300003A46F021FA2003F024FE4B4B4246F021DE
:10231000142003F01EFE484B4A4655214FF48770A7
:1023200003F017FE444B52465521880003F011FE7E
:10233000414B5A4655214FF4CD7003F00AFE3E4BF7
:102340008C214FF48770069A03F003FE3A4B8C21E0
:102350004FF4AA70059A03F0FCFD374B8C214FF423
:10236000CD70049A03F0F5FD334BCD214FF4877007
:10237000039A03F0EEFD304BCD214FF4AA70029A80
:1023800003F0E7FD2C4BCD214800019A03F0E1FD5D
:102390000121E06840680176E86840680176B0682D
:1023A0004068017607B0BDE8F08F000068060020A5
:1023B000200000201C0000205F0A00086F0A0008AF
:1023C0007F0A0008810A0008830A0008850A0008BD
:1023D0000C0700204372656174655F506172616D26
:1023E0006574657273466974726174696F6E506565
:1023F00072696F6453637265656E0D0A00000000B8
:10240000D000002084100008D8000020950A0008A1
:10241000A50A0008B50A0008BF0A0008C90A000892
:10242000D30A0008DD0A0008E70A0008F10A0008DC
:10243000FB0A0008050B0008B007002008B56DA0D6
:1024400005F053FDFFF705FF002006F0E0F94FF619
:10245000FF701C235A220C210090142006F0ADFDC1
:102460006C4806F050F94FF6FF71002006F02EF987
:10247000694A14210E2006F054FB00214FF6FF702C
:1024800006F024F9654806F03EF965A24FF48C7118
:10249000142006F046FB674806F035F9AFF2C0524B
:1024A0001E21372006F03DFB63A21E21782006F096
:1024B00038FBAFF2CC521E21872006F032FB60A21F
:1024C0001E21962006F02DFBAFF2E4521E21B9200A
:1024D00006F027FB5DA21E21C82006F022FB5E4805
:1024E00006F011F95DA2FF21372006F01AFB5DA26C
:1024F0004FF4A071372006F014FB5CA2FF21782076
:1025000006F00FFB5BA24FF4A071782006F009FBE8
:102510005AA240F28B11782006F003FB59A240F238
:102520000911B92006F0FDFA58A240F24F11B92066
:1025300006F0F7FA57A240F28111B92006F0F1FA3D
:102540004FF4784006F0D3F855A24FF4C37137200A
:1025500006F0E7FA54A240F28111462006F0E1FAB3
:102560004FF6FF701E23D222F0210090142006F0B7
:1025700024FD4FF6FF701E23D222F0210090FA2096
:1025800006F01BFD4FF6FF71002006F09FF8AFF636
:10259000D4701E23D222F0210090FA2006F061FFB1
:1025A0001D48C0301E23D222F0210090142006F0D6
:1025B00058FF4FF6FF71002006F088F83D480121D2
:1025C000C26990470A203C4908803A483B49086064
:1025D00008BD3B48008820B139480088401E384972
:1025E000088070473649088000BF354909880029AE
:1025F000FBD170474372656174655F506172616DB4
:102600006574657273576174657253637265656E44
:102610000D0A0000D000002084100008D80000201F
:10262000574154455220504152414D455445525313
:1026300000000000F8000020415645524147450087
:1026400054454D504552415455524500484152441D
:102650004E45535300000000E8000020696E646F8F
:102660006F7200006F7574646F6F72003C203230BF
:102670006F43000032302D33306F43003E20333043
:102680006F430000736F667400000000686172643D
:1026900000000000766572792068617264000000B5
:1026A00065787472656D6500636F6E646974696FD7
:1026B0006E000000B0070020200000201C00002059
:1026C0001800002001B5BDF80000F6490880084652
:1026D000008806F00CF808BD01B5BDF80000F2490D
:1026E00008800846008806F008F808BD10B50446C2
:1026F000204606F08CF810BD2DE9F04105460E4647
:1027000014469846E74807882046FFF7DBFF314626
:10271000284605F08DFF3846FFF7D4FFBDE8F0816D
:102720002DE9F04706468846174600240025A146B5
:10273000A246B146C24600BF2EE0002522E0DB489B
:10274000007828B937F814000121A940084048B1A1
:10275000D648007801280AD137F814008021294191
:10276000084020B909F101001FFA80F909E0484644
:10277000421C1FFA82F90823CA490A885146FFF70A
:10278000BBFF6D1CCA4800788542D8D30AF101000E
:102790001FFA80FAB146641CC64800788442CCD344
:1027A000BDE8F0872DE9F84F064688461746002415
:1027B0000025A246A14600200090B246C14600BFB7
:1027C00030E0002524E0B948007828B937F8140033
:1027D0000121A940084048B1B4480078012809D136
:1027E00037F8140080212941084018B9AE48008804
:1027F000009002E0AB48008800905046421C1FFA4F
:1028000082FA0223BDF800204946FFF775FF6D1CD0
:10281000A74800788542D6D309F101001FFA80F954
:10282000B246641CA34800788442CAD3BDE8F88F3E
:102830002DE9F04107460D4614461E46A4F120003E
:10284000C4B29A48007810B1012834D119E0012EA1
:102850000BD19948016897480078604301EB40022A
:1028600039462846FFF75CFF0AE093490B68914917
:102870000978614303EB4102E8B23946FFF792FF62
:102880001AE0012E0BD18D4801688A480078604318
:1028900001EB400239462846FFF742FF0AE087492C
:1028A0000B6884490978614303EB4102E8B2394679
:1028B000FFF778FF00E000BF00BFBDE8F0812DE921
:1028C000F04707460D461446984600267C48008887
:1028D000411B77480078401E91FBF0F90BE022780D
:1028E000434629463846FFF7A3FF7148007828443D
:1028F00085B2641C761C207808B1012000E000201D
:102900004E4501D2012100E0002108400028E6D117
:10291000BDE8F0872DE9F04104460D4616461F46F6
:10292000A21B521C91B2EA1B521C90B223462A46AB
:1029300005F061FEBDE8F0812DE9F04104460D4649
:1029400016461F463B4632462946204606F0FBF90E
:10295000BDE8F0812DE9F04106460F4614461D46BC
:1029600023462A463946304606F024FABDE8F0816F
:1029700070B504460D46164632462946204606F0F6
:102980003AFA70BD002202600A7802604B78026851
:1029900002EB032202608B78026802EB03420260C2
:1029A000CB78026802EB0362026070477CB5044694
:1029B000002001900090A11C6846FFF7E3FF04F19E
:1029C0000A0101A8FFF7DEFF3620010708808820F2
:1029D0004FF0C24108802C20C10608800DE001980C
:1029E000205C01992144497800EB012085B24FF029
:1029F000C24005800198801C0190DDE900108842EA
:102A0000EDD336200107088008204FF0C24108802E
:102A10007CBD10B504462548047014B1012C14D1B6
:102A200009E0102022490870182022490870254822
:102A300005F069FE0AE008201D4908700C201D49B8
:102A40000870214805F05FFE00E000BF00BF10BD28
:102A500010B504461CB9032008F0BFFC04E0012CAB
:102A600002D1032008F0B1FC10BD10B505F0B8FD8F
:102A700010BD10B540F20F1340F2DF1200210846DE
:102A800005F0B9FD10BD2DE9F04104460D460026C4
:102A90000027B0462946204605F0DEFD06463046B2
:102AA000BDE8F0812C0000202E0000202200002034
:102AB0002300002024000020500000206800002097
:102AC00028000020D0000020E8000020D149087034
:102AD000097839B936210A07118008214FF0C2421E
:102AE000118022E0CB490978012907D136210A0754
:102AF000118068214FF0C242118016E0C549097863
:102B0000022907D136210A071180C8214FF0C2429D
:102B100011800AE0BF490978032906D136210A0746
:102B20001180A8214FF0C242118070472DE9F04773
:102B300004460D46904600260027B146B246B548E9
:102B4000007818B1B348007802280FD1A146B248E6
:102B500000782844401E83B2B04800782044401ECC
:102B600082B22946204605F046FD16E0A9480078C5
:102B7000012803D0A748007803280ED1AA46A74809
:102B800000782844401E83B2A34800782044401EA9
:102B900082B22946204605F02EFD2C20C106088071
:102BA000002625E000271EE09D48007828B938F867
:102BB00016000121B940084048B199480078012821
:102BC0000BD138F8161080203841014029B99548BA
:102BD00000884FF0C241088004E0934800884FF01D
:102BE000C24108807F1C8D4800788742DCD3761C68
:102BF000894800788642D5D3BDE8F08770B5054690
:102C00000E461446A4F12000C4B28548007810B1E5
:102C1000012818D10BE0854801687F48007860439F
:102C200001EB400229463046FFF780FF0CE0804868
:102C3000016879480078604301EB4002294630463C
:102C4000FFF774FF00E000BF00BF70BD2DE9F04743
:102C500007460E4614464FF000080025A946754861
:102C600007806C48007848B9734800886B49097838
:102C700090FBF1F000F0FF09354632E0654800783E
:102C800001280BD16D4800886449097890FBF1F068
:102C900000F0FF093D466748068022E05D48007865
:102CA00002280CD1644800885C49097890FBF1F057
:102CB00000F0FF0959480078301A85B211E05548F4
:102CC000007803280DD15D4800885449097890FBAD
:102CD000F1F000F0FF0951480078381A85B25548E4
:102CE00006803CE04B48007850B92278294651488C
:102CF0000088FFF783FF49480078284485B22BE01D
:102D00004448007801280AD122784A480188284698
:102D1000FFF774FF41480078284485B21CE03D4825
:102D2000007802280AD12278294642480088FFF715
:102D300065FF3A480078281A85B20DE035480078DA
:102D4000032809D122783B4801882846FFF756FF1F
:102D500032480078281A85B2641C08F101082078EE
:102D600008B1012000E00020C84501D2012100E0A7
:102D7000002108400028B5D1BDE8F08710B5029CBD
:102D800010BD2DE9FC4704460D4616461F46DDF8EA
:102D900028800020019000908146A11C6846FFF722
:102DA000F1FD04F10A0101A8FFF7ECFDF019401E46
:102DB00083B205EB0800401E82B231462846FFF779
:102DC000A9FD36200107088088204FF0C241088005
:102DD0002C20C10608800FE00198205C0199214455
:102DE000497800EB01201FFA80F94FF0C240A0F8AB
:102DF00000900198801C0190DDE900108842EBD31F
:102E000036200107088008204FF0C2410880BDE845
:102E1000FC8700002A00002024000020230000205E
:102E2000220000202E0000202C0000205000002056
:102E3000680000203000002028000020260000202C
:102E40002DE9F74F82B0834691460025002001907E
:102E50009E480068D0F8008009F00100002830D0BA
:102E60009A4800680068C71C98480068D0F80CA011
:102E700000BF22E00026002419E01EB93878019036
:102E80007F1C80260198304070B13AF8022B8F4B9E
:102E90001B68DB882B4499B28C4B1B689B882344AE
:102EA00098B20823FFF728FC7610601CC4B298F88B
:102EB0000000A042E1DC681CC5B298F80100A842FD
:102EC000D8DC09F0020000282DD080480068006896
:102ED000C71C7E480068D0F80CA000251FE0002623
:102EE000002416E01EB9387801907F1C80260198D6
:102EF000304058B1039A2A4491B20BEB040290B2CD
:102F0000FFF7C1FDAAF800000AF1020A7610601C62
:102F1000C4B298F80000A042E4DC681CC5B298F87E
:102F20000100A842DBDC09F0040010B9B9F1080F78
:102F300029D1664800680068C71C00251FE00026EC
:102F4000002416E01EB9387801907F1C8026019875
:102F5000304058B15D4B1B681A8A039B2B4499B2D1
:102F60000BEB040398B20823FFF7C6FB7610601C36
:102F7000C4B298F80000A042E4DC681CC5B298F81E
:102F80000100A842DBDC51480068A0F804B04F49BA
:102F900003980968C88005B0BDE8F08F70B5044695
:102FA0000D46012229462046FFF74AFF0622294600
:102FB0002046FFF745FF70BD70B5064643480068E0
:102FC000C488424800688588012E06D0022E32D07F
:102FD000032E1DD0042E36D107E0042C01DB042083
:102FE00000E02046201A84B22EE039480088001BF9
:102FF00038494978401A042801DB042005E03448A8
:103000000088001B33494978401A204484B21BE0F1
:1030100031480088401B2F490978401A042801DBF9
:10302000042005E02C480088401B2A490978401AF2
:10303000284485B208E0042D01DB042000E0284686
:10304000281A85B200E000BF00BF21462846FFF7DE
:10305000A5FF032004F0E8F970BD10B50446142064
:103060000EF0ACF8194908600846006808B900205D
:1030700010BD18490978174A527811FB02F148002F
:103080000EF09CF811490968C86010480068C068D3
:1030900008B90020ECE70CB90E4800E020460B49C7
:1030A000096808600020094909680882202007494A
:1030B000096808720120DBE770B504460D46062258
:1030C00029462046FFF7BCFE70BD000034000020FA
:1030D0002800002038000020260000202DE9F041C3
:1030E00004460D4616461F46601B82B20023394631
:1030F0002846FFF721FC601B82B200233146284698
:10310000FFF71AFCF01B82B2012339462846FFF76D
:1031100013FCF11B8AB2611E88B201233946FFF706
:103120000BFCBDE8F0812DE9F04707460C469046C0
:103130001D46DDF8209000262B46424621463846A3
:10314000FFF7CCFF4846FFF7BDFA01260AE03B1B1C
:103150009B1E9AB2AB1999B2631C98B20023FFF779
:10316000EBFB761CA8EB0500B042F0D8BDE8F08779
:103170002DE9F04105460E461446984602272A1BC3
:1031800091B2321BD0B22246FFF7F2FB631E9AB215
:103190002B1B99B2331BD8B2FFF7EAFB4046FFF76F
:1031A00091FA08E0E31B9AB22B1B99B2331BD8B2F9
:1031B000FFF7DEFB7F1CA742F4D3BDE8F0812DE9C9
:1031C000F04F85B004460D4617461E460020049079
:1031D0008046814682460390029083460190B54224
:1031E00008D1BC4206D10823214628460E9AFFF793
:1031F00083FAA1E0BC4221D1B54202DDB0462E46A1
:1032000045460123214628460E9AFFF775FA681CA9
:103210001FFA80F909E00223214628460E9AFFF79B
:103220006BFA09F101001FFA80F9B145F3DB0423C1
:10323000214630460E9AFFF75FFA7DE0B54219D17C
:10324000BC4202DDB846274644460E98A5F1020C62
:103250000CF0FF03A6F1010C0CF0FF02A4F1010C2D
:103260001FFA8CF1A7F1010C00901FFA8CF0FFF708
:103270005AFF61E0BC4201DDE01B00E0381BB542B3
:1032800001DDA91B00E0711B884201DD012000E087
:1032900000200490049828B1A0462C464546B84624
:1032A00037464646B54205DDA0463C464746B04651
:1032B0002E464546701B80B20390BC4201DDE01BE8
:1032C00000E0381B80B202900399491C484200EB91
:1032D000D07149100FFA81FBA246BC4202DA0120EC
:1032E000019002E04FF0FF300190A94622E00498DF
:1032F00030B10823494650460E9AFFF7FDF905E024
:103300000823514648460E9AFFF7F6F902985844AA
:103310000FFA80FBBBF1000F08DB019850441FFA45
:1033200080FA0398ABEB00000FFA80FB09F1010073
:103330001FFA80F9B145DADD05B0BDE8F08F70B550
:1033400004460D46A4F11E0188B200233C22294602
:10335000FFF7F2FAA5F11E0081B201233C222046BC
:10336000FFF7EAFA70BD2DE9F04104460E46154616
:103370001F46DDF81880A01B83B2E81B82B22146ED
:103380002846FFF7C7FA4046FFF710FBFE4A1288AF
:10339000521E91B2FD4A1288521E90B2FA4A138808
:1033A000FA4A1288FFF7B6FABDE8F0812DE9F0413C
:1033B00004460F461546002638460EF0A0F8691E52
:1033C000884203D238460EF09AF800E0681E06469E
:1033D0003EB13246394620460EF046F90020A0554F
:1033E00001E000202070BDE8F081014609B900200D
:1033F0007047012081F8310000BFF9E72DE9FF4156
:103400000646884617460024002536200DF0D6FED5
:103410000446F4B126802E224146A01CFFF7C6FFC9
:103420009DF80C0084F83000BDF82800608684F810
:1034300034702046FFF7D9FF18200DF0BFFE054677
:103440001DB16C600420287403E020460DF0E5FEF9
:103450000024284604B0BDE8F081014609B90020E7
:103460007047002008770120487700BFF8E72DE972
:10347000F0410646884617460025002424200DF01A
:103480009DFE0446DCB12680C148A060C148606052
:103490001022414604F10C00FFF788FF2762204606
:1034A000FFF7DBFF18200DF089FE05461DB16C60AB
:1034B0000120287403E020460DF0AFFE00242846CA
:1034C000BDE8F081014609B900207047002081F86D
:1034D0002500012081F8260000BFF6E72DE9F04124
:1034E000064688461746002400252C200DF066FE6F
:1034F0000446DCB126801922414604F10C00FFF796
:1035000055FFA548A060A5486060A7622046FFF768
:10351000D9FF18200DF052FE05461DB16C60032046
:10352000287403E020460DF078FE00242846BDE80C
:10353000F081014609B9002070470120487698487B
:10354000486098488860002008760120F4E72DE95B
:10355000F0410446884617460025002614B16088CD
:10356000032802D10020BDE8F08120200DF026FEC6
:103570000546F5B12C600C22414605F10C00FFF721
:1035800015FFEF6118200DF019FE06466EB175604B
:10359000022030742846FFF7CCFF6188201D40F8D8
:1035A00021606088401C608003E028460DF035FEF5
:1035B00000253046D7E7014609B9002070470020B2
:1035C0004880AFF2750008610120F7E770B5054645
:1035D000002414200DF0F2FD04461CB12580204685
:1035E000FFF7E9FF204670BD014609B9002070478A
:1035F0004FF6FF70088010204880002008760120D8
:10360000F5E72DE9F04104460F461646002514B1B2
:10361000A08A0A2802D10020BDE8F08120200DF008
:10362000CDFD0546BDB16C601022394605F108009C
:10363000FFF7BCFEEE612846FFF7D6FFA18A04F132
:10364000180040F82150A08A401CA082A08A0128BE
:1036500001D1A16908760120DEE7014609B9002001
:103660007047514848605148086001208874002024
:1036700008728882AFF2750008640120F0E770B527
:1036800006460024002544200DF098FD044684B130
:1036900026822046FFF7E1FF18200DF08FFD05463A
:1036A0001DB16C600720287403E020460DF0B5FDC5
:1036B0000024284670BD014609B90020704700204B
:1036C00081F82C00012081F82D0000BFF6E72DE9DC
:1036D000F0470646894617469846002400253420C0
:1036E0000DF06CFD044614B326803148A0603148CB
:1036F00060601022494604F10C00FFF757FE1022CB
:10370000394604F11C00FFF751FEC4F83080204612
:10371000FFF7D1FF18200DF051FD05461DB16C607B
:103720000520287403E020460DF077FD002428468C
:10373000BDE8F087014609B9002070470020C87233
:103740000120087300BFF8E72DE9F04706460F4651
:1037500090469946DDF820A00024002514200DF0A5
:103760002DFD044644B326806760A4F8088084F8E1
:103770000A90C4F810A02046FFF7DCFF18200DF0D7
:103780001DFD0546EDB118E02800002026000020B0
:10379000E0C3010886C9010830A9010892AC0108FC
:1037A0006CA20108CEA50108F4AF0108FEB3010820
:1037B0002CCF0108D2D4010807E06C6006202874E1
:1037C00003E020460DF029FD00242846BDE8F087DF
:1037D00010B504460CB9002010BD012084F8280063
:1037E000FE49896848000DF0E9FC60620120F3E7BA
:1037F0002DE9F047064689461746984600240025DD
:1038000030200DF0DBFC04462CB32680F4486060C9
:10381000F448A0601022494604F10C00FFF7C6FDF1
:1038200004F81C7F122060707620A0706420207144
:10383000E070002060716420A071C4F810801C3C0E
:103840002046FFF7C5FF18200DF0B8FC05461DB156
:103850006C600820287403E020460DF0DEFC002494
:103860002846BDE8F087014609B9002070470120CD
:1038700081F8750000BFF9E72DE9F04707468A4651
:1038800090469946089E0025002476200DF096FC6F
:103890000446002C32D0002084F8740027800722D0
:1038A0005146A01CFFF782FD0722414604F10900A2
:1038B000FFF77CFD322E09DD6422494604F1100039
:1038C0000DF03CFE322084F8740007E07200494697
:1038D00004F110000DF032FE84F874602046FFF70A
:1038E000C2FF18200DF06AFC05461DB16C6009206E
:1038F000287403E020460DF090FC00242846BDE823
:10390000F087014609B900207047012081F8DA00EC
:1039100000BFF9E72DE9F05F07468A4690469946D1
:10392000DDE90A6B00250024DC200DF047FC04468D
:10393000002C34D0002084F8D8002780072251467C
:10394000A01CFFF733FD0722414604F10900FFF7F1
:103950002DFD642E09DDC822494604F110000DF04A
:10396000EDFD642084F8D80007E07200494604F1B8
:1039700010000DF0E3FD84F8D86084F8D9B020463B
:10398000FFF7BFFF18200DF019FC05461DB16C6054
:103990000A20287403E020460DF03FFC002428464E
:1039A000BDE8F09F70B505466C680CB9002070BD8D
:1039B0008DA004F09AFA0120E07195A004F095FA28
:1039C0000020FFF726F89EA004F08FFA4FF6FF7054
:1039D000FEF782FEA7A004F088FA1020FEF772FE20
:1039E000B0A004F082FA0120E1E707B5AAB00020F8
:1039F00028904FF400401F909FEDB60B8DED140BF7
:103A00002A9840680F900F9810B900202DB000BD83
:103A100001210F9880F8DA109FEDAE0B8DED160B9B
:103A2000AE48008835380E900FF0BBF9CDE9120191
:103A3000AB4800883F380E900FF0B3F9CDE91C0178
:103A40009FEDA80B53EC102B9DED120B51EC100BBE
:103A50000EF06EFFCDE922019DED1C0B8DED200BCC
:103A60009E48008848380E900FF09BF9CDE924015C
:103A70009B48008851380E900FF093F9CDE926014C
:103A80000F9890F8D8000B900FF0A2F9CDE90C0137
:103A90009DED0C0B53EC102B9DED240B51EC100BFA
:103AA0000EF0FAFFCDE918019FED900B53EC102BAF
:103AB0009DED260B51EC100B0EF0EEFFCDE91A0137
:103AC0000020FEF7FFFD0120FEF7A3FF9FED890B0D
:103AD00053EC102B9DED240B51EC100B0EF028FF36
:103AE000CDE90A019DED0A0B51EC100B0FF02CF9FA
:103AF00080B20E909DED120B51EC100B0FF024F9DB
:103B000080B20D909DED1C0B51EC100B0FF01CF9C9
:103B100080B200230C90DDE90D12FEF70DFF9DED44
:103B2000260B51EC100B0FF00FF980B20E909DEDAB
:103B3000120B51EC100B0FF007F980B20D909DEDB8
:103B4000260B53EC102B9DED1C0B51EC100B0FF0C2
:103B5000CFFACDE90A019DED0A0B51EC100B0FF0E5
:103B6000F3F880B201230C90DDE90D12FEF7E4FEBC
:103B70009FED620B53EC102B9DED120B51EC100BD3
:103B80000EF0D6FECDE90A019DED0A0B51EC100BAB
:103B90000FF0DAF880B29FED5B0B53EC102B0E9018
:103BA0009DED1C0B51EC100B0EF0C2FECDE90A018D
:103BB0009DED0A0B51EC100B0FF0C6F880B20123FB
:103BC00052A20D900E99FEF77AFE9FED510B53EC29
:103BD000102B9DED220B51EC100B9DE0800000207E
:103BE0002AD9010858D80108696E205365744E65BA
:103BF0007752656374436F6E74726F6C5669736944
:103C0000626C65204E6577726563740D0A00000072
:103C1000696E205365744E657752656374436F6EA9
:103C200074726F6C56697369626C6520474C5F549F
:103C3000525545204E6577726563740D0A00000089
:103C4000696E205365744E657752656374436F6E79
:103C500074726F6C56697369626C6520474C5F467D
:103C60004F4E545F424947204E6577726563740D2D
:103C70000A000000696E205365744E6577526563D3
:103C800074436F6E74726F6C56697369626C6520F1
:103C9000474C5F5768697465204E65777265637439
:103CA0000D0A0000696E205365744E657752656396
:103CB00074436F6E74726F6C56697369626C6520C1
:103CC000474C5F426C7565204E6577726563740D75
:103CD0000A00000000000000000000002800002092
:103CE000260000200000000000001040000000003E
:103CF000000026400000000000000040000000001E
:103D000000001440000000000000184030000000D7
:103D100000000000000032400EF00AFE9FEDFE0B96
:103D200053EC102BCDE908019DED080B51EC100B65
:103D30000FF0DEF9CDE90A019DED0A0B51EC100BF5
:103D40000FF002F880B21FED130B53EC102B0E9006
:103D50009DED200B51EC100B0FF0CAF9CDE90A01D3
:103D60009DED0A0B51EC100B0EF0EEFF80B201231B
:103D7000AFF268020D900E99FEF7A1FD0F9890F832
:103D8000D900012853D11FED250B53EC102B9DEDCD
:103D9000240B51EC100B0EF0CBFDCDE908019DED8D
:103DA000080B51EC100B0EF0CFFF80B20E909DED82
:103DB000260B51EC100B0EF0C7FF80B20D909DED5D
:103DC000120B51EC100B0EF0BFFF80B29FEDD40B25
:103DD00053EC102B0C909DED1C0B51EC100B0FF0C5
:103DE00087F9CDE908019DED080B51EC100B0EF0A1
:103DF000ABFF80B20B900CA90EC9FEF78BFD002023
:103E0000FEF774FCC8480088401E80B20E90C74878
:103E10000088401E80B20D90C3480388C3480288C2
:103E2000DDE90D01FEF776FD4FF6F0701F9021E001
:103E30000F981030289930F911000B900EF0B1FF57
:103E4000CDE90C019DED160B53EC102B9DED0C0BE9
:103E500051EC100B0FF00AF909D20F981030289985
:103E600030F911000E900EF09CFFCDE91601289854
:103E7000401C28900F9890F8D81028988142D7D8E5
:103E80009DED1A0B53EC102B9DED260B51EC100BF6
:103E90000FF02EF9CDE90C019DED0C0B53EC102B1E
:103EA0009DED160B51EC100B0EF0F6FDCDE9140153
:103EB00000202890C3E1289800287CD00020FEF73D
:103EC00001FC9DED220B51EC100B0EF03DFF80B27A
:103ED0000E9028980EF07CFFCDE906019DED1A0B9F
:103EE00053EC102B9DED060B51EC100B0EF0C0FFA8
:103EF000CDE908019DED200B53EC102B9DED080B37
:103F000051EC100B0FF0E8F8CDE90A019DED0A0B1A
:103F100051EC100B0EF018FF80B2002304220D901C
:103F20000E99FEF709FD44F20820FEF7CBFB1FEDCA
:103F30008F0B53EC102B9DED240B51EC100B0EF05E
:103F4000F7FCCDE90A019DED0A0B51EC100B0EF0C8
:103F5000FBFE80B21FED9D0B53EC102B0E909DEDE0
:103F6000220B51EC100B0FF0C3F8CDE90A019DEDC7
:103F70000A0B51EC100B0EF0E7FE80B20D90289862
:103F80000EF026FFCDE906019DED1A0B53EC102B28
:103F90009DED060B51EC100B0EF06AFFCDE9080108
:103FA0009DED200B53EC102B9DED080B51EC100BED
:103FB0000FF092F800E00EE0CDE90A019DED0A0B4A
:103FC00051EC100B0EF0C0FE80B200230C90DDE926
:103FD0000D12FEF7B1FC28980A287DD10020FEF7CB
:103FE00071FB9FED530B53EC102B9DED220B51EC0D
:103FF000100B0EF09DFCCDE90A019DED0A0B51EC72
:10400000100B0EF0A1FE80B20E9028980EF0E0FE8C
:10401000CDE902019DED1A0B53EC102B9DED020B27
:1040200051EC100B0EF024FFCDE904019DED200BA7
:1040300053EC102B9DED040B51EC100B0FF04CF8D2
:104040001FEDD40B53EC102BCDE906019DED060BB3
:1040500051EC100B0FF04CF89FED370B53EC102B7D
:10406000CDE908019DED080B51EC100B0FF040F865
:10407000CDE90A019DED0A0B51EC100B0EF064FE28
:1040800080B201230D900F9A09320E99FEF717FCAA
:104090009DED160B53EC102B29A110A80DF0E4F8A0
:1040A0009FED290B53EC102B9DED160B51EC100BD3
:1040B0000EF0A2FE6AD29FED1E0B53EC102B9DED6D
:1040C000220B51EC100B0EF033FCCDE90A019DEDF3
:1040D0000A0B51EC100B00E0AEE00EF035FE80B2A2
:1040E0000E9028980EF074FECDE904019DED1A0B98
:1040F00053EC102B9DED040B51EC100B0EF0B8FEA1
:10410000CDE906019DED200B53EC102B9DED060B28
:1041100051EC100B1CE000000000000000002240E9
:10412000000000000000F03F2800002026000020D2
:10413000000000000000424000000000000030408D
:1041400025342E31660000000000000000408F4042
:104150000EF0C2FF9FEDFE0B53EC102BCDE90801D2
:104160009DED080B51EC100B0EF0C2FFCDE90A01DA
:104170009DED0A0B51EC100B0EF0E6FD80B2012311
:1041800010AA0D900E99FEF79AFB55E09FEDF20BE9
:1041900053EC102B9DED220B51EC100B0EF0C8FBD5
:1041A0001FED1D0B53EC102BCDE908019DED080B05
:1041B00051EC100B0EF0BCFBCDE90A019DED0A0B92
:1041C00051EC100B0EF0C0FD80B20E9028980EF04E
:1041D000FFFDCDE904019DED1A0B53EC102B9DED75
:1041E000040B51EC100B0EF043FECDE906019DEDE2
:1041F000200B53EC102B9DED060B51EC100B0EF029
:104200006BFF9FEDD30B53EC102BCDE908019DED17
:10421000080B51EC100B0EF06BFFCDE90A019DED80
:104220000A0B51EC100B0EF08FFD80B2012310AA87
:104230000D900E99FEF743FB2898401C2890289873
:104240000A287FF638AE00202890FDE39DED180B7C
:1042500053EC102B9DED120B51EC100B0EF048FFA0
:10426000CDE912010020FEF72DFA1FED530B53ECA0
:10427000102B9DED120B51EC100B0EF059FBCDE9FC
:104280000A019DED0A0B51EC100B0EF05DFD80B2A2
:104290000E909DED1C0B51EC100B0EF055FD80B2F5
:1042A000012304220D900E99FEF746FB0F9890F81B
:1042B000D8000F286CDC289A521CA9A110A80CF079
:1042C000D3FF9FEDA80B53EC102B9DED120B51EC7F
:1042D000100B0EF02DFBCDE90A019DED0A0B51EC00
:1042E000100B0EF031FD80B29FED9E0B53EC102BA6
:1042F0000E909DED1C0B51EC100B0EF019FBCDE94F
:104300000A019DED0A0B51EC100B0EF01DFD80B261
:10431000012310AA0D900E99FEF7D1FA44F208205D
:10432000FEF7D0F99DED260B51EC100B0EF00CFDB5
:1043300080B21FED850B53EC102B0E909DED120BF0
:1043400051EC100B0EF0F4FACDE90A019DED0A0BC9
:1043500051EC100B0EF0F8FC80B20D909DED260B89
:1043600053EC102B9DED1C0B51EC100B0EF0C0FE0E
:10437000CDE90A019DED0A0B51EC100B0EF0E4FCA7
:1043800080B201230C90DDE90D12FEF7D5FA87E12A
:104390000F9890F8D8000F287BDD0F9890F8D80080
:1043A000282876DC2898401C0321B0FBF1F201FBA1
:1043B00012000028EBD1289A521C69A110A80CF019
:1043C00053FF9FED680B53EC102B9DED120B51EC3E
:1043D000100B0EF0ADFACDE90A019DED0A0B51EC80
:1043E000100B0EF0B1FC80B29FED5E0B53EC102B66
:1043F0000E909DED1C0B51EC100B0EF099FACDE9CF
:104400000A019DED0A0B51EC100B0EF09DFC80B2E1
:10441000012310AA0D900E99FEF751FA44F20820DC
:10442000FEF750F99DED260B51EC100B0EF08CFCB5
:1044300080B21FEDC50B53EC102B0E909DED120BAF
:1044400051EC100B0EF074FACDE90A019DED0A0B48
:1044500051EC100B0EF078FC80B20D909DED260B08
:1044600053EC102B9DED1C0B51EC100B0EF040FE8D
:10447000CDE90A019DED0A0B51EC100B0EF064FC26
:1044800080B201230C90DDE90D12FEF755FA07E129
:10449000FFE70F9890F8D800282858DD0F9890F87B
:1044A000D800462853DC2898401C00F00300002860
:1044B000EDD1289A521C2AA110A80CF0D5FE9FED30
:1044C000290B53EC102B9DED120B51EC100B0EF041
:1044D0002FFACDE90A019DED0A0B51EC100B0EF0FD
:1044E00033FC80B29FED1F0B53EC102B0E909DED13
:1044F0001C0B51EC100B0EF01BFACDE90A019DEDDF
:104500000A0B51EC100B0EF01FFC80B2012310AA15
:104510000D900E99FEF7D3F944F20820FEF7D2F879
:104520009DED260B51EC100B0EF00EFC80B29FEDB2
:104530000F0B53EC102B0E909DED120B51EC100B4A
:104540000EF0F6F9CDE90A019DED0A0B12E031E01B
:1045500000000000000014400000000000002040A7
:10456000256400000000000000001840000000006A
:104570000000F03F51EC100B0EF0E6FB80B20D9006
:104580009DED260B53EC102B9DED1C0B51EC100BED
:104590000EF0AEFDCDE90A019DED0A0B51EC100BBA
:1045A0000EF0D2FB80B201230C90DDE90D12FEF774
:1045B000C3F975E02898401C0A21B0FBF1F201FB19
:1045C000120000286CD1289A521CAFF26C0110A87E
:1045D0000CF04AFE1FED1D0B53EC102B9DED120B42
:1045E00051EC100B0EF0A4F9CDE90A019DED0A0B78
:1045F00051EC100B0EF0A8FB80B21FED260B53EC14
:10460000102B0E909DED1C0B51EC100B0EF090F941
:10461000CDE90A019DED0A0B51EC100B0EF094FB55
:1046200080B2012310AA0D900E99FEF748F944F2CA
:104630000820FEF747F89DED260B51EC100B0EF00D
:1046400083FB80B21FED370B53EC102B0E909DEDCA
:10465000120B51EC100B0EF06BF9CDE90A019DED38
:104660000A0B51EC100B0EF06FFB80B20D909DED1C
:10467000260B53EC102B9DED1C0B51EC100B0EF088
:1046800037FDCDE90A019DED0A0B51EC100B0EF040
:104690005BFB80B201230C90DDE90D12FEF74CF9B3
:1046A000289800287DD10F981030289930F91100F2
:1046B00003900EF076FBCDE904019DED140B53EC55
:1046C000102B9DED040B51EC100B0EF0E5F9CDE92C
:1046D00006019DED1C0B53EC102B9DED060B51ECD0
:1046E000100B0EF0F9FCCDE908019DED080B51EC23
:1046F000100B0EF029FB80B20E909DED120B51ECC9
:10470000100B0EF021FB80B20D909DED1C0B51ECB7
:10471000100B0EF019FB80B20C909DED180B53ECB2
:10472000102B9DED120B51EC100B0EF001F9CDE9A1
:1047300008019DED080B51EC100B0EF005FB80B24B
:104740000B90BDF87C0000900BA80FC8FEF737FD5A
:104750000F981030289930F9110001900EF021FBCC
:10476000CDE902019DED140B53EC102B9DED020BD6
:1047700051EC100B0EF090F9CDE904019DED1C0BEE
:1047800053EC102B9DED040B51EC100B0EF0A4FC20
:104790001FED8A0B53EC102BCDE906019DED060BA6
:1047A00000E0B2E051EC100B0EF0A2FCCDE90801E4
:1047B0009DED080B51EC100B0EF0C6FA80B20E9076
:1047C0009DED120B51EC100B0EF0BEFA80B21FEDF6
:1047D000990B53EC102B0D909DED1C0B51EC100B15
:1047E0000EF086FCCDE908019DED080B51EC100B95
:1047F0000EF0AAFA80B20C909DED180B53EC102B22
:104800009DED120B51EC100B0EF092F8CDE9080162
:104810009DED080B51EC100B0EF096FA80B20B9048
:10482000BDF87C0000900BA80FC8FEF7C8FC0F98DD
:104830001030289930F9110003900EF0B2FACDE94A
:1048400004019DED140B53EC102B9DED040B51EC6A
:10485000100B0EF021F9CDE906019DED1C0B53EC78
:10486000102B9DED060B51EC100B0EF035FCCDE935
:1048700008019DED080B51EC100B0EF065FA80B2AB
:104880001FEDC60B53EC102B0E909DED120B51EC4F
:10489000100B0EF02DFCCDE908019DED080B51EC3D
:1048A000100B0EF051FA80B20D909DED1C0B51ECE7
:1048B000100B0EF049FA80B20C909DED180B53ECE2
:1048C000102B9DED120B51EC100B0EF031F81FED7B
:1048D000D90B53EC102BCDE906019DED060B51ECE5
:1048E000100B0EF005FCCDE908019DED080B51EC15
:1048F000100B0EF029FA80B20B90BDF87C000090EE
:104900000BA80FC8FEF75BFCA5E10F9810302899A3
:1049100030F9110003900EF044FACDE904019DED49
:10492000140B53EC102B9DED040B51EC100B0EF0FF
:10493000B3F8CDE906019DED1C0B53EC102B9DED5A
:10494000060B51EC100B0EF0C7FBCDE908019DEDF5
:10495000080B51EC100B0EF0F7F980B20E909DEDA4
:10496000120B51EC100B0EF0EFF980B20D9028985D
:10497000411E0F98103030F9110003900EF011FA1B
:10498000CDE904019DED140B53EC102B9DED040BB0
:1049900051EC100B0EF080F8CDE906019DED1C0BDB
:1049A00053EC102B9DED060B51EC100B0EF094FB0D
:1049B000CDE908019DED080B51EC100B0EF0C4F988
:1049C00080B20C909DED180B53EC102B9DED120B4B
:1049D00051EC100B0DF0ACFFCDE908019DED080B7B
:1049E00051EC100B0EF0B0F980B20B90BDF87C00CA
:1049F00000900BA80FC8FEF7E2FB0F981030289923
:104A000030F9110001900EF0CCF9CDE902019DEDD5
:104A1000140B53EC102B9DED020B51EC100B0EF010
:104A20003BF8CDE904019DED1C0B53EC102B9DEDE3
:104A3000040B51EC100B0EF04FFB9FEDFC0B53ECF5
:104A4000102BCDE9060100E04CE19DED060B51EC89
:104A5000100B0EF04DFBCDE908019DED080B51EC5C
:104A6000100B0EF071F980B29FEDF00B53EC102B90
:104A70000E909DED120B51EC100B0EF039FBCDE9B1
:104A800008019DED080B51EC100B0EF05DF980B2A2
:104A90000D902898411E0F98103030F911000190A8
:104AA0000EF07FF9CDE902019DED140B53EC102BB4
:104AB0009DED020B51EC100B0DF0EEFFCDE9040162
:104AC0009DED1C0B53EC102B9DED040B51EC100BCA
:104AD0000EF002FB9FEDD50B53EC102BCDE9060138
:104AE0009DED060B51EC100B0EF002FBCDE9080119
:104AF0009DED080B51EC100B0EF026F980B20C90D6
:104B00009DED180B53EC102B9DED120B51EC100B7F
:104B10000DF00EFFCDE908019DED080B51EC100BD7
:104B20000EF012F980B20B90BDF87C0000900BA83B
:104B30000FC8FEF744FB0F981030289930F9110088
:104B400003900EF02EF9CDE904019DED140B53EC0A
:104B5000102B9DED040B51EC100B0DF09DFFCDE9DA
:104B600006019DED1C0B53EC102B9DED060B51EC3B
:104B7000100B0EF0B1FACDE908019DED080B51ECD8
:104B8000100B0EF0E1F880B29FEDA80B53EC102B48
:104B90000E909DED120B51EC100B0EF0A9FACDE921
:104BA00008019DED080B51EC100B0EF0CDF880B212
:104BB0000D902898411E0F98103030F91100039085
:104BC0000EF0EFF8CDE904019DED140B53EC102B22
:104BD0009DED040B51EC100B0DF05EFFCDE90601CD
:104BE0009DED1C0B53EC102B9DED060B51EC100BA7
:104BF0000EF072FACDE908019DED080B51EC100B97
:104C00000EF0A2F880B20C909DED180B53EC102B17
:104C10009DED120B51EC100B0DF08AFE9FED830BF6
:104C200053EC102BCDE906019DED060B51EC100B5A
:104C30000EF05EFACDE908019DED080B51EC100B6A
:104C40000EF082F880B20B90BDF87C0000900BA8AB
:104C50000FC8FEF7B4FA0F9890F8D800401E2899B4
:104C600088423CD10020FDF72DFD9FED720B53ECE7
:104C7000102B9DED120B51EC100B0DF059FECDE9F0
:104C80000A019DED0A0B51EC100B0EF05DF880B29D
:104C90009FED6A0B53EC102B0E909DED1C0B51EC0D
:104CA000100B0DF045FE9FED670B53EC102BCDE97B
:104CB00008019DED080B51EC100B0DF039FECDE90C
:104CC0000A019DED0A0B51EC100B0EF03DF880B27D
:104CD00001230D900F9A921C0E99FDF7F0FD289874
:104CE000401C28900F9890F8D810289881423FF6E1
:104CF000ADAA0020FDF78DFE0120FEF787BE2DE94D
:104D0000F04F2DED108B89B08346002400200890D1
:104D10009FED4E0BB0EE40AAF0EE60AA9FED4B0B5C
:104D20008DED060BDBF8045025B909B0BDEC108BF6
:104D3000BDE8F08F012085F87500464800883238BC
:104D400086B245490988A1F148000EF02AF841ECE5
:104D5000180B301D87B29FED410B53EC102B51EC1B
:104D6000180B0EF0C5F941EC1B0B0DF0EDFF1FFA0F
:104D700080FA384800883C381FFA80F936480088A5
:104D800050381FFA80F895F8740099FBF0F0C0B223
:104D900008900A2098FBF0F003900EF002F841EC26
:104DA000190B0020FDF78EFC0120FDF732FE51ECBF
:104DB000180B0DF0C9FF80B200234A46314603901C
:104DC000FDF7BAFD40460EF003F841EC1C0B53EC26
:104DD000182B0EF081F941EC1B0B0DF0B5FF80B2E2
:104DE0000123424631460390FDF7A6FD9FED1D0BC2
:104DF00053EC102B51EC180B0DF09AFD41EC1B0BF2
:104E00000DF0A2FF80B20390701D81B2012317A2A2
:104E10000398FDF754FD07F10B0291B2AAF10502C8
:104E200090B2012311A2FDF74AFD37E00000000017
:104E30000000F03F000000000000384000000000CB
:104E400000000840000000000000304000000000AA
:104E500000000000280000202600002000000000C4
:104E6000000010400000000000001840300000006A
:104E700005F1100131F914000DF093FF41EC1B0B0B
:104E800053EC1A2B0EF0F2F807D205F1100131F9AC
:104E900014000DF086FF41EC1A0B641C95F87400A9
:104EA000A042E5D840460DF093FF41EC1C0B53ECBB
:104EB000192B0EF01DF941EC1B0B53EC1B2B51EC85
:104EC0001A0B0DF0E9FDCDE906010024C3E0002036
:104ED000FDF7F8FB0020FDF7F5FB20460DF078FF0D
:104EE00041EC1E0B53EC192B0DF0C2FF41EC1C0BD7
:104EF00050460DF06DFF41EC1D0B53EC1C2B0EF0DA
:104F0000F7F841EC1B0B0DF01FFF80B200230422C9
:104F100039460390FDF710FD092C70D120460DF0A5
:104F200057FF53EC192BCDE900019DED000B51EC1F
:104F3000100B0DF09DFF41EC1E0B50460DF048FF8D
:104F400041EC1F0B53EC1E2B0EF0D2F841EC1D0B65
:104F50009FEDFE0B53EC102B0EF0CAF841EC1C0B2E
:104F60001FED480B53EC102B0EF0C2F841EC1B0B5D
:104F70000DF0EAFE80B2039007F1280081B2012310
:104F800005F109020398FDF79AFC53EC1A2BAFF6D2
:104F9000506104A80CF068F99FEDEE0B53EC102B58
:104FA00051EC1A0B0DF028FF2AD220460DF010FF0D
:104FB00041EC1F0B53EC192B0DF05AFF41EC1D0B6C
:104FC00050460DF005FF41EC1E0B53EC1D2B0EF06F
:104FD0008FF841EC1C0B9FEDE10B53EC102B0EF006
:104FE00087F841EC1B0B0DF0AFFE80B2039007F188
:104FF000280081B2012304AA0398FDF760FC29E090
:1050000020460DF0E5FE41EC1F0B53EC192B0DF083
:105010002FFF41EC1D0B50460DF0DAFE41EC1E0B4C
:1050200053EC1D2B0EF064F841EC1C0B9FEDCB0BE9
:1050300053EC102B0EF05CF841EC1B0B0DF084FED2
:1050400080B2039007F1300081B2012304AA0398D3
:10505000FDF735FC641C0A2CFFF439AF0024C4E0D2
:1050600005F1100131F914000DF09BFE41EC1D0B10
:105070009DED060B53EC102B0DF00EFD41EC1C0BBF
:1050800053EC182B0EF028F841EC1B0B0DF05CFED6
:10509000C0B2039051EC180B0DF056FEC0B2029056
:1050A000102000900898301A401C81B23046DDE98B
:1050B0000223FEF738F80898301A86B20020FDF770
:1050C00001FB51EC180B0DF03FFE80B20390701CF9
:1050D00081B2012304220398FDF72EFC95F8740099
:1050E0000F2814DC621CAFF6883104A80CF0BCF861
:1050F00051EC180B0DF028FE801D80B20390B01DFE
:1051000081B2012304AA0398FDF7D9FB49E095F881
:1051100074000F2826DD95F87400282822DC601C16
:105120000321B0FBF1F201FB1200D0BB621CAFF611
:10513000D03104A80CF098F81FEDB60B53EC102BEF
:1051400051EC180B0DF0F4FB41EC1B0B0DF0FCFDCA
:1051500080B20390B01D81B2012304AA0398FDF729
:10516000AEFB1EE0601C00F00300D0B9621CAFF67D
:10517000104104A80CF078F81FEDC60B53EC102B6F
:1051800051EC180B0DF0D4FB41EC1B0B0DF0DCFDCA
:1051900080B20390B01D81B2012304AA0398FDF7E9
:1051A0008EFB95F87400401EA0421DD11FEDDD0B53
:1051B00053EC102B51EC180B0DF0BAFB41EC1C0B0F
:1051C0001FEDE00B53EC102B0DF0B2FB41EC1B0B71
:1051D0000DF0BAFD80B2039006F1180081B20123F0
:1051E000AA1C0398FDF76BFB641C95F87400A042A1
:1051F0003FF636AF0020FDF70CFC012095E52DE9C8
:10520000FC5F04468A46207C082870D100250026D1
:105210004FF0000B0027002001900090DFF8448140
:105220006068D0F82490606890F82000616891F977
:105230001F1088420ADA606890F91F000A3080B2B5
:105240000190606890F8200009300090606890F844
:105250002000616891F91F1088420ADD606890F9AA
:105260001F00083080B20190606890F8200009307B
:105270000090BAF1000F2DD1002625E0002700256F
:105280001BE02FB9D8F800B008F104084FF400274C
:105290000BEA070070B122899319019A9A1A91B208
:1052A000A289123A2A4490B2FDF7EDFBA9F800005A
:1052B00009F102097F08681CC5B22A480C38006849
:1052C000A842DED8701CC6B226480C384068B042EE
:1052D000D4D239E0606890F82000616891F91F101D
:1052E000884231D06068D0F82490002627E02CE076
:1052F000002700251CE02FB9D8F800B008F10408F9
:105300004FF400270BEA070078B139F8022B238904
:1053100003EB060C009BACEB030399B2A389123B91
:105320002B4498B20823FDF7E7F97F08681CC5B243
:105330000C480C380068A842DDD8701CC6B2094879
:105340000C384068B042D3D800BF0DE00000000028
:10535000000000400000000000408F4000000000FE
:10536000000014408C000020BDE8FC9F2DE9F04FA8
:1053700087B0064600270020029081468246834679
:10538000012401908046756815B907B0BDE8F08F1B
:1053900095F82800012811D0012085F82800F64A48
:1053A0001268D188F44A126890880122FDF748FDFE
:1053B000287F18B900213046FFF721FF95F81EB06D
:1053C0000120FDF726FBED480690A8680590EC4803
:1053D000049068680390287F68BB3789B6F80C9002
:1053E000B6F80EA004980090381F81B253464A4682
:1053F0003846FDF7B8FF0EE00598621CA7EB820265
:1054000091B2A7EB8402009090B253464A46FDF752
:10541000AAFF601CC4B21B2CEEDB0698621CA7EB33
:10542000820291B2A7EB8402009090B253464A46A2
:10543000FDF799FFACE0287F01284DD1D1480088C5
:1054400001904FF6FF70FDF73DF9B37B96F80CC065
:10545000ACF1010C0CF0FF02B6F80AC0ACF1020C82
:105460001FFA8CF13089FDF739FEBDF80400FDF715
:1054700029F9B089001F87B2F089001F80B202901D
:10548000B6F80890B6F80AA00320FDF71FFB042029
:1054900012235246394600900698FDF772FC0BE045
:1054A00004200090A7EB840081B212235246059895
:1054B000FDF767FC601CC4B21B2CF1DB04200090DC
:1054C000A7EB840081B2122352460498FDF759FCE1
:1054D0000020FDF7FBFA5BE0287F022858D1A9489D
:1054E000008801904FF6FF70FDF7ECF896F80EC0BB
:1054F000ACF1050C0CF0FF0396F80CC0ACF1060CF7
:105500000CF0FF02B6F80AC0ACF1010C1FFA8CF1E6
:10551000B6F808C00CF1010C1FFA8CF0FDF7DEFDA7
:10552000BDF80400FDF7CEF8B089001F87B2F089FE
:10553000001F80B20290B6F80890B6F80AA00120C9
:10554000FDF7C4FA042012234A46009002990698F7
:10555000FDF717FC0CE004200090029800EB84009B
:1055600081B212234A460598FDF70BFC601CC4B2B9
:105570001B2CF0DB04200090029800EB840081B229
:1055800012234A460498FDF7FCFB0020FDF79EFA23
:1055900095F8200095F91F10884209D0287F38B966
:1055A00000213046FFF72BFE01213046FFF727FE92
:1055B000287FE0B90398AAF1010C1FFA8CF309F1D6
:1055C000010C1FFA8CF2009095F91FC0A7EB0C0C90
:1055D000ACF10A0C1FFA8CF195F91FC0A7EB0C0C6B
:1055E000ACF1040C1FFA8CF0FDF7BDFE2FE0287F14
:1055F000012814D10320FDF769FA06200090AAF1D2
:10560000010082B295F91F00381A001F81B21423DD
:105610000398FDF7B6FB0020FDF758FA17E0287F46
:10562000022814D10120FDF751FA0620009009F15B
:10563000010082B295F91F3002981844001D81B212
:1056400014230398FDF79DFB0020FDF73FFAE87F48
:1056500085F8200005F10C000BF051FF8046B8F1F1
:10566000000F24D00024287F10BB10E0ABEBC80251
:10567000A7EB5202D21EA2EBC40291B209F10202C0
:1056800090B2002340A2FDF71AF9601CC4B2A8F141
:105690000100A042EAD8821CA7EBC20291B209F134
:1056A000020290B2012305F10C02FDF708F95EE059
:1056B000287F01282ED10320FDF708FA12E0ABEB7A
:1056C000C802A7EB5202121DA2EBC40291B22F4AEC
:1056D0001288A2EB0A02921C90B22BA2FDF7B6FA36
:1056E000601CC4B2A8F10100A042E8D8ABEBC8022C
:1056F000A7EB5202121D91B2244A1288A2EB0A02B1
:10570000921C90B205F10C02FDF7A0FA0020FDF703
:10571000DDF92CE0287F022829D10120FDF7D6F9F8
:105720000FE0ABEBC802A7EB5203621CA3EBC20273
:1057300091B209F1020290B213A2FDF787FA601C40
:10574000C4B2A8F10100A042EBD8ABEBC802A7EBB2
:105750005203621CA3EBC20291B209F1020290B2A1
:1057600005F10C02FDF772FA0020FDF7AFF90020F9
:10577000FDF74FF9012008E634000020B4D60108F7
:1057800086D701082C0000202000000028000020FF
:1057900077B581B005466C6814B9002004B070BDBF
:1057A0000120207360680090BDF80E60F3B2BDF870
:1057B0000C60F2B2BDF80A10BDF80800FDF7D3FD89
:1057C0000120EBE72DE9F74181B006464FF00008D4
:1057D000002774681CB9002004B0BDE8F0810120E6
:1057E00084F8260094F8250008B9A56800E06568EB
:1057F0000095BDF80EC00CF0FF03BDF80CC00CF016
:10580000FF02BDF80A10BDF80800FDF7ACFD01204D
:10581000FDF7FFF804F10C000BF071FE074607B12D
:105820007F1E0020FCF74EFFBDF80A20193291B20E
:10583000BDF80C20D2B20F3A90B2012304F10C0251
:10584000FDF73DF80020FDF7E4F80120C4E72DE95D
:10585000F74181B007460025A8467C681CB90020A6
:1058600004B0BDE8F08101206076207E012801D1DE
:10587000666800E0A6680096BDF80EC00CF0FF0355
:10588000BDF80CC00CF0FF02BDF80A10BDF808000E
:10589000FDF769FD0120FDF7BCF804F10C000BF0E9
:1058A0002EFE804610E0BDF80820163AA2EBC50295
:1058B00091B2BDF80C20D2B20E3A90B20023202251
:1058C000FCF7FDFF681CC5B24545ECD90020FCF78C
:1058D000F9FEBDF80820521D91B2BDF80C20D2B2DD
:1058E0000E3A90B2012304F10C02FCF7E8FF00200D
:1058F000FDF78FF80120B3E72DE9F74F82B0074697
:105900000026B0467C6801254FF000094FF0000AE0
:105910000020019014B905B0BDE8F08F012084F893
:105920002D0004F10C000BF0EAFD834604F11C008D
:105930000BF0E5FD834505D904F10C000BF0DFFD0C
:10594000064604E004F11C000BF0D9FD06460120D8
:10595000FDF75FF894F82C0088B9FD49A0688842EB
:1059600006D1DFF8F093D4F808A0FB4801901FE0BF
:10597000DFF8E893D4F808A0F948019018E094F80B
:105980002C00012814D1F749606888420AD14DF6ED
:10599000FB60FCF7A1FEDFF8C493D4F804A0F04844
:1059A000019005E0DFF8AC93D4F804A0EA48019038
:1059B00001980090BDF812C00CF0FF03BDF810C0B4
:1059C0000CF0FF02BDF80CC0ACF1080C1FFA8CF112
:1059D000BDF80C00FDF7C7FC18E0CDF800A0BDF83D
:1059E0000CB005F1010CABEBCC0C1FFA8CF1ABEB5E
:1059F000C50C1FFA8CF0BDF812C00CF0FF03BDF807
:105A000010C00CF0FF02FDF7AEFC6D1CB54201D2D8
:105A1000102DE2D3CDF80090BDF80CB005F1010CCB
:105A2000ABEBCC0C1FFA8CF1ABEBC50C1FFA8CF076
:105A3000BDF812C00CF0FF03BDF810C00CF0FF025F
:105A4000FDF791FC4FF6FF70FCF73CFE102000EBD9
:105A5000C60894F82C0078B9BDF80C20A2EBC60259
:105A600091B2BDF81020D2B2123A90B2012304F1E3
:105A70000C02FCF724FF1CE094F82C00012818D13C
:105A800004F11C000BF03BFD401CA8EBC000BDF86E
:105A90000C10A1EB5000C01E1FFA80FBBDF81010C7
:105AA000C9B2123988B2012304F11C025946FCF72D
:105AB00006FF0020FCF7ADFF4FF6FF70FCF70CFE71
:105AC0001020FCF7FFFD012025E72DE9F74F82B0FC
:105AD00007464FF0000B00267D6801244FF00009B7
