:020000040800F2
:10000000789F0020DD110108CD070008CF07000808
:10001000D3070008D7070008DB070008000000002E
:100020000000000000000000000000009D02000829
:10003000DF07000800000000F1020008ED0F0108D2
:10004000F7110108F7110108F7110108F71101086C
:10005000F7110108F7110108F7110108F71101085C
:10006000F7110108F7110108F7110108F71101084C
:10007000F7110108F7110108F7110108F71101083C
:10008000F7110108F7110108F7110108F71101082C
:10009000F7110108F7110108F7110108F71101081C
:1000A000F7110108F7110108F7110108F71101080C
:1000B000230800082508000827080008F711010890
:1000C000F7110108F7110108F7110108F7110108EC
:1000D000F7110108F7110108F7110108F7110108DC
:1000E000F7110108F7110108F7110108F7110108CC
:1000F000F7110108F7110108F7110108F7110108BC
:10010000F7110108F7110108F7110108F7110108AB
:10011000F7110108F7110108F7110108F71101089B
:10012000F7110108F7110108F7110108F71101088B
:10013000F7110108E1070008F7110108F71101089C
:10014000F7110108F7110108F7110108F71101086B
:10015000F7110108F7110108F7110108F71101085B
:10016000F7110108F7110108F7110108F71101084B
:10017000F7110108F7110108F7110108F71101083B
:10018000F7110108F711010800F002F800F076F805
:100190000AA090E8000C82448344AAF10107DA45E2
:1001A00001D100F06BF8AFF2090EBAE80F0013F0BE
:1001B000010F18BFFB1A43F00103184794490200CE
:1001C000B44902000A444FF0000C10F8013B13F050
:1001D000070408BF10F8014B1D1108BF10F8015BA0
:1001E000641E05D010F8016B641E01F8016BF9D193
:1001F00013F0080F1EBF10F8014BAD1C0C1B09D1EA
:100200006D1E58BF01F801CBFAD505E014F8016B5B
:1002100001F8016B6D1EF9D59142D6D370470000ED
:100220000023002400250026103A28BF78C1FBD8FF
:10023000520728BF30C148BF0B607047662913F0D2
:100240007B80642911F0A480752911F0A1806329B5
:1002500011F08B85002070471FB513F063F89DE8FF
:10026000030011F0BDFA11F0C3FD040000200021CD
:1002700012F046FBE0601FBD10B510BD11F0D6FEB8
:100280001146FFF7E9FF00F035F911F0F4FE03B471
:10029000FFF7F2FF03BC11F025FF00002A4B19689D
:1002A0000868B0E8F04F80F30988BFF36F8F4FF014
:1002B000000080F3118870470000000006480068C5
:1002C000006880F3088862B661B6BFF34F8FBFF352
:1002D0006F8F00DF00BF00BF08ED00E0DFF80C000B
:1002E000016841F470010160704700BF88ED00E0D3
:1002F000EFF30980BFF36F8F134B1A681EF0100FD6
:1003000008BF20ED108A20E9F04F106008B44FF0CC
:10031000500080F31188BFF34F8FBFF36F8F0FF042
:1003200056FD4FF0000080F3118808BC196808687A
:10033000B0E8F04F1EF0100F08BFB0EC108A80F349
:100340000988BFF36F8F70478C010020EFF30580A1
:100350007047000010B5864800880B2840D2DFE8BF
:1003600000F0AF064041424344717290AE0000215C
:100370004FF6FF7008F0DAF97E4808F0F4F97EA233
:100380008221142008F0FDFB4FF66861002008F080
:10039000CDF97C4808F0E7F97BA26421822008F0BF
:1003A000F0FB744808F0DFF977A2AA21502008F08A
:1003B000E8FB40F2FC41002008F0B8F9714808F071
:1003C000D2F971A24FF4A571822008F0DAFB6948D6
:1003D00008F0C9F96CA24FF4C871502008F0D1FBA5
:1003E0006EE06DE000BF00BF00BF4FF66861002007
:1003F00008F09CF9634808F0B6F964A264217820FB
:1004000008F0BFFB5B4808F0AEF961A2A5214620C9
:1004100008F0B7FB40F2FC41002008F087F959488A
:1004200008F0A1F959A24FF4A571782008F0A9FBB2
:10043000504808F098F958A24FF4C871462008F0C7
:10044000A0FB3DE03CE04FF243414FF6FF7008F067
:100450006DF94C4808F087F951A26421782008F022
:1004600090FB45F2AA214FF6FF7008F05FF945486E
:1004700008F079F94CA24FF4A571782008F081FBBF
:100480001EE045F2AA214FF6FF7008F04FF93D48F3
:1004900008F069F942A26421782008F072FB4FF25B
:1004A00043414FF6FF7008F041F9364808F05BF918
:1004B0003DA24FF4A571782008F063FB00E000BF77
:1004C00000BF10BD00BF09F094FA07F05EFA07F014
:1004D0003AFBFFF73FFFF6E710B500200AF086FF72
:1004E00001200AF083FF02200AF080FF03200AF0B7
:1004F0007DFF10BD1CB54FF4E1312D4807F078FCAD
:10050000FFF7EAFF08F09CF8002002F082FA09F0F9
:10051000C2F80AF0B8FE102002F0D4F848F2100039
:1005200002F0DAF800F0A8FB0020012103464FF4A6
:100530002062CDE900101FA1AFF277000FF011F992
:100540000FF00FFE00BFFEE700BFFEE700BF502028
:1005500080F31188BFF34F8FBFF36F8F00BF00BFD1
:10056000FEE7704710B507F05EFB02F032F810BDF1
:1005700020000020D800002030303A30303A3031AE
:1005800000000000D0000020302E35003135300052
:100590003430306D6C0000003230306D6C00000083
:1005A0003135206D33000000303620680000000037
:1005B000001001404D795461736B00000CB50020B0
:1005C000019000907648006840F4803074490860DB
:1005D00000BF7348006800F4003000900198401C90
:1005E0000190009818B90198B0F5A06FF1D16C484E
:1005F000006800F4003010B10120009001E00020FC
:1006000000900098012846D165484030006840F0CD
:1006100080506349403108606248006840F480407F
:10062000604908605E48083000685D49083108602C
:100630000846006840F4004008600846006840F43E
:10064000A05008605848091F0860081F006840F063
:100650008070091F086000BF5148006800F00070FA
:100660000028F9D040F20520504908604C48083075
:10067000006820F003004A49083108600846006815
:1006800040F00200086000BF45480830006800F0F4
:100690000C000828F8D10CBD10B54548006840F49E
:1006A0007000434908603E48006840F001003C4942
:1006B000086000203A4908310860394800683D491F
:1006C0000840374908603C48091D0860081F006859
:1006D00020F48020091F0860002031490C31086097
:1006E000FFF76CFF4FF0006031498039086010BDA2
:1006F00070B500200022022300240221284D083575
:100700002D6805F00C0020B1042806D0082834D14B
:1007100007E02A4D2A4E356033E02A4D284E3560D9
:100720002FE01F4D2D1D2D68C5F380541C4D2D1D30
:100730002D6805F03F0154B1224DB5FBF1F5184E7F
:10074000361D3668C6F3881605FB06F209E01B4D18
:10075000B5FBF1F5124E361D3668C6F3881605FB5B
:1007600006F20F4D2D1D2D68C5F301456D1C6B0064
:10077000B2FBF3F5124E356003E0104D104E3560BC
:1007800000BF00BF064D08352D68C5F303150E4E9A
:10079000705D0B4D2D68C540094E356070BD000081
:1007A000003802400070004019544007003C0240ED
:1007B00088ED00E0FFFFF6FE103000240024F40076
:1007C0000000002040787D0104000020704700BF39
:1007D000FEE700BFFEE700BFFEE700BFFEE7704791
:1007E00008B50020009040200DF055FF012804D1ED
:1007F00069460D4800680EF0F6FC40200DF06FFFD2
:100800004FF480300DF06BFF009848B1009838B17C
:100810004FF0805005490860BFF34F8FBFF36F8FD3
:1008200008BD7047704770478401002004ED00E068
:1008300010B5B748006806F0F5FA00F0FFFA10BDF1
:10084000704710B5B248006806F0ECFA00F014FAF0
:1008500010BD10B5AE48006806F0E4FA01F057F993
:1008600010BD704710B5AB48007830B101280BD0EF
:10087000022810D003281CD114E0A548006806F017
:10088000D1FA00F0B2FB14E0A148006806F0CAFA01
:1008900000F0EEFF0DE09E48006806F0C3FA00F09D
:1008A00045FD06E09A48006806F0BCFA00F05DFEDF
:1008B00000BF00BF10BD704710B59548006806F036
:1008C000B1FA00F0BBFA00209249087010BD10B5D3
:1008D0008F48006806F0A6FA00F0CEF900208D4996
:1008E000087010BD10B58A48006806F09BFA00F049
:1008F0001DFD10BD10B58648006806F093FA00F0A3
:10090000B7FF10BD10B58248006806F08BFA00F002
:1009100095FA02207F49087010BD10B57C48006828
:1009200006F080FA00F0A8F900207A49087010BD9E
:1009300010B57748006806F075FA00F056FB10BD58
:1009400010B57348006806F06DFA00F00EFE10BD99
:1009500010B56F48006806F065FA00F06FFA0320E2
:100960006C49087010BD10B56948006806F05AFA65
:1009700000F082F900206749087010BD10B5644886
:10098000006806F04FFA00F073FF10BD10B5604824
:10099000006806F047FA00F0C9FC10BD10B55C48CD
:1009A000006806F03FFA00F049FA01205949087042
:1009B00010BD10B55648006806F034FA00F05CF936
:1009C00000205449087010BD10B55148006806F069
:1009D00029FA00F0ABFC10BD10B54D48006806F0D8
:1009E00021FA00F002FB10BD10B54948006806F07E
:1009F00019FA00F023FA10BD10B54548006806F05A
:100A000011FA00F039F910BD10B54148006806F040
:100A100009FA01F08FF910BD10B53D48006806F0E5
:100A200001FA01F00BFD10BD10B53948006806F061
:100A3000F9F901F06CF810BD10B53548006806F002
:100A4000F1F900F019F910BD70477047704710B503
:100A50002F48006806F0E6F901F015FB10BD10B54F
:100A60002B48006806F0DEF901F051F810BD10B512
:100A70002748006806F0D6F900F0FEF810BD704770
:100A80007047704710B52248006806F0CBF901F0B6
:100A900051F910BD10B51E48006806F0C3F901F009
:100AA00036F810BD10B51A48006806F0BBF900F022
:100AB000E3F810BD10B518A007F047FA10BD10B547
:100AC0001DA007F042FA10BD10B523A007F03DFAB3
:100AD00010BD10B52BA007F038FA10BD10B532A02C
:100AE00007F033FA10BD10B538A007F02EFA10BD8C
:100AF00010B53FA007F029FA10BD10B544A007F0CB
:100B000024FA10BD10B54AA007F01FFA10BD00006E
:100B10001C00002016000020506172616D65746534
:100B20007273576174657253637265656E5F496E67
:100B3000646F6F720D0A0000506172616D657465BB
:100B40007273576174657253637265656E5F4F753A
:100B500074646F6F720D0A00506172616D65746527
:100B60007273576174657253637265656E5F457821
:100B70007472656D65436F6E646974696F6E0D0A9A
:100B800000000000506172616D6574657273576199
:100B900074657253637265656E5F4C657373323052
:100BA0006F430D0A00000000506172616D6574654D
:100BB0007273576174657253637265656E5F32302C
:100BC0006F435F33306F430D0A0000005061726164
:100BD0006D65746572735761746572536372656590
:100BE0006E5F4D6F726533306F430D0A0000000079
:100BF000506172616D65746572735761746572538B
:100C0000637265656E5F536F66740D0A00000000C5
:100C1000506172616D65746572735761746572536A
:100C2000637265656E5F486172640D0A00000000C2
:100C3000506172616D65746572735761746572534A
:100C4000637265656E5F56657279486172640D0AFC
:100C50000000000010B5FE4B2022D221012006F03A
:100C600049FF0446FB4805F012FDFA4B2246F021ED
:100C7000FA2005F098F910BD08B5F7A007F065F95E
:100C8000FFF7E8FF002007F0F2FD4FF6FF7020238A
:100C9000D222F0210090FA2008F0BFF9F44807F0C2
:100CA00062FDF4A02023D222F0210090FA2008F067
:100CB00008FC4FF6FF701C235A220C2100901420D0
:100CC00008F0ABF9EE4807F04EFD4FF6FF7100203B
:100CD00007F02CFDEBA214210E2007F052FF00219B
:100CE0004FF6FF7007F022FDE14807F03CFDE7A258
:100CF0004FF49171142007F044FFE8A21421FA2068
:100D000007F03FFF4FF66860A023D2223C210090FD
:100D1000142008F082F940F2FC40A023D2223C21AA
:100D20000090FA2008F079F94FF66861002007F08A
:100D3000FDFCCF4807F017FDDBA21E21502007F075
:100D400020FFDCA2AF21A02007F01BFF40F2FC41F6
:100D5000002007F0EBFCC64807F005FDD7A24FF4D2
:100D60008271502007F00DFFD6A24FF4C871A02069
:100D700007F007FFB7480121C26990470120D24917
:100D80000880B448D149086008BD10B5FFF774FF6A
:100D900010BD2DE9F047CE4B1E22D221012006F0D6
:100DA000A9FE0446CB4B1E22D221022006F0A2FE51
:100DB0000546C94B5022D221032006F09BFE064671
:100DC000C64B5022D221042006F094FE0746C44BA5
:100DD0005022D221052006F08DFE8046C14B5022C4
:100DE000D221062006F086FE8146BF4805F04FFC62
:100DF000BD4B2246F021FA2005F0D5F8BA4B2A4621
:100E0000F021142005F0CFF8B74B32463C211420D6
:100E100005F0C9F8B44B3A463C21FA2005F0C3F876
:100E2000B14B42469621142005F0BDF8AE4B4A4620
:100E30009621FA2005F0B7F8BDE8F08708B5ABA019
:100E400007F083F8FFF7A5FF002007F010FD4FF62D
:100E5000FF701C235A220C210090142008F0DDF8AA
:100E6000874807F080FC4FF6FF71002007F05EFC1A
:100E700084A214210E2007F084FE00214FF6FF709B
:100E800007F054FC7A4807F06EFC7AA24FF4BE716A
:100E9000142007F076FED22350223C21142007F0C4
:100EA000B9FFD22350223C21FA2007F0B3FFD2230E
:100EB00050229621142007F0ADFFD2235022962114
:100EC000FA2007F0A7FF4FF6FF701E23D222F02171
:100ED0000090142008F0A1F8D2231E22F021FA205D
:100EE00007F098FF00214FF6FF7007F01FFC6048E5
:100EF00007F039FC83A05023D2223C21009014201B
:100F000008F0DFFA82A05023D2223C210090FA2080
:100F100008F0D7FA81A05023D22296210090142005
:100F200008F0CFFA80A05023D22296210090FA2018
:100F300008F0C7FA80A01E23D222F0210090FA20E8
:100F400008F0BFFA4FF6FF71002007F0EFFB7DA01D
:100F50001E23D222F0210090142008F0B2FA624839
:100F60000121C26990470220574908805E485749CD
:100F7000086008BD2DE9F041764B1E22D2210120E8
:100F800006F0B8FD0446744B1E22D221022006F062
:100F9000B1FD0546714B4622D221032006F0AAFD81
:100FA00006466F4B4622D221042006F0A3FD0746D9
:100FB0006C4805F06CFB6B4B2246F021FA2004F0E4
:100FC000F2FF684B2A46F021142004F0ECFF654B39
:100FD0003246AA21142004F0E6FF624B3A46AA21C9
:100FE000FA2004F0E0FFBDE8F08108B55EA006F04D
:100FF000ACFFFFF7BFFF002007F039FC4FF6FF7092
:101000001C235A220C210090142008F006F81C48DA
:1010100007F0A9FB4FF6FF71002007F087FB19A22C
:1010200014210E2007F0ADFD00214FF6FF7007F0F0
:101030007DFB0F4807F097FB38A24FF4AA711420EC
:1010400007F09FFD4FF668606423D2223C219DE0AB
:1010500031080008EC0100204372656174655F533C
:101060007461727453637265656E0D0A000000004E
:10107000D800002053455454494E47530000000007
:10108000D00000205449544C4500000043484155CD
:10109000205048554F4320565500000042414348D8
:1010A000204B484F4100000043484C4F52494E45A9
:1010B000000000006D672F6C0000000050482D2DCF
:1010C0000000000070480000200000201C000020EC
:1010D0004108000843080008530800086308000896
:1010E00065080008B7080008900200204372656197
:1010F00074655F53657474696E6773536372656575
:101100006E0D0A00504152414D4554455253000066
:1011100043414C4942524154494F4E00444F534978
:101120004E4720544553540054595045204F4620B3
:1011300050524F42450000004C414E4755414745F3
:10114000530000004241434B20544F20535441521E
:1011500054000000B9080008CF080008E50800089E
:10116000F5080008340300204372656174655F442C
:101170006F73696E675465737453746172745374DA
:1011800061727453637265656E0D0A0000901420DD
:1011900007F043FF40F2FC406423D2223C21009040
:1011A000FA2007F03AFF4FF66861002007F0BEFA18
:1011B000FE4807F0D8FAFEA21E21462007F0E1FC07
:1011C000FDA29B217F2007F0DCFC40F2FC410020C7
:1011D00007F0ACFAF54807F0C6FAAFF218124FF470
:1011E0008271462007F0CDFCF3A240F281117F20EE
:1011F00007F0C7FC4FF6FF701E23D222F0210090AB
:10120000142007F00AFF4FF6FF701E23D222F021B0
:101210000090FA2007F001FF4FF6686007F097FA98
:10122000D2233C22AA21142007F0F4FD40F2FC4016
:1012300007F08DFAD2233C22AA21FA2007F0EAFD1A
:10124000DA4807F090FA00214FF6FF7007F06EFAC7
:10125000AFF208103C23D222AA210090142008F0FB
:1012600030F9AFF218103C23D222AA210090FA20C4
:1012700008F027F94FF6FF71002007F057FACFA0CA
:101280001E23D222F0210090FA2008F01AF9AFF2C2
:101290004C101E23D222F0210090142008F011F9E6
:1012A000C8480121C26990470320C7490880C54842
:1012B000C649086008BD2DE9F041C54B1E22D22168
:1012C000012006F017FC0446C24B1E22D221022048
:1012D00006F010FC0546C04B3C22D221032006F04C
:1012E00009FC0646BD4B3C22D221042006F002FC3C
:1012F0000746BB4805F0CBF9B94B2246F021FA204E
:1013000004F051FEB64B2A46F021142004F04BFEA7
:10131000B34B3246AA21142004F045FEB04B3A46A6
:10132000AA21FA2004F03FFEBDE8F08108B5ADA087
:1013300006F00BFEFFF7BFFF002007F098FA4FF60C
:10134000FF701C235A220C210090142007F065FE28
:10135000AD4807F008FA4FF6FF71002007F0E6F9F4
:10136000AFF2E02214210E2007F00BFC00214FF613
:10137000FF7007F0DBF98D4807F0F5F9AFF2642252
:101380004FF4AA71142007F0FCFB4FF66860642349
:10139000D2223C210090142007F03FFE40F2FC4096
:1013A0006423D2223C210090FA2007F036FE4FF64B
:1013B0006861002007F0BAF9934807F0D4F993A2C6
:1013C0006421782007F0DDFB784807F0CCF978A29B
:1013D0001E21462007F0D5FB8DA2A521462007F04F
:1013E000D0FB75A29B217F2007F0CBFB40F2FC4194
:1013F000002007F09BF9844807F0B5F983A24FF469
:10140000A571782007F0BDFB684807F0ACF9AFF292
:101410004C324FF48271462007F0B3FB7EA24FF4AA
:10142000C871462007F0ADFB63A240F281117F2016
:1014300007F0A7FB4FF6FF701E23D222F021009089
:10144000142007F0EAFD4FF6FF701E23D222F02190
:101450000090FA2007F0E1FD4FF6686007F077F999
:10146000D2233C22AA21142007F0D4FC40F2FC40F5
:1014700007F06DF9D2233C22AA21FA2007F0CAFC1A
:101480004A4807F070F900214FF6FF7007F04EF957
:1014900063A03C23D222AA210090142008F011F866
:1014A000AFF258303C23D222AA210090FA2008F053
:1014B00008F84FF6FF71002007F038F93FA01E230F
:1014C000D222F0210090FA2007F0FBFFAFF28C301F
:1014D0001E23D222F0210090142007F0F2FF404892
:1014E0000121C26990470420374908803C483749A8
:1014F000086008BD2DE9F0414B4B1E22D22101208E
:1015000006F0F8FA0446494B1E22D221022006F0CA
:10151000F1FA0546464B3C22D221032006F0EAFAB6
:101520000646444B3C22D221042006F0E3FA07464B
:10153000414805F0ACF8404B2246F021FA2004F077
:1015400032FD3D4B2A46F021142004F02CFD3A4B8D
:101550003246AA21142004F026FD374B3A46AA2130
:10156000FA2004F020FDBDE8F08108B533A006F0B4
:10157000ECFCFFF7BFFF002007F079F94FF6FF7092
:101580001C235A220C210090142007F046FD1E480F
:1015900007F0E9F84FF6FF71002007F0C7F8AFF247
:1015A0001C5214210E2007F0ECFA59E0D80000205C
:1015B000444953494E462E006D6C00004241434B56
:1015C0000000000034030020200000201C00002048
:1015D000050900081B090008310900084109000835
:1015E000D80300204372656174655F446F73696E50
:1015F000675465737453746F70537461727453637A
:101600007265656E0D0A0000D00000203135300093
:101610003430306D6C0000003230306D6C000000F2
:1016200053544F500000000051090008670900089A
:101630007D0900088D0900087C0400204372656163
:1016400074655F446F73696E675465737453746F28
:101650007053746F7053637265656E0D0A000000FD
:1016600000214FF6FF7007F061F8F84807F07BF8AB
:10167000AFF258524FF4AA71142007F082FA4FF6D5
:1016800068606423D2223C210090142007F0C5FC3E
:1016900040F2FC406423D2223C210090FA2007F063
:1016A000BCFC4FF66861002007F040F8E84807F0FE
:1016B0005AF8AFF2A8026421782007F062FAE348F2
:1016C00007F051F8AFF218121E21462007F059FA20
:1016D000AFF2C402A521462007F053FAAFF2281258
:1016E0009B217F2007F04DFA40F2FC41002007F0DB
:1016F0001DF8D74807F037F8AFF2F0024FF4A571A4
:10170000782007F03EFAD14807F02DF8AFF24C628E
:101710004FF48271462007F034FAAFF204124FF40E
:10172000C871462007F02DFAAFF2741240F2811111
:101730007F2007F026FA4FF6FF701E23D222F021F9
:101740000090142007F069FC4FF6FF701E23D22290
:10175000F0210090FA2007F060FC4FF6686006F078
:10176000F6FFD2233C22AA21142007F053FB40F2BB
:10177000FC4006F0ECFFD2233C22AA21FA2007F01D
:1017800049FBB24806F0EFFF00214FF6FF7006F06C
:10179000CDFFAFF274103C23D222AA210090142076
:1017A00007F08FFEAFF288103C23D222AA210090CE
:1017B000FA2007F086FE4FF6FF71002006F0B6FF14
:1017C000AFF208201E23D222F0210090FA2007F069
:1017D00078FEAFF290601E23D222F02100901420F8
:1017E00007F06FFE9B480121C269904705209A4986
:1017F000088098489949086008BD2DE9F041984B48
:101800001E22D221012006F075F90446954B1E22B6
:10181000D221022006F06EF90546934B3C22D221DC
:10182000032006F067F90646904B3C22D2210420A3
:1018300006F060F907468E4804F029FF8C4B2246DB
:10184000F021FA2004F0AFFB894B2A46F021142046
:1018500004F0A9FB864B3246AA21142004F0A3FB16
:10186000834B3A46AA21FA2004F09DFBBDE8F081A3
:1018700008B580A006F069FBFFF7BFFF002006F067
:10188000F6FF4FF6FF701C235A220C210090142003
:1018900007F0C3FB6E4806F066FF4FF6FF710020AD
:1018A00006F044FFAFF6240214210E2007F069F978
:1018B00000214FF6FF7006F039FF644806F053FF31
:1018C000AFF2A8724FF4AA71142007F05AF94FF63C
:1018D00068606423D2223C210090142007F09DFB15
:1018E00040F2FC406423D2223C210090FA2007F011
:1018F00094FB4FF66861002006F018FF544806F08C
:1019000032FFAFF2F8226421782007F03AF94F480D
:1019100006F029FFAFF268321E21462007F031F9A8
:10192000AFF21432A521462007F02BF9AFF278323E
:101930009B217F2007F025F940F2FC41002006F0B2
:10194000F5FE434806F00FFFAFF240324FF4A571A9
:10195000782007F016F93D4806F005FFAFF69C0227
:101960004FF48271462007F00CF9AFF254324FF475
:10197000C871462007F005F9AFF2C43240F2811178
:101980007F2007F0FEF84FF6FF701E23D222F021D1
:101990000090142007F041FB4FF6FF701E23D22267
:1019A000F0210090FA2007F038FB4FF6686006F04F
:1019B000CEFED2233C22AA21142007F02BFA40F2BB
:1019C000FC4006F0C4FED2233C22AA21FA2007F0F4
:1019D00021FA1E4806F0C7FE00214FF6FF7006F000
:1019E000A5FEAFF698003C23D222AA210090142035
:1019F00007F067FDAFF2D8303C23D222AA21009035
:101A0000FA2007F05EFD4FF6FF71002006F08EFE13
:101A1000AFF258401E23D222F0210090FA2007F0A6
:101A200050FDAFF6E0001E23D222F02100901420DA
:101A300007F047FD0E480121C2699047062006497C
:101A400008800B480549086008BD0000D800002048
:101A5000D00000207C040020200000201C0000207A
:101A60009D090008B3090008C9090008D909000840
:101A7000200500204372656174655F446F73696E71
:101A80006754657374537461727453746F705363E5
:101A90007265656E0D0A00002DE9F041FE4B1E22B5
:101AA000D221012006F026F80446FC4B1E22D2214A
:101AB000022006F01FF80546F94B5022D2210320E0
:101AC00006F018F80646F74B5022D221042006F003
:101AD00011F80746F44804F0DAFDF34B2246F021F2
:101AE000FA2004F060FAF04B2A46F021142004F0AA
:101AF0005AFAED4B32463C21142004F054FAEA4BDA
:101B00003A463C21FA2004F04EFABDE8F08108B5CF
:101B1000E6A006F01AFAFFF7BFFF002006F0A7FEC6
:101B20004FF6FF701C235A220C210090142007F05E
:101B300074FAE54806F017FE4FF6FF71002006F034
:101B4000F5FDAFF6C02214210E2007F01AF800218F
:101B50004FF6FF7006F0EAFDDC4806F004FEAFF633
:101B60005C2240F26311142007F00BF8D2235022BC
:101B70003C21142007F04EF9D22350223C21FA20B8
:101B800007F048F94FF668605023D2229621009062
:101B9000142007F042FA40F2FC405023D222962152
:101BA0000090FA2007F039FA00214FF6FF7006F096
:101BB000BDFD4FF66861002006F0B8FDC4A05023BB
:101BC000D22296210090142007F07BFC40F2FC41C9
:101BD000002006F0ABFDAFF614305023D222962140
:101BE0000090FA2007F06DFC4FF6FF701E23D22202
:101BF000F0210090142007F010FA4FF6FF701E231A
:101C0000D222F0210090FA2007F007FAAF4806F040
:101C1000AAFD00214FF6FF7006F088FDB0A050230A
:101C2000D2223C210090142007F04BFCAEA05023A0
:101C3000D2223C210090FA2007F043FC4FF6FF71BE
:101C4000002006F073FDAFF28C601E23D222F0213B
:101C50000090FA2007F035FCAFF618301E23D22290
:101C6000F0210090142007F02CFC4FF6FF710020AB
:101C700006F05CFD8C480121C269904707209C4911
:101C8000088089489B49086008BD2DE9F0479A4BB8
:101C90001E22D221012005F02DFF0446974B1E2263
:101CA000D221022005F026FF0546954B3C226421F7
:101CB000032005F01FFF0646924B3C2264210420BE
:101CC00005F018FF0746904B3C22D221052005F075
:101CD00011FF80468D4B6422D221062005F00AFFB9
:101CE00081468B4804F0D3FC894B2246F021FA2030
:101CF00004F059F9864B2A46F021142004F053F9D8
:101D0000834B3246AA21142004F04DF9804B3A4609
:101D1000AA21822004F047F97D4B4246AA21FA20ED
:101D200004F041F97A4B4A463C21FA2004F03BF991
:101D3000BDE8F08708B577A006F007F9FFF7A5FF23
:101D4000002006F094FD4FF6FF701C235A220C2150
:101D50000090142007F061F95B4806F004FD4FF68F
:101D6000FF71002006F0E2FCAFF6E84214210E20DD
:101D700006F007FF00214FF6FF7006F0D7FC53482E
:101D800006F0F1FC6BA24FF49171142006F0F9FEFD
:101D90004FF243406423D2223C210090142007F0EC
:101DA0003CF945F2AA206423D2223C210090FA207B
:101DB00007F033F94FF243414FF6FF7006F0B6FCDF
:101DC000414806F0D0FC5FA26421782006F0D9FEDD
:101DD0003E4806F0C8FC5DA21E21462006F0D1FE5A
:101DE00045F2AA214FF6FF7006F0A0FC364806F037
:101DF000BAFC59A24FF4A571782006F0C2FE334810
:101E000006F0B1FC56A2FF21462006F0BAFE4FF6BE
:101E1000FF701E23D222F0210090142007F0FDF85D
:101E20004FF6FF701E23D222F0210090FA2007F017
:101E3000F4F84FF6FF7006F08AFC64233C22AA21D6
:101E4000142006F0E7FF64233C22AA21822006F03A
:101E5000E1FFD2233C22AA21FA2006F0DBFF1A4838
:101E600006F081FC00214FF6FF7006F05FFC41A0F8
:101E70003C236422AA210090142007F022FB3EA0FC
:101E80003C236422AA210090822007F01AFB0F480D
:101E900006F069FC39A073E0E9090008F9090008B7
:101EA000090A0008190A0008C40500204372656188
:101EB00074655F506172616D6574657273536372AE
:101EC00065656E0D0A000000D0000020D8000020DB
:101ED000444953494E46454354494F4E0000000083
:101EE000504F4F4C00000000574154455200000035
:101EF000200000201C000020290A0008390A0008E0
:101F0000490A00084B0A00084D0A00084F0A000859
:101F1000680600204372656174655F506172616D8F
:101F20006574657273566F6C756D65536372656524
:101F30006E0D0A00504F4F4C20504152414D4554B8
:101F4000455253003135206D33000000504F4F4C47
:101F500020564F4C554D450030362068000000009B
:101F600046494C54524154494F4E20504552494FD6
:101F7000440000002B0000002D0000004F4B00002B
:101F80003C23D222AA210090FA2007F09AFA4FF6B9
:101F9000FF71002006F0CAFBAFF6E0101E23D2222C
:101FA000F0210090FA2007F08CFAAFF668601E234B
:101FB000D222F0210090142007F083FA4FF6FF712F
:101FC000002006F0B3FBF9480121C26990470820C0
:101FD000F7490880F548F749086008BD2DE9F04742
:101FE000F54B1E22D221012005F084FD0446F34B5F
:101FF0001E22D221022005F07DFD0546F04B3C2239
:102000006421032005F076FD0646EE4B3C22642158
:10201000042005F06FFD0746EB4B3C22D221052042
:1020200005F068FD8046E94B6422D221062005F0C8
:1020300061FD8146E64804F02AFBE54B2246F0218B
:10204000FA2003F0B0FFE24B2A46F021142003F0FF
:10205000AAFFDF4B3246AA21142003F0A4FFDC4B79
:102060003A46AA21822003F09EFFD94B4246AA217C
:10207000FA2003F098FFD64B4A463C21142003F087
:1020800092FFBDE8F08708B5D2A005F05EFFFFF72C
:10209000A5FF002006F0EBFB4FF6FF701C235A2231
:1020A0000C210090142006F0B8FFD54806F05BFB29
:1020B0004FF6FF71002006F039FBD24A14210E20A2
:1020C00006F05FFD00214FF6FF7006F02FFBCE48B3
:1020D00006F049FBAFF2A4124FF49171142006F000
:1020E00050FD45F2AA206423D2223C210090142006
:1020F00006F093FF4FF243406423D2223C2100902C
:10210000FA2006F08AFF45F2AA214FF6FF7006F08A
:102110000DFBBB4806F027FBAFF2D81264217820F4
:1021200006F02FFDB84806F01EFBAFF2E0121E21AC
:10213000462006F026FD4FF243414FF6FF7006F0B1
:10214000F5FAAF4806F00FFBAFF2F4124FF4A571A9
:10215000782006F016FDAC4806F005FBAFF2002231
:10216000FF21462006F00DFD4FF6FF701E23D22200
:10217000F0210090142006F050FF4FF6FF701E2350
:10218000D222F0210090FA2006F047FF4FF6FF70B0
:1021900006F0DDFA64233C22AA21142006F03AFE60
:1021A00064233C22AA21822006F034FED2233C2262
:1021B000AA21FA2006F02EFE914806F0D4FA00215A
:1021C0004FF6FF7006F0B2FAAFF258203C236422BB
:1021D000AA210090142007F074F9AFF264203C2388
:1021E0006422AA210090822007F06BF9864806F04D
:1021F000BAFAAFF278203C23D222AA210090FA202A
:1022000007F05FF94FF6FF71002006F08FFAAFF686
:1022100054401E23D222F0210090FA2007F051F9F9
:102220007848C0301E23D222F0210090142007F0FD
:1022300048F94FF6FF71002006F078FA6448012152
:10224000C269904709205A49088061485949086085
:1022500008BD2DE9F04F87B0012001F0B7F9044621
:10226000022001F0B3F90546032001F0AFF906465C
:10227000664B1E22D221042005F03CFC0746644B2D
:102280001E22D221052005F035FC8046614A5BA163
:1022900020462369984781465F4A58A12046236912
:1022A000984782465D4A55A1204623699847834650
:1022B0005B4A52A128462B6998470690594A4FA17C
:1022C00028462B6998470590574A4CA128462B6908
:1022D00098470490554A49A130463369984703907E
:1022E000534A46A13046336998470290514A43A168
:1022F00030463369984701904F4804F0C8F94E4B77
:102300003A46F021FA2003F04EFE4B4B4246F021B4
:10231000142003F048FE484B4A4655214FF487707D
:1023200003F041FE444B52465521880003F03BFE2A
:10233000414B5A4655214FF4CD7003F034FE3E4BCD
:102340008C214FF48770069A03F02DFE3A4B8C21B6
:102350004FF4AA70059A03F026FE374B8C214FF4F8
:10236000CD70049A03F01FFE334BCD214FF48770DC
:10237000039A03F018FE304BCD214FF4AA70029A55
:1023800003F011FE2C4BCD214800019A03F00BFE07
:102390000121E06840680176E86840680176012024
:1023A00071684968087607B0BDE8F08F68060020BC
:1023B000200000201C0000205F0A00086F0A0008AF
:1023C0007F0A0008810A0008830A0008850A0008BD
:1023D0000C0700204372656174655F506172616D26
:1023E0006574657273466974726174696F6E506565
:1023F00072696F6453637265656E0D0A00000000B8
:10240000D000002084100008D8000020950A0008A1
:10241000A50A0008B50A0008BF0A0008C90A000892
:10242000D30A0008DD0A0008E70A0008F10A0008DC
:10243000FB0A0008050B0008B007002008B56DA0D6
:1024400005F083FDFFF705FF002006F010FA4FF6B8
:10245000FF701C235A220C210090142006F0DDFD91
:102460006C4806F080F94FF6FF71002006F05EF927
:10247000694A14210E2006F084FB00214FF6FF70FC
:1024800006F054F9654806F06EF965A24FF48C71B8
:10249000142006F076FB674806F065F9AFF2C052EB
:1024A0001E21372006F06DFB63A21E21782006F066
:1024B00068FBAFF2CC521E21872006F062FB60A2BF
:1024C0001E21962006F05DFBAFF2E4521E21B920DA
:1024D00006F057FB5DA21E21C82006F052FB5E48A5
:1024E00006F041F95DA2FF21372006F04AFB5DA20C
:1024F0004FF4A071372006F044FB5CA2FF21782046
:1025000006F03FFB5BA24FF4A071782006F039FB88
:102510005AA240F28B11782006F033FB59A240F208
:102520000911B92006F02DFB58A240F24F11B92035
:1025300006F027FB57A240F28111B92006F021FBDB
:102540004FF4784006F003F955A24FF4C3713720D9
:1025500006F017FB54A240F28111462006F011FB51
:102560004FF6FF701E23D222F0210090142006F0B7
:1025700054FD4FF6FF701E23D222F0210090FA2066
:1025800006F04BFD4FF6FF71002006F0CFF8AFF6D6
:10259000D4701E23D222F0210090FA2006F091FF81
:1025A0001D48C0301E23D222F0210090142006F0D6
:1025B00088FF4FF6FF71002006F0B8F83D48012172
:1025C000C26990470A203C4908803A483B49086064
:1025D00008BD3B48008820B139480088401E384972
:1025E000088070473649088000BF354909880029AE
:1025F000FBD170474372656174655F506172616DB4
:102600006574657273576174657253637265656E44
:102610000D0A0000D000002084100008D80000201F
:10262000574154455220504152414D455445525313
:1026300000000000F8000020415645524147450087
:1026400054454D504552415455524500484152441D
:102650004E45535300000000E8000020696E646F8F
:102660006F7200006F7574646F6F72003C203230BF
:102670006F43000032302D33306F43003E20333043
:102680006F430000736F667400000000686172643D
:1026900000000000766572792068617264000000B5
:1026A00065787472656D6500636F6E646974696FD7
:1026B0006E000000B0070020200000201C00002059
:1026C0001800002001B5BDF80000F6490880084652
:1026D000008806F03CF808BD01B5BDF80000F249DD
:1026E00008800846008806F038F808BD10B5044692
:1026F000204606F0BCF810BD2DE9F04105460E4617
:1027000014469846E74807882046FFF7DBFF314626
:10271000284605F0BDFF3846FFF7D4FFBDE8F0813D
:102720002DE9F04706468846174600240025A146B5
:10273000A246B146C24600BF2EE0002522E0DB489B
:10274000007828B937F814000121A940084048B1A1
:10275000D648007801280AD137F814008021294191
:10276000084020B909F101001FFA80F909E0484644
:10277000421C1FFA82F90823CA490A885146FFF70A
:10278000BBFF6D1CCA4800788542D8D30AF101000E
:102790001FFA80FAB146641CC64800788442CCD344
:1027A000BDE8F0872DE9F84F064688461746002415
:1027B0000025A246A14600200090B246C14600BFB7
:1027C00030E0002524E0B948007828B937F8140033
:1027D0000121A940084048B1B4480078012809D136
:1027E00037F8140080212941084018B9AE48008804
:1027F000009002E0AB48008800905046421C1FFA4F
:1028000082FA0223BDF800204946FFF775FF6D1CD0
:10281000A74800788542D6D309F101001FFA80F954
:10282000B246641CA34800788442CAD3BDE8F88F3E
:102830002DE9F04106460F4614461D46A4F120003E
:10284000C4B29A48007810B1012834D119E0012DA2
:102850000BD19948016897480078604301EB40022A
:1028600031463846FFF75CFF0AE09348016891481B
:102870000078604301EB400231463846FFF792FF93
:102880001AE0012D0BD18D4801688A480078604319
:1028900001EB400231463846FFF742FF0AE0874825
:1028A000016884480078604301EB400231463846B5
:1028B000FFF778FF00E000BF00BFBDE8F0812DE921
:1028C000F04707460D461446984600267C48008887
:1028D000411B77480078401E91FBF0F90BE022780D
:1028E000434629463846FFF7A3FF7148007828443D
:1028F00085B2641C761C207808B1012000E000201D
:102900004E4501D2012100E0002108400028E6D117
:10291000BDE8F0872DE9F04104460D4616461F46F6
:10292000A21B521C91B2EA1B521C90B223462A46AB
:1029300005F091FEBDE8F0812DE9F04104460D4619
:1029400016461F463B4632462946204606F02BFADD
:10295000BDE8F0812DE9F04106460F4614461D46BC
:1029600023462A463946304606F054FABDE8F0813F
:1029700070B504460D46164632462946204606F0F6
:102980006AFA70BD002202600A7802604B78026821
:1029900002EB032202608B78026802EB03420260C2
:1029A000CB78026802EB0362026070477CB5044694
:1029B000002001900090A11C6846FFF7E3FF04F19E
:1029C0000A0101A8FFF7DEFF3620010708808820F2
:1029D0004FF0C24108802C20C10608800DE001980C
:1029E000205C01992144497800EB012085B24FF029
:1029F000C24005800198801C0190DDE900108842EA
:102A0000EDD336200107088008204FF0C24108802E
:102A10007CBD10B504462548047014B1012C14D1B6
:102A200009E0102022490870182022490870254822
:102A300005F099FE0AE008201D4908700C201D4988
:102A40000870214805F08FFE00E000BF00BF10BDF8
:102A500010B504461CB9032008F0EFFC04E0012C7B
:102A600002D1032008F0E1FC10BD10B505F0E8FD2F
:102A700010BD10B540F20F1340F2DF1200210846DE
:102A800005F0E9FD10BD2DE9F04104460D46002694
:102A90000027B0462946204605F00EFE0646304681
:102AA000BDE8F0812C0000202E0000202200002034
:102AB0002300002024000020500000206800002097
:102AC00028000020D0000020E8000020D149087034
:102AD000097839B936210A07118008214FF0C2421E
:102AE000118022E0CB490978012907D136210A0754
:102AF000118068214FF0C242118016E0C549097863
:102B0000022907D136210A071180C8214FF0C2429D
:102B100011800AE0BF490978032906D136210A0746
:102B20001180A8214FF0C242118070472DE9F04773
:102B300004460D46904600260027B146B246B548E9
:102B4000007818B1B348007802280FD1A146B248E6
:102B500000782844401E83B2B04800782044401ECC
:102B600082B22946204605F076FD16E0A948007895
:102B7000012803D0A748007803280ED1AA46A74809
:102B800000782844401E83B2A34800782044401EA9
:102B900082B22946204605F05EFD2C20C106088041
:102BA000002625E000271EE09D48007828B938F867
:102BB00016000121B940084048B199480078012821
:102BC0000BD138F8161080203841014029B99548BA
:102BD00000884FF0C241088004E0934800884FF01D
:102BE000C24108807F1C8D4800788742DCD3761C68
:102BF000894800788642D5D3BDE8F08770B5054690
:102C00000E461446A4F12000C4B28548007810B1E5
:102C1000012818D10BE0854801687F48007860439F
:102C200001EB400229463046FFF780FF0CE0804868
:102C3000016879480078604301EB4002294630463C
:102C4000FFF774FF00E000BF00BF70BD2DE9F04743
:102C500007460E4614464FF000080025A946754861
:102C600007806C48007848B9734800886B49097838
:102C700090FBF1F000F0FF09354632E0654800783E
:102C800001280BD16D4800886449097890FBF1F068
:102C900000F0FF093D466748068022E05D48007865
:102CA00002280CD1644800885C49097890FBF1F057
:102CB00000F0FF0959480078301A85B211E05548F4
:102CC000007803280DD15D4800885449097890FBAD
:102CD000F1F000F0FF0951480078381A85B25548E4
:102CE00006803CE04B48007850B92278294651488C
:102CF0000088FFF783FF49480078284485B22BE01D
:102D00004448007801280AD122784A480188284698
:102D1000FFF774FF41480078284485B21CE03D4825
:102D2000007802280AD12278294642480088FFF715
:102D300065FF3A480078281A85B20DE035480078DA
:102D4000032809D122783B4801882846FFF756FF1F
:102D500032480078281A85B2641C08F101082078EE
:102D600008B1012000E00020C84501D2012100E0A7
:102D7000002108400028B5D1BDE8F08710B5029CBD
:102D800010BD2DE9FC4704460D4616461F46DDF8EA
:102D900028800020019000908146A11C6846FFF722
:102DA000F1FD04F10A0101A8FFF7ECFDF019401E46
:102DB00083B205EB0800401E82B231462846FFF779
:102DC000A9FD36200107088088204FF0C241088005
:102DD0002C20C10608800FE00198205C0199214455
:102DE000497800EB01201FFA80F94FF0C240A0F8AB
:102DF00000900198801C0190DDE900108842EBD31F
:102E000036200107088008204FF0C2410880BDE845
:102E1000FC8700002A00002024000020230000205E
:102E2000220000202E0000202C0000205000002056
:102E3000680000203000002028000020260000202C
:102E40002DE9F74F82B0834691460025002001907E
:102E50009E480068D0F8008009F00100002830D0BA
:102E60009A4800680068C71C98480068D0F80CA011
:102E700000BF22E00026002419E01EB93878019036
:102E80007F1C80260198304070B13AF8022B8F4B9E
:102E90001B68DB882B4499B28C4B1B689B882344AE
:102EA00098B20823FFF728FC7610601CC4B298F88B
:102EB0000000A042E1DC681CC5B298F80100A842FD
:102EC000D8DC09F0020000282DD080480068006896
:102ED000C71C7E480068D0F80CA000251FE0002623
:102EE000002416E01EB9387801907F1C80260198D6
:102EF000304058B1039A2A4491B20BEB040290B2CD
:102F0000FFF7C1FDAAF800000AF1020A7610601C62
:102F1000C4B298F80000A042E4DC681CC5B298F87E
:102F20000100A842DBDC09F0040010B9B9F1080F78
:102F300029D1664800680068C71C00251FE00026EC
:102F4000002416E01EB9387801907F1C8026019875
:102F5000304058B15D4B1B681A8A039B2B4499B2D1
:102F60000BEB040398B20823FFF7C6FB7610601C36
:102F7000C4B298F80000A042E4DC681CC5B298F81E
:102F80000100A842DBDC51480068A0F804B04F49BA
:102F900003980968C88005B0BDE8F08F70B5044695
:102FA0000D46012229462046FFF74AFF0622294600
:102FB0002046FFF745FF70BD70B5064643480068E0
:102FC000C488424800688588012E06D0022E32D07F
:102FD000032E1DD0042E36D107E0042C01DB042083
:102FE00000E02046201A84B22EE039480088001BF9
:102FF00038494978401A042801DB042005E03448A8
:103000000088001B33494978401A204484B21BE0F1
:1030100031480088401B2F490978401A042801DBF9
:10302000042005E02C480088401B2A490978401AF2
:10303000284485B208E0042D01DB042000E0284686
:10304000281A85B200E000BF00BF21462846FFF7DE
:10305000A5FF032004F019FA70BD10B50446142032
:103060000EF0DCF8194908600846006808B900202D
:1030700010BD18490978174A527811FB02F148002F
:103080000EF0CCF811490968C86010480068C068A3
:1030900008B90020ECE70CB90E4800E020460B49C7
:1030A000096808600020094909680882202007494A
:1030B000096808720120DBE770B504460D46062258
:1030C00029462046FFF7BCFE70BD000034000020FA
:1030D0002800002038000020260000202DE9F041C3
:1030E00004460D4616461F46601B82B20023394631
:1030F0002846FFF721FC601B82B200233146284698
:10310000FFF71AFCF01B82B2012339462846FFF76D
:1031100013FCF11B8AB2611E88B201233946FFF706
:103120000BFCBDE8F0812DE9F04707460C469046C0
:103130001D46DDF8209000262B46424621463846A3
:10314000FFF7CCFF4846FFF7BDFA01260AE03B1B1C
:103150009B1E9AB2AB1999B2631C98B20023FFF779
:10316000EBFB761CA8EB0500B042F0D8BDE8F08779
:103170002DE9F04105460E461446984602272A1BC3
:1031800091B2321B90B22246FFF7F2FB631E9AB255
:103190002B1B99B2331B98B2FFF7EAFB4046FFF7AF
:1031A00091FA08E0E31B9AB22B1B99B2331B98B239
:1031B000FFF7DEFB7F1CA742F4D3BDE8F0812DE9C9
:1031C000F04F85B004460D4617461E460020049079
:1031D0008046814682460390029083460190B54224
:1031E00008D1BC4206D10823214628460E9AFFF793
:1031F00083FAA1E0BC4221D1B54202DDB0462E46A1
:1032000045460123214628460E9AFFF775FA681CA9
:103210001FFA80F909E00223214628460E9AFFF79B
:103220006BFA09F101001FFA80F9B145F3DB0423C1
:10323000214630460E9AFFF75FFA7DE0B54219D17C
:10324000BC4202DDB846274644460E98A5F1020C62
:103250001FFA8CF3A6F1010C1FFA8CF2A4F1010CF9
:103260001FFA8CF1A7F1010C00901FFA8CF0FFF708
:103270005AFF61E0BC4201DDE01B00E0381BB542B3
:1032800001DDA91B00E0711B884201DD012000E087
:1032900000200490049828B1A0462C464546B84624
:1032A00037464646B54205DDA0463C464746B04651
:1032B0002E464546701B80B20390BC4201DDE01BE8
:1032C00000E0381B80B202900399491C484200EB91
:1032D000D07149100FFA81FBA246BC4202DA0120EC
:1032E000019002E04FF0FF300190A94622E00498DF
:1032F00030B10823494650460E9AFFF7FDF905E024
:103300000823514648460E9AFFF7F6F902985844AA
:103310000FFA80FBBBF1000F08DB019850441FFA45
:1033200080FA0398ABEB00000FFA80FB09F1010073
:103330001FFA80F9B145DADD05B0BDE8F08F70B550
:1033400004460D46A4F11E0188B200233C22294602
:10335000FFF7F2FAA5F11E0081B201233C222046BC
:10336000FFF7EAFA70BD2DE9F04104460E46154616
:103370001F46DDF81880A01B83B2E81B82B22146ED
:103380002846FFF7C7FA4046FFF710FBFE4A1288AF
:10339000521E91B2FD4A1288521E90B2FA4A138808
:1033A000FA4A1288FFF7B6FABDE8F0812DE9F0413C
:1033B00004460F461546002638460EF0D0F8691E22
:1033C000884203D238460EF0CAF800E0681E06466E
:1033D0003EB13246394620460EF076F90020A0551F
:1033E00001E000202070BDE8F081014609B900200D
:1033F0007047012081F8310000BFF9E72DE9FF4156
:103400000646884617460024002536200DF006FFA4
:103410000446F4B126802E224146A01CFFF7C6FFC9
:103420009DF80C0084F83000BDF82800608684F810
:1034300034702046FFF7D9FF18200DF0EFFE054647
:103440001DB16C600420287403E020460DF015FFC8
:103450000024284604B0BDE8F081014609B90020E7
:103460007047002008770120487700BFF8E72DE972
:10347000F0410646884617460025002424200DF01A
:10348000CDFE0446DCB12680C148A060C148606022
:103490001022414604F10C00FFF788FF2762204606
:1034A000FFF7DBFF18200DF0B9FE05461DB16C607B
:1034B0000120287403E020460DF0DFFE002428469A
:1034C000BDE8F081014609B900207047002081F86D
:1034D0002500012081F8260000BFF6E72DE9F04124
:1034E000064688461746002400252C200DF096FE3F
:1034F0000446DCB126801922414604F10C00FFF796
:1035000055FFA548A060A5486060A7622046FFF768
:10351000D9FF18200DF082FE05461DB16C60032016
:10352000287403E020460DF0A8FE00242846BDE8DC
:10353000F081014609B9002070470120487698487B
:10354000486098488860002008760120F4E72DE95B
:10355000F0410446884617460025002614B16088CD
:10356000032802D10020BDE8F08120200DF056FE96
:103570000546F5B12C600C22414605F10C00FFF721
:1035800015FFEF6118200DF049FE06466EB175601B
:10359000022030742846FFF7CCFF6188201D40F8D8
:1035A00021606088401C608003E028460DF065FEC5
:1035B00000253046D7E7014609B9002070470020B2
:1035C0004880AFF2750008610120F7E770B5054645
:1035D000002414200DF022FE04461CB12580204654
:1035E000FFF7E9FF204670BD014609B9002070478A
:1035F0004FF6FF70088010204880002008760120D8
:10360000F5E72DE9F04104460F461646002514B1B2
:10361000A08A0A2802D10020BDE8F08120200DF008
:10362000FDFD0546BDB16C601022394605F108006C
:10363000FFF7BCFEEE612846FFF7D6FFA18A04F132
:10364000180040F82150A08A401CA082A08A0128BE
:1036500001D1A16908760120DEE7014609B9002001
:103660007047514848605148086001208874002024
:1036700008728882AFF2750008640120F0E770B527
:1036800006460024002544200DF0C8FD044684B100
:1036900026822046FFF7E1FF18200DF0BFFD05460A
:1036A0001DB16C600720287403E020460DF0E5FD95
:1036B0000024284670BD014609B90020704700204B
:1036C00081F82C00012081F82D0000BFF6E72DE9DC
:1036D000F0470646894617469846002400253420C0
:1036E0000DF09CFD044614B326803148A06031489B
:1036F00060601022494604F10C00FFF757FE1022CB
:10370000394604F11C00FFF751FEC4F83080204612
:10371000FFF7D1FF18200DF081FD05461DB16C604B
:103720000520287403E020460DF0A7FD002428465C
:10373000BDE8F087014609B90020704700200873F2
:103740000120487300BFF8E72DE9F04706460F4611
:1037500090469946DDF820A00024002514200DF0A5
:103760005DFD044644B326806760A4F80880A4F891
:103770000A90C4F810A02046FFF7DCFF18200DF0D7
:103780004DFD0546EDB118E0280000202600002080
:1037900040C40108E6C9010890A90108F2AC01087B
:1037A000CCA201082EA6010854B001085EB401089D
:1037B0008CCF010832D5010807E06C600620287420
:1037C00003E020460DF059FD00242846BDE8F087AF
:1037D00010B504460CB9002010BD012084F8280063
:1037E000FE49896848000DF019FD60620120F3E789
:1037F0002DE9F047064689461746984600240025DD
:1038000030200DF00BFD04462CB32680F448606098
:10381000F448A0601022494604F10C00FFF7C6FDF1
:1038200004F81C7F122060707620A0706420207144
:10383000E070002060716420A071C4F810801C3C0E
:103840002046FFF7C5FF18200DF0E8FC05461DB126
:103850006C600820287403E020460DF00EFD002463
:103860002846BDE8F087014609B9002070470120CD
:1038700081F8FA0300BFF9E72DE9F04707468A46C9
:1038800090469946089E002500244FF47F700DF065
:10389000C5FC0446002C35D00020A4F8F80327808E
:1038A00007225146A01CFFF781FD0722414604F183
:1038B0000900FFF77BFDB6F5FA7F0BDD4FF47A7256
:1038C000494604F110000DF069FE4FF4FA70A4F8B7
:1038D000F80307E07200494604F110000DF05EFEA7
:1038E000A4F8F8632046FFF7BEFF18200DF096FC01
:1038F00005461DB16C600920287403E020460DF0D8
:10390000BCFC00242846BDE8F087014609B9002028
:103910007047012081F8E30700BFF9E72DE9F05F68
:1039200007468A4690469946DDE90A6B0025002441
:1039300040F2E4700DF072FC0446002C37D00020F9
:10394000A4F8E007278007225146A01CFFF72EFDB0
:103950000722414604F10900FFF728FDB6F57A7FFA
:103960000BDD4FF4FA62494604F110000DF016FE2B
:103970004FF47A70A4F8E00707E07200494604F1BA
:1039800010000DF00BFEA4F8E06784F8E2B72046C3
:10399000FFF7BBFF18200DF041FC05461DB16C6020
:1039A0000A20287403E020460DF067FC0024284616
:1039B000BDE8F09FF7B5064675680DB90020FEBD5D
:1039C00089A004F0C2FA0120E871A879F8B1A879B9
:1039D00001281CD14FF66860FEF774FE002413E046
:1039E000BDF80A703F1BBBB2BDF808703F1BBAB2EE
:1039F000BDF806703F1BB9B2BDF804703F1BB8B2EA
:103A0000FFF76CFB601CC4B20A2CE9DB00BF80A08E
:103A100004F09BFA0020FEF7FCFF89A004F095FA61
:103A20004FF6FF70FEF758FE92A004F08EFA1020B9
:103A3000FEF748FE9BA004F088FA0120BFE707B517
:103A4000AAB0002028904FF400401F909FEDA10BDA
:103A50008DED140B2A9840680F900F9810B9002034
:103A60002DB000BD01210F9880F8E3179FED990B51
:103A70008DED160B9948008835380E900FF0C1F97E
:103A8000CDE91201964800883F380E900FF0B9F941
:103A9000CDE91C019FED930B53EC102B9DED120B08
:103AA00051EC100B0EF074FFCDE922019DED1C0BC3
:103AB0008DED200B8948008848380E900FF0A1F951
:103AC000CDE924018648008851380E900FF099F90D
:103AD000CDE926010F98B0F8E0070B900FF0A8F998
:103AE000CDE90C019DED0C0B53EC102B9DED240B3F
:103AF00051EC100B0FF000F8CDE918019FED7B0B96
:103B000053EC102B9DED260B51EC100B0EF0F4FF37
:103B1000CDE91A010020FEF7D5FD0120FEF779FF5F
:103B20009FED740B53EC102B9DED240B51EC100BFF
:103B30000EF02EFFCDE90A019DED0A0B51EC100BA2
:103B40000FF032F980B20E909DED120B51EC100B7C
:103B50000FF02AF980B20D909DED1C0B51EC100B6B
:103B60000FF022F980B200230C90DDE90D12FEF770
:103B7000E3FE9DED260B51EC100B0FF015F980B212
:103B80000E909DED120B51EC100B0FF00DF980B261
:103B90000D909DED260B53EC102B9DED1C0B51EC65
:103BA000100B0FF0D5FACDE90A019DED0A0B51EC8F
:103BB000100B0FF0F9F880B201230C90DDE90D1223
:103BC000FEF7BAFE9FED4D0B53EC102B9DED120B43
:103BD00051EC100B0EF0DCFE94E0000080000020A1
:103BE0008AD90108B8D80108696E205365744E65FA
:103BF0007752656374436F6E74726F6C5669736944
:103C0000626C65204E6577726563740D0A00000072
:103C1000696E205365744E657752656374436F6EA9
:103C200074726F6C56697369626C6520474C5F549F
:103C3000525545204E6577726563740D0A00000089
:103C4000696E205365744E657752656374436F6E79
:103C500074726F6C56697369626C6520474C5F467D
:103C60004F4E545F424947204E6577726563740D2D
:103C70000A000000696E205365744E6577526563D3
:103C800074436F6E74726F6C56697369626C6520F1
:103C9000474C5F5768697465204E65777265637439
:103CA0000D0A0000696E205365744E657752656396
:103CB00074436F6E74726F6C56697369626C6520C1
:103CC000474C5F426C7565204E6577726563740D75
:103CD0000A00000000000000000000002800002092
:103CE000260000200000000000001040000000003E
:103CF000000026400000000000000040000000001E
:103D000000001440CDE90A019DED0A0B51EC100BA7
:103D10000FF04AF880B29FEDFE0B53EC102B0E9083
:103D20009DED1C0B51EC100B0EF032FECDE90A019B
:103D30009DED0A0B51EC100B0FF036F880B2012309
:103D4000F5A20D900E99FEF7BAFD9FEDF40B53EC22
:103D5000102B9DED220B51EC100B0EF019FE9FED78
:103D6000F10B53EC102BCDE908019DED080B51EC44
:103D7000100B0FF0EDF9CDE90A019DED0A0B51ECA6
:103D8000100B0FF011F880B21FED240B53EC102B29
:103D90000E909DED200B51EC100B0FF0D9F9CDE9F1
:103DA0000A019DED0A0B51EC100B0EF0FDFF80B2E5
:103DB0000123D9A20D900E99FEF781FD0F9890F87E
:103DC000E207012853D11FED350B53EC102B9DED6D
:103DD000240B51EC100B0EF0DBFDCDE908019DED3D
:103DE000080B51EC100B0EF0DFFF80B20E909DED32
:103DF000260B51EC100B0EF0D7FF80B20D909DED0D
:103E0000120B51EC100B0EF0CFFF80B29FEDC70BE1
:103E100053EC102B0C909DED1C0B51EC100B0FF084
:103E200097F9CDE908019DED080B51EC100B0EF050
:103E3000BBFF80B20B900CA90EC9FEF76BFD0020F2
:103E4000FEF754FCBB480088401E80B20E90BA4872
:103E50000088401E80B20D90B6480388B64802889C
:103E6000DDE90D01FEF756FD4FF6F0701F9021E0E1
:103E70000F981030289930F911000B900EF0C1FF07
:103E8000CDE90C019DED160B53EC102B9DED0C0BA9
:103E900051EC100B0FF01AF909D20F981030289935
:103EA00030F911000E900EF0ACFFCDE91601289804
:103EB000401C28900F98B0F8E01728988142D7D876
:103EC0009DED1A0B53EC102B9DED260B51EC100BB6
:103ED0000FF03EF9CDE90C019DED0C0B53EC102BCE
:103EE0009DED160B51EC100B0EF006FECDE9140102
:103EF00000202890CDE1289800287CD00020FEF7F3
:103F0000E1FB9DED220B51EC100B0EF04DFF80B24A
:103F10000E9028980EF08CFFCDE906019DED1A0B4E
:103F200053EC102B9DED060B51EC100B0EF0D0FF57
:103F3000CDE908019DED200B53EC102B9DED080BF6
:103F400051EC100B0FF0F8F8CDE90A019DED0A0BCA
:103F500051EC100B0EF028FF80B2002304220D90CC
:103F60000E99FEF7E9FC44F20820FEF7ABFB1FEDCB
:103F70009F0B53EC102B9DED240B51EC100B0EF00E
:103F800007FDCDE90A019DED0A0B51EC100B0EF077
:103F90000BFF80B21FEDAD0B53EC102B0E909DED7F
:103FA000220B51EC100B0FF0D3F8CDE90A019DED77
:103FB0000A0B51EC100B0EF0F7FE80B20D90289812
:103FC0000EF036FFCDE906019DED1A0B53EC102BD8
:103FD0009DED060B51EC100B0EF07AFFCDE90801B8
:103FE0009DED200B53EC102B9DED080B51EC100BAD
:103FF0000FF0A2F800E00EE0CDE90A019DED0A0BFA
:1040000051EC100B0EF0D0FE80B200230C90DDE9D5
:104010000D12FEF791FC28980A2877D10020FEF7B0
:1040200051FB9FED460B53EC102B9DED220B51ECF9
:10403000100B0EF0ADFCCDE90A019DED0A0B51EC21
:10404000100B0EF0B1FE80B20E9028980EF0F0FE2C
:10405000CDE902019DED1A0B53EC102B9DED020BE7
:1040600051EC100B0EF034FFCDE904019DED200B57
:1040700053EC102B9DED040B51EC100B0FF05CF882
:104080001FEDE40B53EC102BCDE906019DED060B63
:1040900051EC100B0FF05CF89FED2A0B53EC102B3A
:1040A000CDE908019DED080B51EC100B0FF050F815
:1040B000CDE90A019DED0A0B51EC100B0EF074FED8
:1040C00080B201230D900F9A09320E99FEF7F7FB8B
:1040D0009DED160B53EC102B1CA110A80DF0F4F85D
:1040E0009FED1C0B53EC102B9DED160B51EC100BA0
:1040F0000EF0B2FE74D29FED110B53EC102B9DED20
:10410000220B51EC100B0EF043FC27E0BEE0000048
:104110000000000000001840300000000000000017
:1041200000003240000000000000224000000000BB
:104130000000F03F280000202600002000000000C2
:1041400000004240000000000000304025342E31C5
:10415000660000000000000000408F40CDE90A0129
:104160009DED0A0B51EC100B0EF01EFE80B20E906E
:1041700028980EF05DFECDE904019DED1A0B53EC7D
:10418000102B9DED040B51EC100B0EF0A1FECDE9B0
:1041900006019DED200B53EC102B9DED060B51EC11
:1041A000100B0EF0C9FF9FEDFE0B53EC102BCDE969
:1041B00008019DED080B51EC100B0EF0C9FFCDE985
:1041C0000A019DED0A0B51EC100B0EF0EDFD80B2D3
:1041D000012310AA0D900E99FEF771FB56E0FFE740
:1041E0009FEDF10B53EC102B9DED220B51EC100BBE
:1041F0000EF0CEFB1FED2F0B53EC102BCDE9080179
:104200009DED080B51EC100B0EF0C2FBCDE90A013D
:104210009DED0A0B51EC100B0EF0C6FD80B20E9016
:1042200028980EF005FECDE904019DED1A0B53EC24
:10423000102B9DED040B51EC100B0EF049FECDE957
:1042400006019DED200B53EC102B9DED060B51EC60
:10425000100B0EF071FF9FEDD20B53EC102BCDE93C
:1042600008019DED080B51EC100B0EF071FFCDE92C
:104270000A019DED0A0B51EC100B0EF095FD80B27A
:10428000012310AA0D900E99FEF719FB2898401CE7
:10429000289028980A287FF62EAE00202890FDE36B
:1042A0009DED180B53EC102B9DED120B51EC100BE8
:1042B0000EF04EFFCDE912010020FEF703FA1FEDCC
:1042C000650B53EC102B9DED120B51EC100B0EF007
:1042D0005FFBCDE90A019DED0A0B51EC100B0EF0CE
:1042E00063FD80B20E909DED1C0B51EC100B0EF097
:1042F0005BFD80B2012304220D900E99FEF71CFB9A
:104300000F98B0F8E0070F286CDC289A521CA8A17F
:1043100010A80CF0D9FF1FED820B53EC102B9DED74
:10432000120B51EC100B0EF033FBCDE90A019DEDA1
:104330000A0B51EC100B0EF037FD80B21FED8C0B09
:1043400053EC102B0E909DED1C0B51EC100B0EF04E
:104350001FFBCDE90A019DED0A0B51EC100B0EF08D
:1043600023FD80B2012310AA0D900E99FEF7A7FA43
:1043700044F20820FEF7A6F99DED260B51EC100B38
:104380000EF012FD80B21FED970B53EC102B0E9028
:104390009DED120B51EC100B0EF0FAFACDE90A016B
:1043A0009DED0A0B51EC100B0EF0FEFC80B20D904F
:1043B0009DED260B53EC102B9DED1C0B51EC100BBF
:1043C0000EF0C6FECDE90A019DED0A0B51EC100B73
:1043D0000EF0EAFC80B201230C90DDE90D12FEF72D
:1043E000ABFA87E10F98B0F8E0070F287BDD0F9854
:1043F000B0F8E007282876DC2898401C0321B0FBA1
:10440000F1F201FB12000028EBD1289A521C68A19E
:1044100010A80CF059FF1FEDC20B53EC102B9DEDB3
:10442000120B51EC100B0EF0B3FACDE90A019DED21
:104430000A0B51EC100B0EF0B7FC80B21FEDCC0B49
:1044400053EC102B0E909DED1C0B51EC100B0EF04D
:104450009FFACDE90A019DED0A0B51EC100B0EF00D
:10446000A3FC80B2012310AA0D900E99FEF727FA43
:1044700044F20820FEF726F99DED260B51EC100BB7
:104480000EF092FC80B21FEDD70B53EC102B0E9068
:104490009DED120B51EC100B0EF07AFACDE90A01EA
:1044A0009DED0A0B51EC100B0EF07EFC80B20D90CE
:1044B0009DED260B53EC102B9DED1C0B51EC100BBE
:1044C0000EF046FECDE90A019DED0A0B51EC100BF2
:1044D0000EF06AFC80B201230C90DDE90D12FEF7AC
:1044E0002BFA07E1FFE70F98B0F8E007282856DD20
:1044F0000F98B0F8E007462851DC2898401C00F0DF
:1045000003000028EDD1289A521C29A110A80CF014
:10451000DBFE9FED280B53EC102B9DED120B51ECA5
:10452000100B0EF035FACDE90A019DED0A0B51ECA6
:10453000100B0EF039FC80B29FED1E0B53EC102BCC
:104540000E909DED1C0B51EC100B0EF021FACDE9F5
:104550000A019DED0A0B51EC100B0EF025FC80B208
:10456000012310AA0D900E99FEF7A9F944F2082034
:10457000FEF7A8F89DED260B51EC100B0EF014FC85
:1045800080B29FED0E0B53EC102B0E909DED120B95
:1045900051EC100B0EF0FCF9CDE90A0112E033E00A
:1045A0000000000000001440000000000000204057
:1045B000256400000000000000001840000000001A
:1045C0000000F03F9DED0A0B51EC100B0EF0ECFBE0
:1045D00080B20D909DED260B53EC102B9DED1C0B26
:1045E00051EC100B0EF0B4FDCDE90A019DED0A0B64
:1045F00051EC100B0EF0D8FB80B201230C90DDE9DA
:104600000D12FEF799F975E02898401C0A21B0FBBD
:10461000F1F201FB120000286CD1289A521CAFF273
:10462000700110A80CF050FE1FED1E0B53EC102B68
:104630009DED120B51EC100B0EF0AAF9CDE90A0119
:104640009DED0A0B51EC100B0EF0AEFB80B21FED8E
:10465000270B53EC102B0E909DED1C0B51EC100B07
:104660000EF096F9CDE90A019DED0A0B51EC100B05
:104670000EF09AFB80B2012310AA0D900E99FEF75E
:104680001EF944F20820FEF71DF89DED260B51ECB3
:10469000100B0EF089FB80B21FED380B53EC102B82
:1046A0000E909DED120B51EC100B0EF071F9CDE94F
:1046B0000A019DED0A0B51EC100B0EF075FB80B258
:1046C0000D909DED260B53EC102B9DED1C0B51EC2A
:1046D000100B0EF03DFDCDE90A019DED0A0B51ECEA
:1046E000100B0EF061FB80B201230C90DDE90D127E
:1046F000FEF722F9289800287DD10F9810302899CC
:1047000030F9110003900EF07CFBCDE904019DED22
:10471000140B53EC102B9DED040B51EC100B0EF011
:10472000EBF9CDE906019DED1C0B53EC102B9DED33
:10473000060B51EC100B0EF0FFFCCDE908019DEDCE
:10474000080B51EC100B0EF02FFB80B20E909DED7C
:10475000120B51EC100B0EF027FB80B20D909DED6B
:104760001C0B51EC100B0EF01FFB80B20C909DED5A
:10477000180B53EC102B9DED120B51EC100B0EF09F
:1047800007F9CDE908019DED080B51EC100B0EF077
:104790000BFB80B20B90BDF87C0000900BA80FC8FB
:1047A000FEF70DFD0F981030289930F91100019097
:1047B0000EF027FBCDE902019DED140B53EC102BFD
:1047C0009DED020B51EC100B0EF096F9CDE90401B2
:1047D0009DED1C0B53EC102B9DED040B51EC100BBD
:1047E0000EF0AAFC1FED8B0B53EC102BCDE906014C
:1047F0009DED060B00E0B2E051EC100B0EF0A8FCB2
:10480000CDE908019DED080B51EC100B0EF0CCFA30
:1048100080B20E909DED120B51EC100B0EF0C4FA0D
:1048200080B21FED9A0B53EC102B0D909DED1C0BDD
:1048300051EC100B0EF08CFCCDE908019DED080B3E
:1048400051EC100B0EF0B0FA80B20C909DED180BED
:1048500053EC102B9DED120B51EC100B0EF098F851
:10486000CDE908019DED080B51EC100B0EF09CFA00
:1048700080B20B90BDF87C0000900BA80FC8FEF72B
:104880009EFC0F981030289930F9110003900EF01B
:10489000B8FACDE904019DED140B53EC102B9DEDFE
:1048A000040B51EC100B0EF027F9CDE906019DED3C
:1048B0001C0B53EC102B9DED060B51EC100B0EF066
:1048C0003BFCCDE908019DED080B51EC100B0EF0FF
:1048D0006BFA80B21FEDC70B53EC102B0E909DEDC1
:1048E000120B51EC100B0EF033FCCDE908019DEDDD
:1048F000080B51EC100B0EF057FA80B20D909DEDA5
:104900001C0B51EC100B0EF04FFA80B20C909DED89
:10491000180B53EC102B9DED120B51EC100B0EF0FD
:1049200037F81FEDDA0B53EC102BCDE906019DEDA6
:10493000060B51EC100B0EF00BFCCDE908019DEDC0
:10494000080B51EC100B0EF02FFA80B20B90BDF853
:104950007C0000900BA80FC8FEF731FCA5E10F9872
:104960001030289930F9110003900EF04AFACDE981
:1049700004019DED140B53EC102B9DED040B51EC39
:10498000100B0EF0B9F8CDE906019DED1C0B53ECB0
:10499000102B9DED060B51EC100B0EF0CDFBCDE96D
:1049A00008019DED080B51EC100B0EF0FDF980B2E3
:1049B0000E909DED120B51EC100B0EF0F5F980B23C
:1049C0000D902898411E0F98103030F91100039077
:1049D0000EF017FACDE904019DED140B53EC102BEA
:1049E0009DED040B51EC100B0EF086F8CDE906019D
:1049F0009DED1C0B53EC102B9DED060B51EC100B99
:104A00000EF09AFBCDE908019DED080B51EC100B5F
:104A10000EF0CAF980B20C909DED180B53EC102BE0
:104A20009DED120B51EC100B0DF0B2FFCDE908011A
:104A30009DED080B51EC100B0EF0B6F980B20B9007
:104A4000BDF87C0000900BA80FC8FEF7B8FB0F98CC
:104A50001030289930F9110001900EF0D2F9CDE90B
:104A600002019DED140B53EC102B9DED020B51EC4C
:104A7000100B0EF041F8CDE904019DED1C0B53EC39
:104A8000102B9DED040B51EC100B0EF055FB9FED20
:104A9000FD0B53EC102BCDE9060100E04CE19DED40
:104AA000060B51EC100B0EF053FBCDE908019DED08
:104AB000080B51EC100B0EF077F980B29FEDF10B63
:104AC00053EC102B0E909DED120B51EC100B0EF0D1
:104AD0003FFBCDE908019DED080B51EC100B0EF0EA
:104AE00063F980B20D902898411E0F98103030F96C
:104AF000110001900EF085F9CDE902019DED140B36
:104B000053EC102B9DED020B51EC100B0DF0F4FF4C
:104B1000CDE904019DED1C0B53EC102B9DED040B16
:104B200051EC100B0EF008FB9FEDD60B53EC102B45
:104B3000CDE906019DED060B51EC100B0EF008FBC4
:104B4000CDE908019DED080B51EC100B0EF02CF98E
:104B500080B20C909DED180B53EC102B9DED120BB9
:104B600051EC100B0DF014FFCDE908019DED080B81
:104B700051EC100B0EF018F980B20B90BDF87C00D0
:104B800000900BA80FC8FEF71AFB0F981030289959
:104B900030F9110003900EF034F9CDE904019DEDD8
:104BA000140B53EC102B9DED040B51EC100B0DF07E
:104BB000A3FFCDE906019DED1C0B53EC102B9DEDE1
:104BC000060B51EC100B0EF0B7FACDE908019DED84
:104BD000080B51EC100B0EF0E7F880B29FEDA90B1B
:104BE00053EC102B0E909DED120B51EC100B0EF0B0
:104BF000AFFACDE908019DED080B51EC100B0EF05A
:104C0000D3F880B20D902898411E0F98103030F9DB
:104C1000110003900EF0F5F8CDE904019DED140BA1
:104C200053EC102B9DED040B51EC100B0DF064FFB9
:104C3000CDE906019DED1C0B53EC102B9DED060BF1
:104C400051EC100B0EF078FACDE908019DED080B40
:104C500051EC100B0EF0A8F880B20C909DED180BE3
:104C600053EC102B9DED120B51EC100B0DF090FE40
:104C70009FED840B53EC102BCDE906019DED060B47
:104C800051EC100B0EF064FACDE908019DED080B14
:104C900051EC100B0EF088F880B20B90BDF87C0040
:104CA00000900BA80FC8FEF78AFA0F98B0F8E0073B
:104CB000401E289988423CD10020FDF703FD9FED5E
:104CC000730B53EC102B9DED120B51EC100B0DF0F0
:104CD0005FFECDE90A019DED0A0B51EC100B0EF0C1
:104CE00063F880B29FED6B0B53EC102B0E909DED93
:104CF0001C0B51EC100B0DF04BFE9FED680B53ECB1
:104D0000102BCDE908019DED080B51EC100B0DF0B7
:104D10003FFECDE90A019DED0A0B51EC100B0EF0A0
:104D200043F880B201230D900F9A921C0E99FDF763
:104D3000C6FD2898401C28900F98B0F8E0172898D6
:104D400081423FF6ADAA0020FDF763FE0120FEF789
:104D500087BE2DE9F04F2DED108B89B083460024DE
:104D6000002008909FED4F0BB0EE40AAF0EE60AA35
:104D70009FED4C0B8DED060BDBF8045025B909B007
:104D8000BDEC108BBDE8F08F012085F8FA03474891
:104D90000088323886B246490988A1F148000EF0F1
:104DA00030F841EC180B301D87B29FED420B53ECED
:104DB000102B51EC180B0EF0CBF941EC1B0B0DF046
:104DC000F3FF1FFA80FA394800883C381FFA80F94F
:104DD0003748008850381FFA80F8B5F8F80399FB77
:104DE000F0F0C0B208900A2098FBF0F003900EF0AB
:104DF00008F841EC190B0020FDF764FC0120FDF7D9
:104E000008FE51EC180B0DF0CFFF80B200234A468C
:104E100031460390FDF790FD40460EF009F841EC55
:104E20001C0B53EC182B0EF087F941EC1B0B0DF00B
:104E3000BBFF80B20123424631460390FDF77CFD63
:104E40009FED1E0B53EC102B51EC180B0DF0A0FD39
:104E500041EC1B0B0DF0A8FF80B20390701D81B2D6
:104E60000123AFF64C520398FDF729FD07F10B0221
:104E700091B2AAF1050290B20123AFF66452FDF798
:104E80001EFD35E0000000000000F03F00000000C3
:104E90000000384000000000000008400000000052
:104EA000000030400000000000000000280000204A
:104EB000260000200000000000001040000000005C
:104EC0000000184005F1100131F914000DF099FFB0
:104ED00041EC1B0B53EC1A2B0EF0F8F807D205F13E
:104EE000100131F914000DF08CFF41EC1A0B641C19
:104EF000B5F8F803A042E5D840460DF099FF41EC23
:104F00001C0B53EC192B0EF023F941EC1B0B53EC4B
:104F10001B2B51EC1A0B0DF0EFFDCDE9060100241F
:104F2000C3E00020FDF7CEFB0020FDF7CBFB2046C1
:104F30000DF07EFF41EC1E0B53EC192B0DF0C8FF5A
:104F400041EC1C0B50460DF073FF41EC1D0B53EC74
:104F50001C2B0EF0FDF841EC1B0B0DF025FF80B271
:104F60000023042239460390FDF7E6FC092C70D19A
:104F700020460DF05DFF53EC192BCDE900019DEDAE
:104F8000000B51EC100B0DF0A3FF41EC1E0B504633
:104F90000DF04EFF41EC1F0B53EC1E2B0EF0D8F81A
:104FA00041EC1D0B9FEDFE0B53EC102B0EF0D0F8D7
:104FB00041EC1C0B1FED470B53EC102B0EF0C8F807
:104FC00041EC1B0B0DF0F0FE80B2039007F12800BE
:104FD00081B2012305F109020398FDF770FC53EC3F
:104FE0001A2BAFF6986104A80CF06EF99FEDEE0B4A
:104FF00053EC102B51EC1A0B0DF02EFF2AD2204649
:105000000DF016FF41EC1F0B53EC192B0DF060FF58
:1050100041EC1D0B50460DF00BFF41EC1E0B53EC09
:105020001D2B0EF095F841EC1C0B9FEDE10B53ECA2
:10503000102B0EF08DF841EC1B0B0DF0B5FE80B27D
:10504000039007F1280081B2012304AA0398FDF719
:1050500036FC29E020460DF0EBFE41EC1F0B53EC33
:10506000192B0DF035FF41EC1D0B50460DF0E0FE05
:1050700041EC1E0B53EC1D2B0EF06AF841EC1C0B9F
:105080009FEDCB0B53EC102B0EF062F841EC1B0B99
:105090000DF08AFE80B2039007F1300081B2012347
:1050A00004AA0398FDF70BFC641C0A2CFFF439AF2B
:1050B0000024C4E005F1100131F914000DF0A1FE47
:1050C00041EC1D0B9DED060B53EC102B0DF014FD68
:1050D00041EC1C0B53EC182B0EF02EF841EC1B0B83
:1050E0000DF062FE80B2039051EC180B0DF05CFEE7
:1050F00080B20290102000900898301A401C81B2B3
:105100003046DDE90223FEF70EF80898301A86B221
:105110000020FDF7D7FA51EC180B0DF045FE80B2D8
:105120000390701C81B2012304220398FDF704FC54
:10513000B5F8F8030F2814DC621CAFF68C3104A814
:105140000CF0C2F851EC180B0DF02EFE801D80B251
:105150000390B01D81B2012304AA0398FDF7AFFBB1
:1051600049E0B5F8F8030F2826DDB5F8F80328283C
:1051700022DC601C0321B0FBF1F201FB1200D0BB6A
:10518000621CAFF6D43104A80CF09EF81FEDB50BED
:1051900053EC102B51EC180B0DF0FAFB41EC1B0BF0
:1051A0000DF002FE80B20390B01D81B2012304AA6B
:1051B0000398FDF784FB1EE0601C00F00300D0B9EB
:1051C000621CAFF6144104A80CF07EF81FEDC50B6D
:1051D00053EC102B51EC180B0DF0DAFB41EC1B0BD0
:1051E0000DF0E2FD80B20390B01D81B2012304AA4C
:1051F0000398FDF764FBB5F8F803401EA0421DD1EB
:105200001FEDDC0B53EC102B51EC180B0DF0C0FB19
:1052100041EC1C0B1FEDDF0B53EC102B0DF0B8FB1A
:1052200041EC1B0B0DF0C0FD80B2039006F118009D
:1052300081B20123AA1C0398FDF741FB641CB5F859
:10524000F803A0423FF636AF0020FDF7E2FB012055
:1052500095E52DE9FC5F04468A46207C082870D13C
:10526000002500264FF0000B002700200190009041
:10527000DFF844816068D0F82490606890F82000DE
:10528000616891F91F1088420ADA606890F91F007E
:105290000A3080B20190606890F8200009300090D8
:1052A000606890F82000616891F91F1088420ADD5B
:1052B000606890F91F00083080B20190606890F833
:1052C000200009300090BAF1000F2DD1002625E012
:1052D000002700251BE02FB9D8F800B008F104081A
:1052E0004FF400270BEA070070B122899319019A45
:1052F0009A1A91B2A289123A2A4490B2FDF7C3FBDE
:10530000A9F8000009F102097F08681CC5B22A4803
:105310000C380068A842DED8701CC6B226480C388B
:105320004068B042D4D239E0606890F820006168EB
:1053300091F91F10884231D06068D0F8249000267F
:1053400027E02CE0002700251CE02FB9D8F800B09A
:1053500008F104084FF400270BEA070078B139F888
:10536000022B238903EB060C009BACEB030399B2E1
:10537000A389123B2B4498B20823FDF7BDF97F089F
:10538000681CC5B20C480C380068A842DDD8701CF7
:10539000C6B209480C384068B042D3D800BF0DE00F
:1053A00000000000000000400000000000408F40AE
:1053B00000000000000014408C000020BDE8FC9FAD
:1053C0002DE9F04F87B00646002700200290814665
:1053D00082468346012401908046756815B907B05E
:1053E000BDE8F08F95F82800012811D0012085F83C
:1053F0002800F64A1268D188F44A1268908801227F
:10540000FDF71EFD287F18B900213046FFF721FF68
:1054100095F81EB00120FDF7FCFAED480690A8684B
:105420000590EC48049068680390287F68BB378932
:10543000B6F80C90B6F80EA004980090381F81B210
:1054400053464A463846FDF78EFF0EE00598621C2B
:10545000A7EB820291B2A7EB8402009090B2534670
:105460004A46FDF780FF601CC4B21B2CEEDB069899
:10547000621CA7EB820291B2A7EB8402009090B26B
:1054800053464A46FDF76FFFACE0287F01284DD117
:10549000D148008801904FF6FF70FDF713F9F389AA
:1054A000B6F80CC0ACF1010C1FFA8CF2B6F80AC0C9
:1054B000ACF1020C1FFA8CF13089FDF70FFEBDF83C
:1054C0000400FDF7FFF8B089001F87B2F089001FC4
:1054D00080B20290B6F80890B6F80AA00320FDF753
:1054E000F5FA042012235246394600900698FDF73B
:1054F00048FC0BE004200090A7EB840081B212234B
:1055000052460598FDF73DFC601CC4B21B2CF1DB34
:1055100004200090A7EB840081B212235246049825
:10552000FDF72FFC0020FDF7D1FA5BE0287F022871
:1055300058D1A948008801904FF6FF70FDF7C2F8D6
:10554000B6F80EC0ACF1050C1FFA8CF3B6F80CC01F
:10555000ACF1060C1FFA8CF2B6F80AC0ACF1010CE3
:105560001FFA8CF1B6F808C00CF1010C1FFA8CF090
:10557000FDF7B4FDBDF80400FDF7A4F8B089001FE5
:1055800087B2F089001F80B20290B6F80890B6F892
:105590000AA00120FDF79AFA042012234A4600903F
:1055A00002990698FDF7EDFB0CE0042000900298AC
:1055B00000EB840081B212234A460598FDF7E1FB17
:1055C000601CC4B21B2CF0DB04200090029800EB9E
:1055D000840081B212234A460498FDF7D2FB0020D2
:1055E000FDF774FA95F8200095F91F10884209D04C
:1055F000287F38B900213046FFF72BFE01213046C5
:10560000FFF727FE287FE0B90398AAF1010C1FFAE3
:105610008CF309F1010C1FFA8CF2009095F91FC070
:10562000A7EB0C0CACF10A0C1FFA8CF195F91FC01A
:10563000A7EB0C0CACF1040C1FFA8CF0FDF793FEF9
:105640002FE0287F012814D10320FDF73FFA062020
:105650000090AAF1010082B295F91F00381A001FCC
:1056600081B214230398FDF78CFB0020FDF72EFA7E
:1056700017E0287F022814D10120FDF727FA062021
:10568000009009F1010082B295F91F300298184488
:10569000001D81B214230398FDF773FB0020FDF772
:1056A00015FAE87F85F8200005F10C000BF057FF94
:1056B0008046B8F1000F24D00024287F10BB10E0F2
:1056C000ABEBC802A7EB5202D21EA2EBC40291B20E
:1056D00009F1020290B2002340A2FDF7F0F8601C2D
:1056E000C4B2A8F10100A042EAD8821CA7EBC20212
:1056F00091B209F1020290B2012305F10C02FDF70B
:10570000DEF85EE0287F01282ED10320FDF7DEF9C8
:1057100012E0ABEBC802A7EB5202121DA2EBC402CF
:1057200091B22F4A1288A2EB0A02921C90B22BA2CD
:10573000FDF78CFA601CC4B2A8F10100A042E8D8C1
:10574000ABEBC802A7EB5202121D91B2244A128899
:10575000A2EB0A02921C90B205F10C02FDF776FA58
:105760000020FDF7B3F92CE0287F022829D1012081
:10577000FDF7ACF90FE0ABEBC802A7EB5203621CDC
:10578000A3EBC20291B209F1020290B213A2FDF79B
:105790005DFA601CC4B2A8F10100A042EBD8ABEBEB
:1057A000C802A7EB5203621CA3EBC20291B209F13B
:1057B000020290B205F10C02FDF748FA0020FDF755
:1057C00085F90020FDF725F9012008E634000020C6
:1057D00014D70108E6D701082C00002020000000A3
:1057E0002800002077B581B005466C6814B9002008
:1057F00004B070BD0120607360680090BDF80E6059
:10580000F3B2BDF80C60F2B2BDF80A10BDF80800A2
:10581000FDF7A9FD0120EBE72DE9F74181B0064630
:105820004FF00008002774681CB9002004B0BDE8E0
:10583000F081012084F8260094F8250008B9A568B5
:1058400000E065680095BDF80EC00CF0FF03BDF8E0
:105850000CC00CF0FF02BDF80A10BDF80800FDF7FF
:1058600082FD0120FDF7D5F804F10C000BF077FE66
:10587000074607B17F1E0020FCF724FFBDF80A2071
:10588000193291B2BDF80C20D2B20F3A90B2012376
:1058900004F10C02FDF713F80020FDF7BAF801201F
:1058A000C4E72DE9F74181B007460025A8467C688A
:1058B0001CB9002004B0BDE8F08101206076207E94
:1058C000012801D1666800E0A6680096BDF80EC008
:1058D0000CF0FF03BDF80CC00CF0FF02BDF80A107D
:1058E000BDF80800FDF73FFD0120FDF792F804F137
:1058F0000C000BF034FE804610E0BDF80820163A8C
:10590000A2EBC50291B2BDF80C20D2B20E3A90B211
:1059100000232022FCF7D3FF681CC5B24545ECD913
:105920000020FCF7CFFEBDF80820521D91B2BDF853
:105930000C20D2B20E3A90B2012304F10C02FCF713
:10594000BEFF0020FDF765F80120B3E72DE9F74F12
:1059500082B007460026B0467C6801254FF000095A
:105960004FF0000A0020019014B905B0BDE8F08F97
:10597000012084F82D0004F10C000BF0F0FD8346AB
:1059800004F11C000BF0EBFD834505D904F10C007C
:105990000BF0E5FD064604E004F11C000BF0DFFD12
:1059A00006460120FDF735F894F82C0088B9FD492A
:1059B000A068884206D1DFF8F093D4F808A0FB482D
:1059C00001901FE0DFF8E893D4F808A0F9480190AF
:1059D00018E094F82C00012814D1F7496068884237
:1059E0000AD14DF6FB60FCF777FEDFF8C493D4F8DC
:1059F00004A0F048019005E0DFF8AC93D4F804A0CF
:105A0000EA48019001980090BDF812C00CF0FF0325
:105A1000BDF810C00CF0FF02BDF80CC0ACF1080CD2
:105A20001FFA8CF1BDF80C00FDF79DFC18E0CDF8D5
:105A300000A0BDF80CB005F1010CABEBCC0C1FFACB
:105A40008CF1ABEBC50C1FFA8CF0BDF812C00CF05A
:105A5000FF03BDF810C00CF0FF02FDF784FC6D1CC5
:105A6000B54201D2102DE2D3CDF80090BDF80CB0B4
:105A700005F1010CABEBCC0C1FFA8CF1ABEBC50CB8
:105A80001FFA8CF0BDF812C00CF0FF03BDF810C077
:105A90000CF0FF02FDF767FC4FF6FF70FCF712FEFB
:105AA000102000EBC60894F82C0078B9BDF80C2043
:105AB000A2EBC60291B2BDF81020D2B2123A90B257
:105AC000012304F10C02FCF7FAFE1CE094F82C0010
:105AD000012818D104F11C000BF041FD401CA8EB7B
