:020000040800F2
:10000000709F0020451001082D0600082F060008EB
:1000100033060008370600083B0600080000000011
:100020000000000000000000000000009D02000829
:100030003F06000800000000F1020008550E01080C
:100040005F1001085F1001085F1001085F100108D0
:100050005F1001085F1001085F1001085F100108C0
:100060005F1001085F1001085F1001085F100108B0
:100070005F1001085F1001085F1001085F100108A0
:100080005F1001085F1001085F1001085F10010890
:100090005F1001085F1001085F1001085F10010880
:1000A0005F1001085F1001085F1001085F10010870
:1000B0008306000885060008870600085F1001080F
:1000C0005F1001085F1001085F1001085F10010850
:1000D0005F1001085F1001085F1001085F10010840
:1000E0005F1001085F1001085F1001085F10010830
:1000F0005F1001085F1001085F1001085F10010820
:100100005F1001085F1001085F1001085F1001080F
:100110005F1001085F1001085F1001085F100108FF
:100120005F1001085F1001085F1001085F100108EF
:100130005F100108410600085F1001085F10010808
:100140005F1001085F1001085F1001085F100108CF
:100150005F1001085F1001085F1001085F100108BF
:100160005F1001085F1001085F1001085F100108AF
:100170005F1001085F1001085F1001085F1001089F
:100180005F1001085F10010800F002F800F076F837
:100190000AA090E8000C82448344AAF10107DA45E2
:1001A00001D100F06BF8AFF2090EBAE80F0013F0BE
:1001B000010F18BFFB1A43F001031847FC47020068
:1001C0001C4802000A444FF0000C10F8013B13F0E9
:1001D000070408BF10F8014B1D1108BF10F8015BA0
:1001E000641E05D010F8016B641E01F8016BF9D193
:1001F00013F0080F1EBF10F8014BAD1C0C1B09D1EA
:100200006D1E58BF01F801CBFAD505E014F8016B5B
:1002100001F8016B6D1EF9D59142D6D370470000ED
:100220000023002400250026103A28BF78C1FBD8FF
:10023000520728BF30C148BF0B607047662912F0D3
:10024000AF87642910F0D887752910F0D587632906
:1002500011F0BF84002070471FB512F097FF9DE892
:10026000030011F0F1F911F0F7FC04000020002167
:1002700012F07AFAE0601FBD10B510BD11F00AFE51
:100280001146FFF7E9FF00F07BF811F028FE03B4F8
:10029000FFF7F2FF03BC11F059FE00002A4B19686A
:1002A0000868B0E8F04F80F30988BFF36F8F4FF014
:1002B000000080F3118870470000000006480068C5
:1002C000006880F3088862B661B6BFF34F8FBFF352
:1002D0006F8F00DF00BF00BF08ED00E0DFF80C000B
:1002E000016841F470010160704700BF88ED00E0D3
:1002F000EFF30980BFF36F8F134B1A681EF0100FD6
:1003000008BF20ED108A20E9F04F106008B44FF0CC
:10031000500080F31188BFF34F8FBFF36F8F0FF042
:100320008AFC4FF0000080F3118808BC1968086847
:10033000B0E8F04F1EF0100F08BFB0EC108A80F349
:100340000988BFF36F8F704788010020EFF30580A5
:100350007047000000BF09F080FA07F049FA07F083
:1003600025FBF8E710B500200AF074FF01200AF021
:1003700071FF02200AF06EFF03200AF06BFF10BD30
:100380001CB54FF4E131224807F066FCFFF7EAFFA5
:1003900008F08AF8002002F09AFA09F0B0F80AF0A2
:1003A000A6FE102002F0ECF848F2100002F0F2F87D
:1003B00000F092FB0020012103464FF42062CDE9BA
:1003C000001014A1AFF273000FF0FFF80FF0FDFD65
:1003D00000BFFEE700BF30210D480BF084FA4FF458
:1003E000FA700FF017FBF6E700BFFEE700BF5020E2
:1003F00080F31188BFF34F8FBFF36F8F00BF00BF33
:10040000FEE7704710B507F042FB02F040F810BD60
:10041000001001404D795461736B00000CB5002051
:10042000019000907648006840F48030744908607C
:1004300000BF7348006800F4003000900198401C31
:100440000190009818B90198B0F5A06FF1D16C48EF
:10045000006800F4003010B10120009001E000209D
:1004600000900098012846D165484030006840F06F
:1004700080506349403108606248006840F4804021
:10048000604908605E48083000685D4908310860CE
:100490000846006840F4004008600846006840F4E0
:1004A000A05008605848091F0860081F006840F005
:1004B0008070091F086000BF5148006800F000709C
:1004C0000028F9D040F20520504908604C48083017
:1004D000006820F003004A490831086008460068B7
:1004E00040F00200086000BF45480830006800F096
:1004F0000C000828F8D10CBD10B54548006840F440
:100500007000434908603E48006840F001003C49E3
:10051000086000203A4908310860394800683D49C0
:100520000840374908603C48091D0860081F0068FA
:1005300020F48020091F0860002031490C31086038
:10054000FFF76CFF4FF0006031498039086010BD43
:1005500070B500200022022300240221284D083516
:100560002D6805F00C0020B1042806D0082834D1ED
:1005700007E02A4D2A4E356033E02A4D284E35607B
:100580002FE01F4D2D1D2D68C5F380541C4D2D1DD2
:100590002D6805F03F0154B1224DB5FBF1F5184E21
:1005A000361D3668C6F3881605FB06F209E01B4DBA
:1005B000B5FBF1F5124E361D3668C6F3881605FBFD
:1005C00006F20F4D2D1D2D68C5F301456D1C6B0006
:1005D000B2FBF3F5124E356003E0104D104E35605E
:1005E00000BF00BF064D08352D68C5F303150E4E3C
:1005F000705D0B4D2D68C540094E356070BD000023
:10060000003802400070004019544007003C02408E
:1006100088ED00E0FFFFF6FE103000240024F40017
:100620000000002040787D0104000020704700BFDA
:10063000FEE700BFFEE700BFFEE700BFFEE7704732
:1006400008B50020009040200DF059FF012804D18A
:1006500069460D4800680EF0FAFC40200DF073FF6B
:100660004FF480300DF06FFF009848B1009838B11A
:100670004FF0805005490860BFF34F8FBFF36F8F75
:1006800008BD7047704770478001002004ED00E00E
:1006900010B5B748006806F0FFFA00F01DFB10BD6A
:1006A000704710B5B248006806F0F6FA00F014FA88
:1006B00010BD10B5AE48006806F0EEFA01F087F9FB
:1006C00010BD704710B5AB48007830B101280BD091
:1006D000022810D003281CD114E0A548006806F0B9
:1006E000DBFA00F0CDFB14E0A148006806F0D4FA74
:1006F00001F010F80DE09E48006806F0CDFA00F019
:1007000081FD06E09A48006806F0C6FA00F0DDFEBA
:1007100000BF00BF10BD704710B59548006806F0D7
:10072000BBFA00F0D9FA00209249087010BD10B54C
:100730008F48006806F0B0FA00F0CEF900208D492D
:10074000087010BD10B58A48006806F0A5FA00F0E0
:1007500059FD10BD10B58648006806F09DFA00F0FE
:10076000D9FF10BD10B58248006806F095FA00F078
:10077000B3FA02207F49087010BD10B57C480068AC
:1007800006F08AFA00F0A8F900207A49087010BD36
:1007900010B57748006806F07FFA00F071FB10BDD5
:1007A00010B57348006806F077FA00F08EFE10BDB1
:1007B00010B56F48006806F06FFA00F08DFA03205C
:1007C0006C49087010BD10B56948006806F064FAFD
:1007D00000F082F900206749087010BD10B5644828
:1007E000006806F059FA00F095FF10BD10B560489A
:1007F000006806F051FA00F005FD10BD10B55C4828
:10080000006806F049FA00F067FA012059490870BB
:1008100010BD10B55648006806F03EFA00F05CF9CD
:1008200000205449087010BD10B55148006806F00A
:1008300033FA00F0E7FC10BD10B54D48006806F033
:100840002BFA00F01DFB10BD10B54948006806F0FA
:1008500023FA00F041FA10BD10B54548006806F0D3
:100860001BFA00F039F910BD10B54148006806F0D8
:1008700013FA01F0BCF910BD10B53D48006806F050
:100880000BFA01F03DFD10BD10B53948006806F0C7
:1008900003FA01F09CF810BD10B53548006806F069
:1008A000FBF900F019F910BD70477047704710B59B
:1008B0002F48006806F0F0F901F046FB10BD10B5B6
:1008C0002B48006806F0E8F901F081F810BD10B57A
:1008D0002748006806F0E0F900F0FEF810BD704708
:1008E0007047704710B52248006806F0D5F901F04E
:1008F0007EF910BD10B51E48006806F0CDF901F074
:1009000066F810BD10B51A48006806F0C5F900F089
:10091000E3F810BD10B518A007F04BFA10BD10B5E4
:100920001DA007F046FA10BD10B523A007F041FA4C
:1009300010BD10B52BA007F03CFA10BD10B532A0C9
:1009400007F037FA10BD10B538A007F032FA10BD25
:1009500010B53FA007F02DFA10BD10B544A007F068
:1009600028FA10BD10B54AA007F023FA10BD000008
:100970001C00002016000020506172616D657465D6
:100980007273576174657253637265656E5F496E09
:10099000646F6F720D0A0000506172616D6574655D
:1009A0007273576174657253637265656E5F4F75DC
:1009B00074646F6F720D0A00506172616D657465C9
:1009C0007273576174657253637265656E5F4578C3
:1009D0007472656D65436F6E646974696F6E0D0A3C
:1009E00000000000506172616D657465727357613B
:1009F00074657253637265656E5F4C6573733230F4
:100A00006F430D0A00000000506172616D657465EE
:100A10007273576174657253637265656E5F3230CD
:100A20006F435F33306F430D0A0000005061726105
:100A30006D65746572735761746572536372656531
:100A40006E5F4D6F726533306F430D0A000000001A
:100A5000506172616D65746572735761746572532C
:100A6000637265656E5F536F66740D0A0000000067
:100A7000506172616D65746572735761746572530C
:100A8000637265656E5F486172640D0A0000000064
:100A9000506172616D6574657273576174657253EC
:100AA000637265656E5F56657279486172640D0A9E
:100AB0000000000010B5FE4B2022D221012006F0DC
:100AC0004CFF0446FB4805F01CFDFA4B2246F02182
:100AD000FA2005F0A2F910BD08B5F7A007F069F9F2
:100AE000FFF7E8FF002007F0F6FD4FF6FF70202328
:100AF000D222F0210090FA2008F0C3F9F44807F060
:100B000066FDF4A02023D222F0210090FA2008F004
:100B10000CFC4FF6FF701C235A220C21009014206D
:100B200008F0AFF9EE4807F052FD4FF6FF710020D4
:100B300007F030FDEBA214210E2007F056FF002134
:100B40004FF6FF7007F026FDE14807F040FDE7A2F1
:100B50008221142007F049FFE7A24FF4917114207D
:100B600007F043FFE8A21421FA2007F03EFF4FF6FA
:100B70006860A023D2223C210090142008F081F963
:100B800040F2FC40A023D2223C210090FA2008F041
:100B900078F94FF66861002007F0FCFCD04807F0B8
:100BA00016FDDCA26421822007F01FFFC84807F071
:100BB0000EFDD9A21E21502007F017FFD5A2AA21B1
:100BC000502007F012FFD7A2AF21A02007F00DFFA1
:100BD00040F2FC41002007F0DDFCC14807F0F7FCC3
:100BE000CCA24FF4A571822007F0FFFEB84807F0B1
:100BF000EEFCCEA24FF48271502007F0F6FEC5A2A3
:100C00004FF4C871502007F0F0FECAA24FF4C8712B
:100C1000AF2007F0EAFEA7480121C2699047A54826
:100C2000C549086008BD10B5FFF756FF10BD2DE996
:100C3000F047C24B1E22D221012006F08EFE044650
:100C4000BF4B1E22D221022006F087FE0546BD4B77
:100C50005022D221032006F080FE0646BA4B5022D5
:100C6000D221042006F079FE0746B84B5022D2214B
:100C7000052006F072FE8046B54B5022D221062098
:100C800006F06BFE8146B34805F03BFCB14B2246B3
:100C9000F021FA2005F0C1F8AE4B2A46F0211420CD
:100CA00005F0BBF8AB4B32463C21142005F0B5F8FB
:100CB000A84B3A463C21FA2005F0AFF8A54B424636
:100CC0009621142005F0A9F8A24B4A469621FA2055
:100CD00005F0A3F8BDE8F08708B59FA007F069F814
:100CE000FFF7A5FF002007F0F6FC4FF6FF701C236E
:100CF0005A220C210090142008F0C3F8784807F01D
:100D000066FC4FF6FF71002007F044FC75A2142129
:100D10000E2007F06AFE00214FF6FF7007F03AFC44
:100D20006B4807F054FC6BA24FF4BE71142007F01F
:100D30005CFED22350223C21142007F09FFFD223D7
:100D400050223C21FA2007F099FFD223502296210D
:100D5000142007F093FFD22350229621FA2007F0A7
:100D60008DFF4FF6FF701E23D222F0210090142039
:100D700008F087F8D2231E22F021FA2007F07EFF28
:100D800000214FF6FF7007F005FC514807F01FFCEB
:100D900077A05023D2223C210090142008F0C5FAFD
:100DA00076A05023D2223C210090FA2008F0BDFA10
:100DB00075A05023D22296210090142008F0B5FA95
:100DC00074A05023D22296210090FA2008F0ADFAA8
:100DD00074A01E23D222F0210090FA2008F0A5FA78
:100DE0004FF6FF71002007F0D5FB71A01E23D22221
:100DF000F0210090142008F098FA56480121C269A9
:100E0000904754484C49086008BD2DE9F0416C4BAF
:100E10001E22D221012006F0A0FD0446694B1E22AD
:100E2000D221022006F099FD0546674B4622D221C9
:100E3000032006F092FD0646644B4622D221042090
:100E400006F08BFD0746624805F05BFB604B2246CF
:100E5000F021FA2004F0E1FF5D4B2A46F021142036
:100E600004F0DBFF5A4B3246AA21142004F0D5FFD0
:100E7000574B3A46AA21FA2004F0CFFFBDE8F08193
:100E800008B554A006F095FFFFF7BFFF002007F05C
:100E900022FC4FF6FF701C235A220C2100901420D4
:100EA00007F0EFFF0E4807F092FB4FF6FF71A3E04B
:100EB00091060008E80100204372656174655F5384
:100EC0007461727453637265656E0D0A00000000F0
:100ED000D400002053455454494E475300000000AD
:100EE000CC0000205449544C4500000030303A30CA
:100EF000303A3031000000004348415520504855F9
:100F00004F4320565500000042414348204B484F74
:100F100041000000302E350043484C4F52494E45A9
:100F2000000000006D672F6C0000000050482D2D60
:100F300000000000704800001C000020A10600080E
:100F4000A3060008B3060008C3060008C50600088B
:100F5000170700088C0200204372656174655F53B7
:100F6000657474696E677353637265656E0D0A000C
:100F7000504152414D4554455253000043414C4964
:100F800042524154494F4E00444F53494E4720541A
:100F90004553540054595045204F462050524F421B
:100FA000450000004C414E47554147455300000065
:100FB0004241434B20544F205354415254000000AF
:100FC000190700082F070008450700085507000803
:100FD000300300204372656174655F446F73696E0E
:100FE000675465737453746172745374617274538B
:100FF000637265656E0D0A00002007F0CBFAAFF250
:101000001C1214210E2007F0F0FC00214FF6FF7097
:1010100007F0C0FAFE4807F0DAFAAFF294024FF494
:10102000AA71142007F0E1FC4FF668606423D22215
:101030003C210090142007F024FF40F2FC40642380
:10104000D2223C210090FA2007F01BFF4FF6686186
:10105000002007F09FFAEF4807F0B9FAEEA26421EA
:10106000782007F0C2FCEA4807F0B1FAEBA21E2193
:10107000462007F0BAFCEBA2A521462007F0B5FCFC
:10108000EAA29B217F2007F0B0FC40F2FC41002047
:1010900007F080FADF4807F09AFADFA24FF4A57153
:1010A000782007F0A2FCDA4807F091FAAFF27C1240
:1010B0004FF48271462007F098FCDDA24FF4C8710E
:1010C000462007F092FCD9A240F281117F2007F060
:1010D0008CFC4FF6FF701E23D222F02100901420CA
:1010E00007F0CFFE4FF6FF701E23D222F0210090B2
:1010F000FA2007F0C6FE4FF6686007F05CFAD223CC
:101100003C22AA21142007F0B9FD40F2FC4007F070
:1011100052FAD2233C22AA21FA2007F0AFFDBC48A4
:1011200007F055FA00214FF6FF7007F033FAAFF2DF
:1011300078103C23D222AA210090142008F0F5F860
:10114000AFF28C103C23D222AA210090FA2008F0A2
:10115000ECF84FF6FF71002007F01CFAB6A01E2332
:10116000D222F0210090FA2008F0DFF8AFF2C01090
:101170001E23D222F0210090142008F0D6F8B048A7
:101180000121C2699047AE48AE49086008BD2DE90B
:10119000F041AD4B1E22D221012006F0DEFB0446B9
:1011A000AA4B1E22D221022006F0D7FB0546A84BEF
:1011B0003C22D221032006F0D0FB0646A54B3C2260
:1011C000D221042006F0C9FB0746A34805F099F98F
:1011D000A14B2246F021FA2004F01FFE9E4B2A4626
:1011E000F021142004F019FE9B4B3246AA21142052
:1011F00004F013FE984B3A46AA21FA2004F00DFEA3
:10120000BDE8F08108B595A006F0D3FDFFF7BFFF5C
:10121000002007F060FA4FF6FF701C235A220C21C1
:101220000090142007F02DFE7A4807F0D0F94FF611
:10123000FF71002007F0AEF9AFF2583214210E20F2
:1012400007F0D3FB00214FF6FF7007F0A3F97048B9
:1012500007F0BDF9AFF2D0224FF4AA71142007F0C5
:10126000C4FB4FF668606423D2223C210090142016
:1012700007F007FE40F2FC406423D2223C2100909C
:10128000FA2007F0FEFD4FF66861002007F082F9B2
:10129000604807F09CF960A26421782007F0A5FB64
:1012A0005B4807F094F95DA21E21462007F09DFBE4
:1012B0005CA2A521462007F098FB5CA29B217F2021
:1012C00007F093FB40F2FC41002007F063F951481E
:1012D00007F07DF950A24FF4A571782007F085FB47
:1012E0004B4807F074F9AFF2B4324FF482714620E4
:1012F00007F07BFB4EA24FF4C871462007F075FB48
:101300004AA240F281117F2007F06FFB4FF6FF7079
:101310001E23D222F0210090142007F0B2FD4FF6D8
:10132000FF701E23D222F0210090FA2007F0A9FDC1
:101330004FF6686007F03FF9D2233C22AA2114201F
:1013400007F09CFC40F2FC4007F035F9D2233C2228
:10135000AA21FA2007F092FC2D4807F038F9002165
:101360004FF6FF7007F016F945A03C23D222AA21C0
:101370000090142007F0D9FFAFF2C4303C23D222F2
:10138000AA210090FA2007F0D0FF4FF6FF7100204D
:1013900007F000F928A01E23D222F0210090FA20A5
:1013A00007F0C3FFAFF2F8301E23D222F0210090E5
:1013B000142007F0BAFF28480121C2699047264847
:1013C0002049086008BD2DE9F0412F4B1E22D22193
:1013D000012006F0C2FA04462C4B1E22D221022024
:1013E00006F0BBFA05462A4B3C22D221032006F028
:1013F000B4FA0646274B3C22D221042006F0ADFA6F
:101400000746254805F07DF8234B2246F02145E0AC
:10141000D4000020CC00002031353000444953492D
:101420004E462E003430306D6C0000006D6C0000B4
:101430003230306D6C0000004241434B0000000030
:10144000300300201C000020650700087B0700080F
:1014500091070008A1070008D403002043726561CA
:1014600074655F446F73696E675465737453746F0A
:1014700070537461727453637265656E0D0A000077
:1014800053544F5000000000B1070008C707000880
:10149000DD070008ED07000878040020FA2004F0BA
:1014A000BCFCFE4B2A46F021142004F0B6FCFB4B9A
:1014B0003246AA21142004F0B0FCF84B3A46AA2187
:1014C000FA2004F0AAFCBDE8F08108B5F4A006F00B
:1014D00070FCFFF778FF002007F0FDF84FF6FF7073
:1014E0001C235A220C210090142007F0CAFCF54856
:1014F00007F06DF84FF6FF71002007F04BF8AFF2E0
:101500001C6214210E2007F070FA00214FF6FF70C4
:1015100007F040F8EC4807F05AF8AFF294524FF455
:10152000AA71142007F061FA4FF668606423D22292
:101530003C210090142007F0A4FC40F2FC406423FE
:10154000D2223C210090FA2007F09BFC4FF6686104
:10155000002007F01FF8DB4807F039F8AFF2481217
:101560006421782007F041FAD74807F030F8AFF24D
:1015700054121E21462007F038FAAFF25812A52166
:10158000462007F032FAAFF25C129B217F2007F071
:101590002CFA40F2FC41002006F0FCFFC94807F09D
:1015A00016F8AFF28C124FF4A571782007F01DFAEF
:1015B000C54807F00CF8AFF284624FF48271462000
:1015C00007F013FAAFF298124FF4C871462007F0F3
:1015D0000CFAAFF2A81240F281117F2007F005FA51
:1015E0004FF6FF701E23D222F0210090142007F046
:1015F00048FC4FF6FF701E23D222F0210090FA2003
:1016000007F03FFC4FF6686006F0D5FFD2233C227E
:10161000AA21142007F032FB40F2FC4006F0CBFF79
:10162000D2233C22AA21FA2007F028FBA64806F084
:10163000CEFF00214FF6FF7006F0ACFFAFF2C010F6
:101640003C23D222AA210090142007F06EFEAFF2B4
:10165000D0103C23D222AA210090FA2007F065FE88
:101660004FF6FF71002006F095FFAFF234201E23E5
:10167000D222F0210090FA2007F057FEAFF2D0609E
:101680001E23D222F0210090142007F04EFE834842
:101690000121C269904781488C49086008BD2DE945
:1016A000F0418B4B1E22D221012006F056F9044650
:1016B000884B1E22D221022006F04FF90546864BA8
:1016C0003C22D221032006F048F90646834B3C22F7
:1016D000D221042006F041F90746814804F011FFA9
:1016E0007F4B2246F021FA2004F097FB7C4B2A46E0
:1016F000F021142004F091FB794B3246AA211420EA
:1017000004F08BFB764B3A46AA21FA2004F085FBC5
:10171000BDE8F08108B573A006F04BFBFFF7BFFFF3
:10172000002006F0D8FF4FF6FF701C235A220C2130
:101730000090142007F0A5FB624806F048FF4FF622
:10174000FF71002006F026FFAFF6680214210E207C
:1017500007F04BF900214FF6FF7006F01BFF5A48C7
:1017600006F035FFAFF2E0724FF4AA71142007F0D3
:101770003CF94FF668606423D2223C21009014208B
:1017800007F07FFB40F2FC406423D2223C21009012
:10179000FA2007F076FB4FF66861002006F0FAFEAB
:1017A000484806F014FFAFF290326421782007F029
:1017B0001CF9454806F00BFFAFF2A0321E2146206F
:1017C00007F013F9AFF2A432A521462007F00DF976
:1017D000AFF2A8329B217F2007F007F940F2FC41CD
:1017E000002006F0D7FE374806F0F1FEAFF2D832FF
:1017F0004FF4A571782007F0F8F8334806F0E7FEBB
:10180000AFF6D0024FF48271462007F0EEF8AFF247
:10181000E0324FF4C871462007F0E7F8AFF2F43237
:1018200040F281117F2007F0E0F84FF6FF701E2391
:10183000D222F0210090142007F023FB4FF6FF7016
:101840001E23D222F0210090FA2007F01AFB4FF657
:10185000686006F0B0FED2233C22AA21142007F0D3
:101860000DFA40F2FC4006F0A6FED2233C22AA214B
:10187000FA2007F003FA144806F0A9FE00214FF6FB
:10188000FF7006F087FEAFF6D0003C23D222AA21DB
:101890000090142007F049FD36E000007804002095
:1018A0004372656174655F446F73696E67546573F5
:1018B0007453746F7053746F7053637265656E0DFB
:1018C0000A000000CC000020D40000201C000020F2
:1018D000FD07000813080008290800083908000857
:1018E0001C0500204372656174655F446F73696E07
:1018F0006754657374537461727453746F70536377
:101900007265656E0D0A0000AFF28C403C23D22256
:10191000AA210090FA2007F008FD4FF6FF71002081
:1019200006F038FEAFF2F0401E23D222F0210090E4
:10193000FA2007F0FAFCAFF688101E23D222F0211D
:101940000090142007F0F1FCFE480121C269904785
:10195000FC48FD49086008BD2DE9F041FB4B1E2203
:10196000D221012005F0F9FF0446F94B1E22D221B5
:10197000022005F0F2FF0546F64B5022D22103204B
:1019800005F0EBFF0646F44B5022D221042005F06F
:10199000E4FF0746F14804F0B4FDF04B2246F02185
:1019A000FA2004F03AFAED4B2A46F021142004F014
:1019B00034FAEA4B32463C21142004F02EFAE74B6D
:1019C0003A463C21FA2004F028FABDE8F08108B537
:1019D000E3A006F0EEF9FFF7BFFF002006F07BFE64
:1019E0004FF6FF701C235A220C210090142007F0A0
:1019F00048FAE24806F0EBFD4FF6FF71002006F0D2
:101A0000C9FDAFF6203214210E2006F0EEFF0021B2
:101A10004FF6FF7006F0BEFDD94806F0D8FDAFF6D0
:101A2000B02240F26311142006F0DFFFD2235022CF
:101A30003C21142007F022F9D22350223C21FA2025
:101A400007F01CF94FF668605023D22296210090CF
:101A5000142007F016FA40F2FC405023D2229621BF
:101A60000090FA2007F00DFA00214FF6FF7006F003
:101A700091FD4FF66861002006F08CFDC1A0502357
:101A8000D22296210090142007F04FFC40F2FC4136
:101A9000002006F07FFDAFF664305023D22296215D
:101AA0000090FA2007F041FC4FF6FF701E23D2226F
:101AB000F0210090142007F0E4F94FF6FF701E2388
:101AC000D222F0210090FA2007F0DBF9AC4806F0B2
:101AD0007EFD00214FF6FF7006F05CFDADA05023A7
:101AE000D2223C210090142007F01FFCABA0502311
:101AF000D2223C210090FA2007F017FC4FF6FF712C
:101B0000002006F047FDAFF2D0601E23D222F02164
:101B10000090FA2007F009FCAFF66C301E23D222A9
:101B2000F0210090142007F000FC4FF6FF71002018
:101B300006F030FD89480121C269904787488249F3
:101B4000086008BD2DE9F047964B1E22D2210120E6
:101B500005F003FF0446944B1E22D221022005F01B
:101B6000FCFE0546914B3C226421032005F0F5FE66
:101B700006468F4B3C226421042005F0EEFE07460A
:101B80008C4B3C22D221052005F0E7FE80468A4B93
:101B90006422D221062005F0E0FE8146874804F049
:101BA000B0FC864B2246F021FA2004F036F9834B34
:101BB0002A46F021142004F030F9804B3246AA2145
:101BC000142004F02AF97D4B3A46AA21822004F021
:101BD00024F97A4B4246AA21FA2004F01EF9774BE9
:101BE0004A463C21FA2004F018F9BDE8F08708B510
:101BF00073A006F0DEF8FFF7A5FF002006F06BFDEE
:101C00004FF6FF701C235A220C210090142007F07D
:101C100038F95A4806F0DBFC4FF6FF71002006F059
:101C2000B9FCAFF6405214210E2006F0DEFE002172
:101C30004FF6FF7006F0AEFC514806F0C8FC68A2F3
:101C40004FF49171142006F0D0FE4FF2434064230C
:101C5000D2223C210090142007F013F945F2AA206B
:101C60006423D2223C210090FA2007F00AF94FF2B7
:101C700043414FF6FF7006F08DFC404806F0A7FC8C
:101C80005BA26421782006F0B0FE3D4806F09FFC80
:101C900058A21E21462006F0A8FE59A29B217F20B3
:101CA00006F0A3FE45F2AA214FF6FF7006F072FC83
:101CB000324806F08CFC53A24FF4A571782006F050
:101CC00094FE2F4806F083FC4FA2FF21462006F029
:101CD0008CFE52A240F281117F2006F086FE4FF664
:101CE000FF701E23D222F0210090142007F0C9F8C3
:101CF0004FF6FF701E23D222F0210090FA2007F049
:101D0000C0F84FF6FF7006F056FC64233C22AA216F
:101D1000142006F0B3FF64233C22AA21822006F09F
:101D2000ADFFD2233C22AA21FA2006F0A7FF1348D8
:101D300006F04DFC00214FF6FF7006F02BFC38A09A
:101D40003C236FE01C0500201C000020490800080F
:101D5000590800086908000879080008C005002033
:101D60004372656174655F506172616D657465721F
:101D70007353637265656E0D0A000000CC0000208D
:101D8000D4000020444953494E46454354494F4EE0
:101D900000000000504F4F4C0000000057415445D8
:101DA000520000008908000899080008A9080008E6
:101DB000AB080008AD080008AF0800086406002062
:101DC0004372656174655F506172616D65746572BF
:101DD00073566F6C756D6553637265656E0D0A00A1
:101DE000504F4F4C20504152414D455445525300A5
:101DF00031350000504F4F4C20564F4C554D45004B
:101E00006D3300003036000046494C54524154496D
:101E10004F4E20504552494F4400000068000000DA
:101E20002B0000006422AA210090142007F07DFA04
:101E3000FEA03C236422AA210090822007F075FABC
:101E4000FB4806F0C4FBFBA03C23D222AA21009051
:101E5000FA2007F06AFA4FF6FF71002006F09AFBAD
:101E6000AFF62C201E23D222F0210090FA2007F09A
:101E70005CFAAFF6C4601E23D222F0210090142039
:101E800007F053FA4FF6FF71002006F083FBEA4893
:101E90000121C2699047E848E849086008BD2DE97A
:101EA000F047E74B1E22D221012005F056FD0446E3
:101EB000E44B1E22D221022005F04FFD0546E24BE5
:101EC0003C226421032005F048FD0646DF4B3C22FE
:101ED0006421042005F041FD0746DD4B3C22D22160
:101EE000052005F03AFD8046DA4B6422D221062017
:101EF00005F033FD8146D84804F003FBD64B22465B
:101F0000F021FA2003F089FFD34B2A46F021142058
:101F100003F083FFD04B3246AA21142003F07DFF4B
:101F2000CD4B3A46AA21822003F077FFCA4B4246A6
:101F3000AA21FA2003F071FFC74B4A463C21142026
:101F400003F06BFFBDE8F08708B5C4A005F031FFD2
:101F5000FFF7A5FF002006F0BEFB4FF6FF701C2325
:101F60005A220C210090142006F08BFFC64806F080
:101F70002EFB4FF6FF71002006F00CFBC34A142124
:101F80000E2006F032FD00214FF6FF7006F002FB36
:101F9000A74806F01CFBAFF2B8124FF49171142061
:101FA00006F023FD45F2AA206423D2223C210090B2
:101FB000142006F066FF4FF243406423D2223C21F6
:101FC0000090FA2006F05DFF45F2AA214FF6FF705F
:101FD00006F0E0FAAC4806F0FAFAAFF2EC1264212F
:101FE000782006F002FD924806F0F1FAAFF2FC12FA
:101FF0001E21462006F0F9FCAFF2FC129B217F2047
:1020000006F0F3FC4FF243414FF6FF7006F0C2FAC0
:102010009D4806F0DCFAAFF214224FF4A571782047
:1020200006F0E3FC824806F0D2FAAFF22422FF2148
:10203000462006F0DAFCAFF21C2240F281117F202C
:1020400006F0D3FC4FF6FF701E23D222F021009041
:10205000142006F016FF4FF6FF701E23D222F02147
:102060000090FA2006F00DFF4FF6FF7006F0A3FA7D
:1020700064233C22AA21142006F000FE64233C22A3
:10208000AA21822006F0FAFDD2233C22AA21FA20BE
:1020900006F0F4FD7C4806F09AFA00214FF6FF7036
:1020A00006F078FAAFF288203C236422AA2100903F
:1020B000142007F03AF95DA03C236422AA21009085
:1020C000822007F032F95A4806F081FA59A03C23E1
:1020D000D222AA210090FA2007F027F94FF6FF71CB
:1020E000002006F057FAAFF6B0401E23D222F021AE
:1020F0000090FA2007F019F96448CC301E23D22250
:10210000F0210090142007F010F94FF6FF71002025
:1021100006F040FA50480121C26990474E484749AD
:10212000086008BD2DE9F04F87B0012001F0B2F939
:102130000446022001F0AEF90546032001F0AAF999
:102140000646534B1E22D221042005F006FC07460A
:10215000504B1E22D221052005F0FFFB80464E4A3F
:1021600048A120462369984781464C4A45A120460C
:102170002369984782464A4A42A1204623699847E4
:102180008346484A3FA128462B6998470690464A0D
:102190003CA128462B6998470590444A39A1284616
:1021A0002B6998470490424A36A1304633699847D4
:1021B0000390404A33A130463369984702903E4A23
:1021C00030A130463369984701903C4804F099F9B2
:1021D0003A4B3A46F021FA2003F01FFE374B4246B5
:1021E000F021142003F019FE344B4A4655214FF4D8
:1021F000877003F012FE314B52465521880003F0E0
:102200000CFE2E4B5A4655214FF4CD7003F005FEBF
:102210002A4B8C214FF48770069A03F0FEFD274B62
:102220008C214FF4AA70059A4AE000002D000000AE
:10223000D40000204F4B0000640600201C0000204A
:10224000BF080008CF080008DF080008E108000800
:10225000E3080008E50800080807002043726561EC
:1022600074655F506172616D6574657273466974FF
:10227000726174696F6E506572696F6453637265E1
:10228000656E0D0A00000000CC000020E40E00087E
:10229000F508000805090008150900081F090008CD
:1022A00029090008330900083D090008470900080A
:1022B000510900085B09000865090008AC07002007
:1022C00003F0ABFD7A4B8C214FF4CD70049A03F0F0
:1022D000A4FD774BCD214FF48770039A03F09DFD49
:1022E000734BCD214FF4AA70029A03F096FD704B08
:1022F000CD214800019A03F090FD07B0BDE8F08FB2
:1023000008B56CA005F055FDFFF70CFF002006F0A6
:10231000E2F94FF6FF701C235A220C210090142082
:1023200006F0AFFD6B4806F052F94FF6FF71002042
:1023300006F030F9684A14210E2006F056FB002101
:102340004FF6FF7006F026F9644806F040F964A2E3
:102350004FF48C71142006F048FB664806F037F9FC
:10236000AFF2D0521E21372006F03FFB62A21E21A1
:10237000782006F03AFBAFF2DC521E21872006F0EF
:1023800034FB5FA21E21962006F02FFBAFF2F45221
:102390001E21B92006F029FB5CA21E21C82006F0F0
:1023A00024FB5D4806F013F95CA2FF21372006F0FC
:1023B0001CFB5CA24FF4A071372006F016FB5BA259
:1023C000FF21782006F011FB5AA24FF4A07178206B
:1023D00006F00BFB59A240F28B11782006F005FBAA
:1023E00058A240F20911B92006F0FFFA57A240F2B4
:1023F0004F11B92006F0F9FA56A240F28111B92026
:1024000006F0F3FA4FF4784006F0D5F854A24FF4F2
:10241000C371372006F0E9FA53A240F28111462039
:1024200006F0E3FA4FF6FF701E23D222F02100904F
:10243000142006F026FD4FF6FF701E23D222F02155
:102440000090FA2006F01DFD4FF6FF71002006F007
:10245000A1F848481E23D222F0210090FA2006F06D
:1024600064FF1D48CC301E23D222F021009014209E
:1024700006F05BFF4FF6FF71002006F08BF80C486A
:102480000121C26990470A483B49086008BD3B48A2
:10249000008820B139480088401E384908807047BC
:1024A0003649088000BF354909880029FBD17047AB
:1024B000AC0700204372656174655F506172616DA5
:1024C0006574657273576174657253637265656E86
:1024D0000D0A0000CC000020E40E0008D40000200B
:1024E000574154455220504152414D455445525355
:1024F00000000000F40000204156455241474500CD
:1025000054454D504552415455524500484152445E
:102510004E45535300000000E4000020696E646FD4
:102520006F7200006F7574646F6F72003C20323000
:102530006F43000032302D33306F43003E20333084
:102540006F430000736F667400000000686172647E
:1025500000000000766572792068617264000000F6
:1025600065787472656D6500636F6E646974696F18
:102570006E000000381400081C0000201800002025
:1025800001B5BDF80000F64908800846008806F04D
:1025900012F808BD01B5BDF80000F24908800846F0
:1025A000008806F00EF808BD10B50446204606F077
:1025B00092F810BD2DE9F04105460E4614469846A6
:1025C000E74807882046FFF7DBFF3146284605F03D
:1025D00093FF3846FFF7D4FFBDE8F0812DE9F047BF
:1025E00006468846174600240025A146A246B14665
:1025F000C24600BF2EE0002522E0DB48007828B963
:1026000037F814000121A940084048B1D6480078A5
:1026100001280AD137F8140080212941084020B947
:1026200009F101001FFA80F909E04846421C1FFA2F
:1026300082F90823CA490A885146FFF7BBFF6D1C7F
:10264000CA4800788542D8D30AF101001FFA80FAFF
:10265000B146641CC64800788442CCD3BDE8F087FC
:102660002DE9F84F06468846174600240025A24665
:10267000A14600200090B246C14600BF30E00025D0
:1026800024E0B948007828B937F814000121A9409E
:10269000084048B1B4480078012809D137F814003F
:1026A00080212941084018B9AE480088009002E016
:1026B000AB48008800905046421C1FFA82FA022361
:1026C000BDF800204946FFF775FF6D1CA74800784C
:1026D0008542D6D309F101001FFA80F9B246641C85
:1026E000A34800788442CAD3BDE8F88F2DE9F041B1
:1026F00007460D4614461E46A4F12000C4B29A486F
:10270000007810B1012834D119E0012E0BD199487D
:10271000016897480078604301EB4002394628463B
:10272000FFF75CFF0AE093490B6891490978614320
:1027300003EB4102E8B23946FFF792FF1AE0012E9F
:102740000BD18D4801688A480078604301EB400254
:1027500039462846FFF742FF0AE087490B6884495B
:102760000978614303EB4102E8B23946FFF778FF8D
:1027700000E000BF00BFBDE8F0812DE9F04707464B
:102780000D461446984600267C480088411B774831
:102790000078401E91FBF0F90BE022784346294671
:1027A0003846FFF7A3FF71480078284485B2641CBF
:1027B000761C207808B1012000E000204E4501D2AF
:1027C000012100E0002108400028E6D1BDE8F087A3
:1027D0002DE9F04104460D4616461F46A21B521C29
:1027E00091B2EA1B521C90B223462A4605F067FEBE
:1027F000BDE8F0812DE9F04104460D4616461F461E
:102800003B4632462946204606F001FABDE8F081F3
:102810002DE9F04106460F4614461D4623462A463A
:102820003946304606F02AFABDE8F08170B5044614
:102830000D46164632462946204606F040FA70BD3F
:10284000002202600A7802604B78026802EB0322E1
:1028500002608B78026802EB03420260CB78026868
:1028600002EB0362026070477CB5044600200190D1
:102870000090A11C6846FFF7E3FF04F10A0101A8DC
:10288000FFF7DEFF36200107088088204FF0C241A5
:1028900008802C20C10608800DE00198205C019979
:1028A0002144497800EB012085B24FF0C2400580F9
:1028B0000198801C0190DDE900108842EDD336209C
:1028C0000107088008204FF0C24108807CBD10B588
:1028D00004462548047014B1012C14D109E01020DD
:1028E00022490870182022490870254805F06FFE1B
:1028F0000AE008201D4908700C201D490870214875
:1029000005F065FE00E000BF00BF10BD10B5044635
:102910001CB9032008F0C5FC04E0012C02D10320FF
:1029200008F0B7FC10BD10B505F0BEFD10BD10B528
:1029300040F20F1340F2DF120021084605F0BFFD00
:1029400010BD2DE9F04104460D4600260027B04693
:102950002946204605F0E4FD06463046BDE8F081F4
:102960002A0000202C000020200000202100002050
:10297000220000204C0000206400002026000020DF
:10298000CC000020E4000020D1490870097839B952
:1029900036210A07118008214FF0C242118022E03F
:1029A000CB490978012907D136210A07118068210E
:1029B0004FF0C242118016E0C5490978022907D1BB
:1029C00036210A071180C8214FF0C24211800AE067
:1029D000BF490978032906D136210A071180A821A9
:1029E0004FF0C242118070472DE9F04704460D4672
:1029F000904600260027B146B246B548007818B187
:102A0000B348007802280FD1A146B2480078284484
:102A1000401E83B2B04800782044401E82B229464E
:102A2000204605F04CFD16E0A9480078012803D0A7
:102A3000A748007803280ED1AA46A7480078284462
:102A4000401E83B2A34800782044401E82B229462B
:102A5000204605F034FD2C20C1060880002625E024
:102A600000271EE09D48007828B938F8160001219B
:102A7000B940084048B19948007801280BD138F88E
:102A8000161080203841014029B9954800884FF040
:102A9000C241088004E0934800884FF0C24108809A
:102AA0007F1C8D4800788742DCD3761C89480078EB
:102AB0008642D5D3BDE8F08770B505460E4614466C
:102AC000A4F12000C4B28548007810B1012818D1C3
:102AD0000BE0854801687F480078604301EB4002C5
:102AE00029463046FFF780FF0CE0804801687948AE
:102AF0000078604301EB400229463046FFF774FF3F
:102B000000E000BF00BF70BD2DE9F04707460E464C
:102B100014464FF000080025A946754807806C4808
:102B2000007848B9734800886B49097890FBF1F048
:102B300000F0FF09354632E06548007801280BD1E6
:102B40006D4800886449097890FBF1F000F0FF09B6
:102B50003D466748068022E05D48007802280CD197
:102B6000644800885C49097890FBF1F000F0FF09A7
:102B700059480078301A85B211E05548007803288A
:102B80000DD15D4800885449097890FBF1F000F0C0
:102B9000FF0951480078381A85B2554806803CE054
:102BA0004B48007850B92278294651480088FFF7F1
:102BB00083FF49480078284485B22BE044480078D8
:102BC00001280AD122784A4801882846FFF774FF75
:102BD00041480078284485B21CE03D48007802282E
:102BE0000AD12278294642480088FFF765FF3A4813
:102BF0000078281A85B20DE035480078032809D1FD
:102C000022783B4801882846FFF756FF3248007873
:102C1000281A85B2641C08F10108207808B1012047
:102C200000E00020C84501D2012100E00021084059
:102C30000028B5D1BDE8F08710B5029C10BD2DE984
:102C4000FC4704460D4616461F46DDF82880002046
:102C5000019000908146A11C6846FFF7F1FD04F148
:102C60000A0101A8FFF7ECFDF019401E83B205EB45
:102C70000800401E82B231462846FFF7A9FD3620E3
:102C80000107088088204FF0C24108802C20C1062F
:102C900008800FE00198205C01992144497800EBFD
:102CA00001201FFA80F94FF0C240A0F8009001986F
:102CB000801C0190DDE900108842EBD3362001072B
:102CC000088008204FF0C2410880BDE8FC87000062
:102CD00028000020220000202100002020000020E9
:102CE0002C0000202A0000204C000020640000205E
:102CF0002E00002026000020240000202DE9F74FA0
:102D000082B0834691460025002001909E480068CD
:102D1000D0F8008009F00100002830D09A480068FF
:102D20000068C71C98480068D0F80CA000BF22E0DB
:102D30000026002419E01EB9387801907F1C8026F7
:102D40000198304070B13AF8022B8F4B1B68DB883A
:102D50002B4499B28C4B1B689B88234498B2082360
:102D6000FFF728FC7610601CC4B298F80000A0425F
:102D7000E1DC681CC5B298F80100A842D8DC09F073
:102D8000020000282DD0804800680068C71C7E48DB
:102D90000068D0F80CA000251FE00026002416E0F3
:102DA0001EB9387801907F1C80260198304058B1B8
:102DB000039A2A4491B20BEB040290B2FFF7C1FDD3
:102DC000AAF800000AF1020A7610601CC4B298F852
:102DD0000000A042E4DC681CC5B298F80100A842DB
:102DE000DBDC09F0040010B9B9F1080F29D16648FD
:102DF00000680068C71C00251FE00026002416E0BC
:102E00001EB9387801907F1C80260198304058B157
:102E10005D4B1B681A8A039B2B4499B20BEB04038E
:102E200098B20823FFF7C6FB7610601CC4B298F86E
:102E30000000A042E4DC681CC5B298F80100A8427A
:102E4000DBDC51480068A0F804B04F4903980968DA
:102E5000C88005B0BDE8F08F70B504460D4601226C
:102E600029462046FFF74AFF062229462046FFF75B
:102E700045FF70BD70B5064643480068C4884248A7
:102E800000688588012E06D0022E32D0032E1DD078
:102E9000042E36D107E0042C01DB042000E020469C
:102EA000201A84B22EE039480088001B384949783E
:102EB000401A042801DB042005E034480088001B88
:102EC00033494978401A204484B21BE031480088D5
:102ED000401B2F490978401A042801DB042005E033
:102EE0002C480088401B2A490978401A284485B29A
:102EF00008E0042D01DB042000E02846281A85B2F2
:102F000000E000BF00BF21462846FFF7A5FF0320D1
:102F100004F0EEF970BD10B5044614200EF0B2F8BE
:102F2000194908600846006808B9002010BD184912
:102F30000978174A527811FB02F148000EF0A2F806
:102F400011490968C86010480068C06808B90020C5
:102F5000ECE70CB90E4800E020460B490968086010
:102F60000020094909680882202007490968087279
:102F70000120DBE770B504460D46062229462046AF
:102F8000FFF7BCFE70BD00003000002026000020CE
:102F900034000020240000202DE9F04104460D46B5
:102FA00016461F46601B82B2002339462846FFF7AB
:102FB00021FC601B82B2002331462846FFF71AFC31
:102FC000F01B82B2012339462846FFF713FCF11BA0
:102FD0008AB2611E88B201233946FFF70BFCBDE8B7
:102FE000F0812DE9F04707460C4690461D46DDF876
:102FF000209000262B46424621463846FFF7CCFF5C
:103000004846FFF7BDFA01260AE03B1B9B1E9AB219
:10301000AB1999B2631C98B20023FFF7EBFB761C47
:10302000A8EB0500B042F0D8BDE8F0872DE9F041EB
:1030300005460E461446984602272A1B91B2321BBB
:10304000D0B22246FFF7F2FB631E9AB22B1B99B255
:10305000331BD8B2FFF7EAFB4046FFF791FA08E0CE
:10306000E31B9AB22B1B99B2331BD8B2FFF7DEFBDE
:103070007F1CA742F4D3BDE8F0812DE9F04F85B065
:1030800004460D4617461E460020049080468146A1
:1030900082460390029083460190B54208D1BC421B
:1030A00006D10823214628460E9AFFF783FAA1E0AD
:1030B000BC4221D1B54202DDB0462E464546012331
:1030C000214628460E9AFFF775FA681C1FFA80F908
:1030D00009E00223214628460E9AFFF76BFA09F110
:1030E00001001FFA80F9B145F3DB04232146304685
:1030F0000E9AFFF75FFA7DE0B54219D1BC4202DDBE
:10310000B846274644460E98A5F1020C0CF0FF0382
:10311000A6F1010C0CF0FF02A4F1010C1FFA8CF1D6
:10312000A7F1010C00901FFA8CF0FFF75AFF61E045
:10313000BC4201DDE01B00E0381BB54201DDA91BEC
:1031400000E0711B884201DD012000E000200490B6
:10315000049828B1A0462C464546B8463746464610
:10316000B54205DDA0463C464746B0462E4645469C
:10317000701B80B20390BC4201DDE01B00E0381BF5
:1031800080B202900399491C484200EBD07149106B
:103190000FFA81FBA246BC4202DA0120019002E054
:1031A0004FF0FF300190A94622E0049830B1082387
:1031B000494650460E9AFFF7FDF905E008235146AF
:1031C00048460E9AFFF7F6F9029858440FFA80FB2A
:1031D000BBF1000F08DB019850441FFA80FA0398F6
:1031E000ABEB00000FFA80FB09F101001FFA80F938
:1031F000B145DADD05B0BDE8F08F70B504460D4687
:10320000A4F11E0188B200233C222946FFF7F2FAFE
:10321000A5F11E0081B201233C222046FFF7EAFA05
:1032200070BD2DE9F04104460E4615461F46DDF8F7
:103230001880A01B83B2E81B82B221462846FFF704
:10324000C7FA4046FFF710FBFE4A1288521E91B2A1
:10325000FD4A1288521E90B2FA4A1388FA4A12881E
:10326000FFF7B6FABDE8F0812DE9F04104460F46BC
:103270001546002638460EF0A6F8691E884203D28D
:1032800038460EF0A0F800E0681E06463EB1324611
:10329000394620460EF04CF90020A05501E00020F0
:1032A0002070BDE8F081014609B900207047012077
:1032B00081F8310000BFF9E72DE9FF410646884655
:1032C00017460024002536200DF0DCFE0446F4B13C
:1032D00026802E224146A01CFFF7C6FF9DF80C0059
:1032E00084F83000BDF82800608684F834702046E9
:1032F000FFF7D9FF18200DF0C5FE05461DB16C6023
:103300000420287403E020460DF0EBFE002428463C
:1033100004B0BDE8F081014609B9002070470020E3
:1033200008770120487700BFF8E72DE9F04106460D
:10333000884617460025002424200DF0A3FE0446ED
:10334000DCB12680C148A060C148606010224146BF
:1033500004F10C00FFF788FF27622046FFF7DBFF30
:1033600018200DF08FFE05461DB16C6001202874F9
:1033700003E020460DF0B5FE00242846BDE8F081AC
:10338000014609B900207047002081F8250001207E
:1033900081F8260000BFF6E72DE9F0410646884691
:1033A0001746002400252C200DF06CFE0446DCB1ED
:1033B00026801922414604F10C00FFF755FFA5486D
:1033C000A060A5486060A7622046FFF7D9FF1820DB
:1033D0000DF058FE05461DB16C600320287403E013
:1033E00020460DF07EFE00242846BDE8F08101460F
:1033F00009B90020704701204876984848609848ED
:103400008860002008760120F4E72DE9F0410446A9
:10341000884617460025002614B16088032802D18B
:103420000020BDE8F08120200DF02CFE0546FDB106
:103430002C600C22414605F10C00FFF715FFEF61EF
:1034400018200DF01FFE06469EB1756002203074F4
:103450002846FFF7CCFF6188201D40F82160608876
:10346000401C60806088012807D16168496808763F
:1034700003E028460DF035FE00253046D1E7014631
:1034800009B90020704700204880AFF28100086130
:103490000120F7E770B50546002414200DF0F2FD79
:1034A00004461CB125802046FFF7E9FF204670BD89
:1034B000014609B9002070474FF6FF7008801020C0
:1034C0004880002008760120F5E72DE9F041044608
:1034D0000F461646002514B1A08A0A2802D1002002
:1034E000BDE8F08120200DF0CDFD0546BDB16C603A
:1034F0001022394605F10800FFF7B6FEEE612846B6
:10350000FFF7D6FFA18A04F1180040F82150A08AE5
:10351000401CA082A08A012801D1A169087601205F
:10352000DEE7014609B9002070474E4848604E4822
:10353000086001208874002008728882AFF275004C
:1035400008640120F0E770B50646002400254420F9
:103550000DF098FD044684B126822046FFF7E1FF76
:1035600018200DF08FFD05461DB16C6007202874F2
:1035700003E020460DF0B5FD0024284670BD01464D
:1035800009B900207047002081F82C00012081F843
:103590002D0000BFF6E72DE9F0470646894617469D
:1035A00098460024002534200DF06CFD044614B329
:1035B00026802E48A0602E4860601022494604F103
:1035C0000C00FFF751FE1022394604F11C00FFF7F2
:1035D0004BFEC4F830802046FFF7D1FF18200DF0D5
:1035E00051FD05461DB16C600520287403E020469E
:1035F0000DF077FD00242846BDE8F087014609B9A3
:10360000002070470020C8720120087300BFF8E74F
:103610002DE9F04706460F4690469946DDF820A072
:103620000024002514200DF02DFD04464CB1268009
:103630006760A4F8088084F80A90C4F810A02046B7
:1036400018E026E02600002024000020A8C201087F
:103650004EC80108F8A701085AAB010834A10108B7
:1036600096A40108BCAE0108C6B20108F4CD010859
:103670009AD30108FFF7C2FF18200DF003FD05469D
:103680001DB16C600620287403E020460DF029FD72
:1036900000242846BDE8F08710B504460CB9002088
:1036A00010BD012084F82800FE49896848000DF00B
:1036B000E9FC60620120F3E72DE9F0470646894600
:1036C000174698460024002530200DF0DBFC044608
:1036D0002CB32680F4486060F448A060102249466C
:1036E00004F10C00FFF7C0FD04F81C7F122060708D
:1036F0007620A07064202071E0700020607164204A
:10370000A071C4F810801C3C2046FFF7C5FF1820AC
:103710000DF0B8FC05461DB16C600820287403E06C
:1037200020460DF0DEFC00242846BDE8F087014667
:1037300009B900207047012081F8750000BFF9E742
:103740002DE9F04707468A4690469946089E00258F
:10375000002476200DF096FC0446002C32D0002088
:1037600084F87400278007225146A01CFFF77CFDD7
:103770000722414604F10900FFF776FD322E09DDEC
:103780006422494604F110000DF03CFE322084F81A
:10379000740007E07200494604F110000DF032FE9B
:1037A00084F874602046FFF7C2FF18200DF06AFC11
:1037B00005461DB16C600920287403E020460DF019
:1037C00090FC00242846BDE8F087014609B9002096
:1037D0007047012081F8DA0000BFF9E72DE9F05FBA
:1037E00007468A4690469946DDE90A6B0025002483
:1037F000DC200DF047FC0446002C34D0002084F877
:10380000D800278007225146A01CFFF72DFD072274
:10381000414604F10900FFF727FD642E09DDC822A7
:10382000494604F110000DF0EDFD642084F8D80045
:1038300007E07200494604F110000DF0E3FD84F842
:10384000D86084F8D9B02046FFF7BFFF18200DF0EC
:1038500019FC05461DB16C600A20287403E020465F
:103860000DF03FFC00242846BDE8F09F70B50546EA
:103870006C680CB9002070BD8DA004F09AFA01208C
:10388000E07195A004F095FA0020FFF720F89EA0C3
:1038900004F08FFA4FF6FF70FEF77CFEA7A004F04D
:1038A00088FA1020FEF76CFEB0A004F082FA012026
:1038B000E1E707B5AAB0002028904FF400401F9020
:1038C0009FEDB60B8DED140B2A9840680F900F9862
:1038D00010B900202DB000BD01210F9880F8DA103A
:1038E0009FEDAE0B8DED160BAE48008835380E906F
:1038F0000FF0BBF9CDE91201AB4800883F380E90BC
:103900000FF0B3F9CDE91C019FEDA80B53EC102B80
:103910009DED120B51EC100B0EF06EFFCDE9220164
:103920009DED1C0B8DED200B9E48008848380E90B5
:103930000FF09BF9CDE924019B48008851380E9087
:103940000FF093F9CDE926010F9890F8D8000B906D
:103950000FF0A2F9CDE90C019DED0C0B53EC102BEF
:103960009DED240B51EC100B0EF0FAFFCDE9180180
:103970009FED900B53EC102B9DED260B51EC100B93
:103980000EF0EEFFCDE91A010020FEF7F9FD01204F
:10399000FEF79DFF9FED890B53EC102B9DED240B43
:1039A00051EC100B0EF028FFCDE90A019DED0A0B3A
:1039B00051EC100B0FF02CF980B20E909DED120B14
:1039C00051EC100B0FF024F980B20D909DED1C0B03
:1039D00051EC100B0FF01CF980B200230C90DDE9C4
:1039E0000D12FEF707FF9DED260B51EC100B0FF0AB
:1039F0000FF980B20E909DED120B51EC100B0FF0F1
:103A000007F980B20D909DED260B53EC102B9DED28
:103A10001C0B51EC100B0FF0CFFACDE90A019DED14
:103A20000A0B51EC100B0FF0F3F880B201230C904D
:103A3000DDE90D12FEF7DEFE9FED620B53EC102B5D
:103A40009DED120B51EC100B0EF0D6FECDE90A01E4
:103A50009DED0A0B51EC100B0FF0DAF880B29FEDE0
:103A60005B0B53EC102B0E909DED1C0B51EC100BCF
:103A70000EF0C2FECDE90A019DED0A0B51EC100BD0
:103A80000FF0C6F880B2012352A20D900E99FEF7F6
:103A900074FE9FED510B53EC102B9DED220B51EC5E
:103AA000100B9DE07C000020F2D7010820D7010810
:103AB000696E205365744E657752656374436F6E0B
:103AC00074726F6C56697369626C65204E657772AB
:103AD0006563740D0A000000696E205365744E65BD
:103AE0007752656374436F6E74726F6C5669736955
:103AF000626C6520474C5F54525545204E65777285
:103B00006563740D0A000000696E205365744E658C
:103B10007752656374436F6E74726F6C5669736924
:103B2000626C6520474C5F464F4E545F42494720C8
:103B30004E6577726563740D0A000000696E20534C
:103B400065744E657752656374436F6E74726F6C03
:103B500056697369626C6520474C5F576869746584
:103B6000204E6577726563740D0A0000696E2053FC
:103B700065744E657752656374436F6E74726F6CD3
:103B800056697369626C6520474C5F426C756520AD
:103B90004E6577726563740D0A0000000000000036
:103BA000000000002600002024000020000000008B
:103BB000000010400000000000002640000000004F
:103BC0000000004000000000000014400000000061
:103BD00000001840300000000000000000003240EB
:103BE0000EF00AFE9FEDFE0B53EC102BCDE9080101
:103BF0009DED080B51EC100B0FF0DEF9CDE90A0139
:103C00009DED0A0B51EC100B0FF002F880B21FED86
:103C1000130B53EC102B0E909DED200B51EC100B61
:103C20000FF0CAF9CDE90A019DED0A0B51EC100B1A
:103C30000EF0EEFF80B20123AFF268020D900E99F4
:103C4000FEF79BFD0F9890F8D900012853D11FED86
:103C5000250B53EC102B9DED240B51EC100B0EF0AB
:103C6000CBFDCDE908019DED080B51EC100B0EF0DA
:103C7000CFFF80B20E909DED260B51EC100B0EF095
:103C8000C7FF80B20D909DED120B51EC100B0EF0A2
:103C9000BFFF80B29FEDD40B53EC102B0C909DED29
:103CA0001C0B51EC100B0FF087F9CDE908019DEDCD
:103CB000080B51EC100B0EF0ABFF80B20B900CA96F
:103CC0000EC9FEF785FD0020FEF76EFCC84800888F
:103CD000401E80B20E90C7480088401E80B20D90F2
:103CE000C3480388C3480288DDE90D01FEF770FD73
:103CF0004FF6F0701F9021E00F981030289930F99E
:103D000011000B900EF0B1FFCDE90C019DED160BEB
:103D100053EC102B9DED0C0B51EC100B0FF00AF92E
:103D200009D20F981030289930F911000E900EF03A
:103D30009CFFCDE916012898401C28900F9890F818
:103D4000D81028988142D7D89DED1A0B53EC102B30
:103D50009DED260B51EC100B0FF02EF9CDE90C0167
:103D60009DED0C0B53EC102B9DED160B51EC100B35
:103D70000EF0F6FDCDE9140100202890C3E128984B
:103D800000287CD00020FEF7FBFB9DED220B51ECC0
:103D9000100B0EF03DFF80B20E9028980EF07CFFC5
:103DA000CDE906019DED1A0B53EC102B9DED060B92
:103DB00051EC100B0EF0C0FFCDE908019DED200B7A
:103DC00053EC102B9DED080B51EC100B0FF0E8F8A5
:103DD000CDE90A019DED0A0B51EC100B0EF018FF16
:103DE00080B2002304220D900E99FEF703FD44F2E9
:103DF0000820FEF7C5FB1FED8F0B53EC102B9DED3C
:103E0000240B51EC100B0EF0F7FCCDE90A019DEDEF
:103E10000A0B51EC100B0EF0FBFE80B21FED9D0B58
:103E200053EC102B0E909DED220B51EC100B0FF06C
:103E3000C3F8CDE90A019DED0A0B51EC100B0EF011
:103E4000E7FE80B20D9028980EF026FFCDE906011E
:103E50009DED1A0B53EC102B9DED060B51EC100B46
:103E60000EF06AFFCDE908019DED200B53EC102BFD
:103E70009DED080B51EC100B0FF092F800E00EE0F6
:103E8000CDE90A019DED0A0B51EC100B0EF0C0FEBE
:103E900080B200230C90DDE90D12FEF7ABFC2898F0
:103EA0000A287DD10020FEF76BFB9FED530B53ECEE
:103EB000102B9DED220B51EC100B0EF09DFCCDE96B
:103EC0000A019DED0A0B51EC100B0EF0A1FE80B221
:103ED0000E9028980EF0E0FECDE902019DED1A0B40
:103EE00053EC102B9DED020B51EC100B0EF024FF48
:103EF000CDE904019DED200B53EC102B9DED040B3F
:103F000051EC100B0FF04CF81FEDD40B53EC102BB1
:103F1000CDE906019DED060B51EC100B0FF04CF8AE
:103F20009FED370B53EC102BCDE908019DED080BED
:103F300051EC100B0FF040F8CDE90A019DED0A0B92
:103F400051EC100B0EF064FE80B201230D900F9A1D
:103F500009320E99FEF711FC9DED160B53EC102B58
:103F600029A110A80DF0E4F89FED290B53EC102BBC
:103F70009DED160B51EC100B0EF0A2FE6AD29FEDD8
:103F80001E0B53EC102B9DED220B51EC100B0EF081
:103F900033FCCDE90A019DED0A0B51EC100B00E05A
:103FA000AEE00EF035FE80B20E9028980EF074FE52
:103FB000CDE904019DED1A0B53EC102B9DED040B84
:103FC00051EC100B0EF0B8FECDE906019DED200B73
:103FD00053EC102B9DED060B51EC100B1CE0000078
:103FE0000000000000002240000000000000F03F40
:103FF00026000020240000200000000000004240B5
:10400000000000000000304025342E316600000022
:104010000000000000408F400EF0C2FF9FEDFE0B3D
:1040200053EC102BCDE908019DED080B51EC100B62
:104030000EF0C2FFCDE90A019DED0A0B51EC100B09
:104040000EF0E6FD80B2012310AA0D900E99FEF746
:1040500094FB55E09FEDF20B53EC102B9DED220BE2
:1040600051EC100B0EF0C8FB1FED1D0B53EC102B89
:10407000CDE908019DED080B51EC100B0EF0BCFBD7
:10408000CDE90A019DED0A0B51EC100B0EF0C0FDBD
:1040900080B20E9028980EF0FFFDCDE904019DED51
:1040A0001A0B53EC102B9DED040B51EC100B0EF082
:1040B00043FECDE906019DED200B53EC102B9DED49
:1040C000060B51EC100B0EF06BFF9FEDD30B53EC76
:1040D000102BCDE908019DED080B51EC100B0EF0F3
:1040E0006BFFCDE90A019DED0A0B51EC100B0EF0B0
:1040F0008FFD80B2012310AA0D900E99FEF73DFBB3
:104100002898401C289028980A287FF638AE00206E
:104110002890FDE39DED180B53EC102B9DED120B39
:1041200051EC100B0EF048FFCDE912010020FEF714
:1041300027FA1FED530B53EC102B9DED120B51EC96
:10414000100B0EF059FBCDE90A019DED0A0B51EC65
:10415000100B0EF05DFD80B20E909DED1C0B51EC2E
:10416000100B0EF055FD80B2012304220D900E9924
:10417000FEF740FB0F9890F8D8000F286CDC289AC7
:10418000521CA9A110A80CF0D3FF9FEDA80B53EC73
:10419000102B9DED120B51EC100B0EF02DFBCDE909
:1041A0000A019DED0A0B51EC100B0EF031FD80B2AF
:1041B0009FED9E0B53EC102B0E909DED1C0B51ECC4
:1041C000100B0EF019FBCDE90A019DED0A0B51EC25
:1041D000100B0EF01DFD80B2012310AA0D900E9958
:1041E000FEF7CBFA44F20820FEF7CAF99DED260B44
:1041F00051EC100B0EF00CFD80B21FED850B53EC53
:10420000102B0E909DED120B51EC100B0EF0F4FAEA
:10421000CDE90A019DED0A0B51EC100B0EF0F8FCF4
:1042200080B20D909DED260B53EC102B9DED1C0BD9
:1042300051EC100B0EF0C0FECDE90A019DED0A0B0A
:1042400051EC100B0EF0E4FC80B201230C90DDE980
:104250000D12FEF7CFFA87E10F9890F8D8000F28DB
:104260007BDD0F9890F8D800282876DC2898401C31
:104270000321B0FBF1F201FB12000028EBD1289AD8
:10428000521C69A110A80CF053FF9FED680B53EC72
:10429000102B9DED120B51EC100B0EF0ADFACDE989
:1042A0000A019DED0A0B51EC100B0EF0B1FC80B22F
:1042B0009FED5E0B53EC102B0E909DED1C0B51EC03
:1042C000100B0EF099FACDE90A019DED0A0B51ECA5
:1042D000100B0EF09DFC80B2012310AA0D900E99D8
:1042E000FEF74BFA44F20820FEF74AF99DED260B43
:1042F00051EC100B0EF08CFC80B21FEDC50B53EC93
:10430000102B0E909DED120B51EC100B0EF074FA69
:10431000CDE90A019DED0A0B51EC100B0EF078FC73
:1043200080B20D909DED260B53EC102B9DED1C0BD8
:1043300051EC100B0EF040FECDE90A019DED0A0B89
:1043400051EC100B0EF064FC80B201230C90DDE9FF
:104350000D12FEF74FFA07E1FFE70F9890F8D8002B
:10436000282858DD0F9890F8D800462853DC289864
:10437000401C00F003000028EDD1289A521C2AA10D
:1043800010A80CF0D5FE9FED290B53EC102B9DEDE2
:10439000120B51EC100B0EF02FFACDE90A019DED36
:1043A0000A0B51EC100B0EF033FC80B29FED1F0B8B
:1043B00053EC102B0E909DED1C0B51EC100B0EF0DE
:1043C0001BFACDE90A019DED0A0B51EC100B0EF022
:1043D0001FFC80B2012310AA0D900E99FEF7CDF9B3
:1043E00044F20820FEF7CCF89DED260B51EC100BA3
:1043F0000EF00EFC80B29FED0F0B53EC102B0E90C5
:104400009DED120B51EC100B0EF0F6F9CDE90A01FF
:104410009DED0A0B12E031E00000000000001440A6
:1044200000000000000020402564000000000000A3
:1044300000001840000000000000F03F51EC100B9D
:104440000EF0E6FB80B20D909DED260B53EC102B89
:104450009DED1C0B51EC100B0EF0AEFDCDE90A01E9
:104460009DED0A0B51EC100B0EF0D2FB80B2012334
:104470000C90DDE90D12FEF7BDF975E02898401C9F
:104480000A21B0FBF1F201FB120000286CD1289A3E
:10449000521CAFF26C0110A80CF04AFE1FED1D0B70
:1044A00053EC102B9DED120B51EC100B0EF0A4F9F8
:1044B000CDE90A019DED0A0B51EC100B0EF0A8FBA3
:1044C00080B21FED260B53EC102B0E909DED1C0BB4
:1044D00051EC100B0EF090F9CDE90A019DED0A0B9D
:1044E00051EC100B0EF094FB80B2012310AA0D903A
:1044F0000E99FEF742F944F20820FEF741F89DEDCF
:10450000260B51EC100B0EF083FB80B21FED370B26
:1045100053EC102B0E909DED120B51EC100B0EF086
:104520006BF9CDE90A019DED0A0B51EC100B0EF071
:104530006FFB80B20D909DED260B53EC102B9DED83
:104540001C0B51EC100B0EF037FDCDE90A019DED6F
:104550000A0B51EC100B0EF05BFB80B201230C90A8
:10456000DDE90D12FEF746F9289800287DD10F9855
:104570001030289930F9110003900EF076FBCDE948
:1045800004019DED140B53EC102B9DED040B51EC2D
:10459000100B0EF0E5F9CDE906019DED1C0B53EC77
:1045A000102B9DED060B51EC100B0EF0F9FCCDE934
:1045B00008019DED080B51EC100B0EF029FB80B2A9
:1045C0000E909DED120B51EC100B0EF021FB80B202
:1045D0000D909DED1C0B51EC100B0EF019FB80B2F1
:1045E0000C909DED180B53EC102B9DED120B51EC24
:1045F000100B0EF001F9CDE908019DED080B51EC0F
:10460000100B0EF005FB80B20B90BDF87C00009003
:104610000BA80FC8FEF731FD0F981030289930F91C
:10462000110001900EF021FBCDE902019DED140B6C
:1046300053EC102B9DED020B51EC100B0EF090F98A
:10464000CDE904019DED1C0B53EC102B9DED040BEB
:1046500051EC100B0EF0A4FC1FED8A0B53EC102B49
:10466000CDE906019DED060B00E0B2E051EC100B28
:104670000EF0A2FCCDE908019DED080B51EC100BEA
:104680000EF0C6FA80B20E909DED120B51EC100B9D
:104690000EF0BEFA80B21FED990B53EC102B0D906B
:1046A0009DED1C0B51EC100B0EF086FCCDE90801C2
:1046B0009DED080B51EC100B0EF0AAFA80B20C9095
:1046C0009DED180B53EC102B9DED120B51EC100BC4
:1046D0000EF092F8CDE908019DED080B51EC100B9E
:1046E0000EF096FA80B20B90BDF87C0000900BA8FB
:1046F0000FC8FEF7C2FC0F981030289930F911004E
:1047000003900EF0B2FACDE904019DED140B53ECC9
:10471000102B9DED040B51EC100B0EF021F9CDE99F
:1047200006019DED1C0B53EC102B9DED060B51EC7F
:10473000100B0EF035FCCDE908019DED080B51EC96
:10474000100B0EF065FA80B21FEDC60B53EC102B68
:104750000E909DED120B51EC100B0EF02DFCCDE9DF
:1047600008019DED080B51EC100B0EF051FA80B2D0
:104770000D909DED1C0B51EC100B0EF049FA80B220
:104780000C909DED180B53EC102B9DED120B51EC82
:10479000100B0EF031F81FEDD90B53EC102BCDE9B7
:1047A00006019DED060B51EC100B0EF005FCCDE95A
:1047B00008019DED080B51EC100B0EF029FA80B2A8
:1047C0000B90BDF87C0000900BA80FC8FEF755FCBD
:1047D000A5E10F981030289930F9110003900EF0E0
:1047E00044FACDE904019DED140B53EC102B9DED23
:1047F000040B51EC100B0EF0B3F8CDE906019DED62
:104800001C0B53EC102B9DED060B51EC100B0EF016
:10481000C7FBCDE908019DED080B51EC100B0EF024
:10482000F7F980B20E909DED120B51EC100B0EF0CB
:10483000EFF980B20D902898411E0F98103030F992
:10484000110003900EF011FACDE904019DED140B57
:1048500053EC102B9DED040B51EC100B0EF080F877
:10486000CDE906019DED1C0B53EC102B9DED060BC5
:1048700051EC100B0EF094FBCDE908019DED080BF7
:1048800051EC100B0EF0C4F980B20C909DED180B9A
:1048900053EC102B9DED120B51EC100B0DF0ACFFF7
:1048A000CDE908019DED080B51EC100B0EF0B0F9AD
:1048B00080B20B90BDF87C0000900BA80FC8FEF7EB
:1048C000DCFB0F981030289930F9110001900EF0A0
:1048D000CCF9CDE902019DED140B53EC102B9DEDAD
:1048E000020B51EC100B0EF03BF8CDE904019DEDED
:1048F0001C0B53EC102B9DED040B51EC100B0EF028
:104900004FFB9FEDFC0B53EC102BCDE9060100E0B3
:104910004CE19DED060B51EC100B0EF04DFBCDE97B
:1049200008019DED080B51EC100B0EF071F980B2EF
:104930009FEDF00B53EC102B0E909DED120B51ECF4
:10494000100B0EF039FBCDE908019DED080B51EC81
:10495000100B0EF05DF980B20D902898411E0F9853
:10496000103030F9110001900EF07FF9CDE902010D
:104970009DED140B53EC102B9DED020B51EC100B25
:104980000DF0EEFFCDE904019DED1C0B53EC102B57
:104990009DED040B51EC100B0EF002FB9FEDD50BBF
:1049A00053EC102BCDE906019DED060B51EC100BDD
:1049B0000EF002FBCDE908019DED080B51EC100B48
:1049C0000EF026F980B20C909DED180B53EC102BD5
:1049D0009DED120B51EC100B0DF00EFFCDE908010F
:1049E0009DED080B51EC100B0EF012F980B20B90FC
:1049F000BDF87C0000900BA80FC8FEF73EFB0F9897
:104A00001030289930F9110003900EF02EF9CDE9FD
:104A100004019DED140B53EC102B9DED040B51EC98
:104A2000100B0DF09DFFCDE906019DED1C0B53EC25
:104A3000102B9DED060B51EC100B0EF0B1FACDE9E9
:104A400008019DED080B51EC100B0EF0E1F880B25F
:104A50009FEDA80B53EC102B0E909DED120B51EC1B
:104A6000100B0EF0A9FACDE908019DED080B51ECF1
:104A7000100B0EF0CDF880B20D902898411E0F98C3
:104A8000103030F9110003900EF0EFF8CDE9040179
:104A90009DED140B53EC102B9DED040B51EC100B02
:104AA0000DF05EFFCDE906019DED1C0B53EC102BC4
:104AB0009DED060B51EC100B0EF072FACDE90801DA
:104AC0009DED080B51EC100B0EF0A2F880B20C908B
:104AD0009DED180B53EC102B9DED120B51EC100BB0
:104AE0000DF08AFE9FED830B53EC102BCDE90601F0
:104AF0009DED060B51EC100B0EF05EFACDE90801AE
:104B00009DED080B51EC100B0EF082F880B20B906B
:104B1000BDF87C0000900BA80FC8FEF7AEFA0F9806
:104B200090F8D800401E289988423CD10020FDF71B
:104B300027FD9FED720B53EC102B9DED120B51ECEA
:104B4000100B0DF059FECDE90A019DED0A0B51EC59
:104B5000100B0EF05DF880B29FED6A0B53EC102B3A
:104B60000E909DED1C0B51EC100B0DF045FE9FEDD2
:104B7000670B53EC102BCDE908019DED080B51ECB0
:104B8000100B0DF039FECDE90A019DED0A0B51EC39
:104B9000100B0EF03DF880B201230D900F9A921C7D
:104BA0000E99FDF7EAFD2898401C28900F9890F880
:104BB000D810289881423FF6ADAA0020FDF787FE65
:104BC0000120FEF787BE2DE9F04F2DED108B89B047
:104BD00083460024002008909FED4E0BB0EE40AAC3
:104BE000F0EE60AA9FED4B0B8DED060BDBF8045049
:104BF00025B909B0BDEC108BBDE8F08F012085F818
:104C0000750046480088323886B245490988A1F1C6
:104C100048000EF02AF841EC180B301D87B29FEDCA
:104C2000410B53EC102B51EC180B0EF0C5F941EC75
:104C30001B0B0DF0EDFF1FFA80FA384800883C3856
:104C40001FFA80F93648008850381FFA80F895F826
:104C5000740099FBF0F0C0B208900A2098FBF0F0C5
:104C600003900EF002F841EC190B0020FDF788FCD0
:104C70000120FDF72CFE51EC180B0DF0C9FF80B29E
:104C800000234A4631460390FDF7B4FD40460EF03E
:104C900003F841EC1C0B53EC182B0EF081F941EC9E
:104CA0001B0B0DF0B5FF80B2012342463146039045
:104CB000FDF7A0FD9FED1D0B53EC102B51EC180BD5
:104CC0000DF09AFD41EC1B0B0DF0A2FF80B203909A
:104CD000701D81B2012317A20398FDF74EFD07F165
:104CE0000B0291B2AAF1050290B2012311A2FDF7C5
:104CF00044FD37E0000000000000F03F000000002D
:104D000000003840000000000000084000000000E3
:104D100000003040000000000000000026000020DD
:104D200024000020000000000000104000000000EF
:104D3000000018403000000005F1100131F91400A6
:104D40000DF093FF41EC1B0B53EC1A2B0EF0F2F815
:104D500007D205F1100131F914000DF086FF41EC86
:104D60001A0B641C95F87400A042E5D840460DF07B
:104D700093FF41EC1C0B53EC192B0EF01DF941EC89
:104D80001B0B53EC1B2B51EC1A0B0DF0E9FDCDE97D
:104D900006010024C3E00020FDF7F2FB0020FDF730
:104DA000EFFB20460DF078FF41EC1E0B53EC192B66
:104DB0000DF0C2FF41EC1C0B50460DF06DFF41ECB5
:104DC0001D0B53EC1C2B0EF0F7F841EC1B0B0DF0F8
:104DD0001FFF80B20023042239460390FDF70AFD2D
:104DE000092C70D120460DF057FF53EC192BCDE95B
:104DF00000019DED000B51EC100B0DF09DFF41ECFF
:104E00001E0B50460DF048FF41EC1F0B53EC1E2BC0
:104E10000EF0D2F841EC1D0B9FEDFE0B53EC102B66
:104E20000EF0CAF841EC1C0B1FED480B53EC102B95
:104E30000EF0C2F841EC1B0B0DF0EAFE80B20390BD
:104E400007F1280081B2012305F109020398FDF75B
:104E500094FC53EC1A2BAFF6506104A80CF068F9DF
:104E60009FEDEE0B53EC102B51EC1A0B0DF028FFBD
:104E70002AD220460DF010FF41EC1F0B53EC192BEA
:104E80000DF05AFF41EC1D0B50460DF005FF41ECB3
:104E90001E0B53EC1D2B0EF08FF841EC1C0B9FEDFD
:104EA000E10B53EC102B0EF087F841EC1B0B0DF0CF
:104EB000AFFE80B2039007F1280081B2012304AA5B
:104EC0000398FDF75AFC29E020460DF0E5FE41EC81
:104ED0001F0B53EC192B0DF02FFF41EC1D0B50460F
:104EE0000DF0DAFE41EC1E0B53EC1D2B0EF064F8B6
:104EF00041EC1C0B9FEDCB0B53EC102B0EF05CF830
:104F000041EC1B0B0DF084FE80B2039007F13000E2
:104F100081B2012304AA0398FDF72FFC641C0A2C1C
:104F2000FFF439AF0024C4E005F1100131F9140099
:104F30000DF09BFE41EC1D0B9DED060B53EC102B71
:104F40000DF00EFD41EC1C0B53EC182B0EF028F865
:104F500041EC1B0B0DF05CFEC0B2039051EC180B42
:104F60000DF056FEC0B20290102000900898301A42
:104F7000401C81B23046DDE90223FEF732F8089882
:104F8000301A86B20020FDF7FBFA51EC180B0DF039
:104F90003FFE80B20390701C81B20123042203986B
:104FA000FDF728FC95F874000F2814DC621CAFF69E
:104FB000883104A80CF0BCF851EC180B0DF028FE59
:104FC000801D80B20390B01D81B2012304AA039812
:104FD000FDF7D3FB49E095F874000F2826DD95F81E
:104FE0007400282822DC601C0321B0FBF1F201FBD5
:104FF0001200D0BB621CAFF6D03104A80CF098F8B8
:105000001FEDB60B53EC102B51EC180B0DF0F4FB0D
:1050100041EC1B0B0DF0FCFD80B20390B01D81B282
:10502000012304AA0398FDF7A8FB1EE0601C00F012
:105030000300D0B9621CAFF6104104A80CF078F858
:105040001FEDC60B53EC102B51EC180B0DF0D4FBDD
:1050500041EC1B0B0DF0DCFD80B20390B01D81B262
:10506000012304AA0398FDF788FB95F87400401EFD
:10507000A0421DD11FEDDD0B53EC102B51EC180B92
:105080000DF0BAFB41EC1C0B1FEDE00B53EC102BA9
:105090000DF0B2FB41EC1B0B0DF0BAFD80B203909A
:1050A00006F1180081B20123AA1C0398FDF765FBE5
:1050B000641C95F87400A0423FF636AF0020FDF75F
:1050C00006FC012095E52DE9FC5F04468A46207C1C
:1050D000082870D1002500264FF0000B0027002083
:1050E00001900090DFF844816068D0F824906068F7
:1050F00090F82000616891F91F1088420ADA606810
:1051000090F91F000A3080B20190606890F820008A
:1051100009300090606890F82000616891F91F10D4
:1051200088420ADD606890F91F00083080B2019063
:10513000606890F8200009300090BAF1000F2DD17E
:10514000002625E0002700251BE02FB9D8F800B085
:1051500008F104084FF400270BEA070070B1228918
:105160009319019A9A1A91B2A289123A2A4490B2DA
:10517000FDF7E7FBA9F8000009F102097F08681CA8
:10518000C5B22A480C380068A842DED8701CC6B2E6
:1051900026480C384068B042D4D239E0606890F8B4
:1051A0002000616891F91F10884231D06068D0F802
:1051B0002490002627E02CE0002700251CE02FB9D2
:1051C000D8F800B008F104084FF400270BEA0700F4
:1051D00078B139F8022B238903EB060C009BACEB6A
:1051E000030399B2A389123B2B4498B20823FDF71D
:1051F000E1F97F08681CC5B20C480C380068A84269
:10520000DDD8701CC6B209480C384068B042D3D80B
:1052100000BF0DE0000000000000004000000000A2
:1052200000408F4000000000000014408800002073
:10523000BDE8FC9F2DE9F04F87B00646002700200F
:10524000029081468246834601240190804675681B
:1052500015B907B0BDE8F08F95F82800012811D0E6
:10526000012085F82800F64A1268D188F44A1268AD
:1052700090880122FDF742FD287F18B900213046B1
:10528000FFF721FF95F81EB00120FDF720FBED4848
:105290000690A8680590EC48049068680390287F01
:1052A00068BB3789B6F80C90B6F80EA00498009049
:1052B000381F81B253464A463846FDF7B2FF0EE02A
:1052C0000598621CA7EB820291B2A7EB84020090C2
:1052D00090B253464A46FDF7A4FF601CC4B21B2C93
:1052E000EEDB0698621CA7EB820291B2A7EB840268
:1052F000009090B253464A46FDF793FFACE0287FFA
:1053000001284DD1D148008801904FF6FF70FDF77C
:1053100037F9B37B96F80CC0ACF1010C0CF0FF022E
:10532000B6F80AC0ACF1020C1FFA8CF13089FDF717
:1053300033FEBDF80400FDF723F9B089001F87B2E2
:10534000F089001F80B20290B6F80890B6F80AA063
:105350000320FDF719FB0420122352463946009022
:105360000698FDF76CFC0BE004200090A7EB84008E
:1053700081B2122352460598FDF761FC601CC4B24D
:105380001B2CF1DB04200090A7EB840081B21223D8
:1053900052460498FDF753FC0020FDF7F5FA5BE058
:1053A000287F022858D1A948008801904FF6FF7045
:1053B000FDF7E6F896F80EC0ACF1050C0CF0FF0313
:1053C00096F80CC0ACF1060C0CF0FF02B6F80AC05F
:1053D000ACF1010C1FFA8CF1B6F808C00CF1010C0D
:1053E0001FFA8CF0FDF7D8FDBDF80400FDF7C8F8F2
:1053F000B089001F87B2F089001F80B20290B6F812
:105400000890B6F80AA00120FDF7BEFA0420122386
:105410004A46009002990698FDF711FC0CE0042022
:105420000090029800EB840081B212234A4605984E
:10543000FDF705FC601CC4B21B2CF0DB04200090BF
:10544000029800EB840081B212234A460498FDF7CB
:10545000F6FB0020FDF798FA95F8200095F91F104B
:10546000884209D0287F38B900213046FFF72BFE4B
:1054700001213046FFF727FE287FE0B90398AAF103
:10548000010C1FFA8CF309F1010C1FFA8CF2009049
:1054900095F91FC0A7EB0C0CACF10A0C1FFA8CF1AC
:1054A00095F91FC0A7EB0C0CACF1040C1FFA8CF0A3
:1054B000FDF7B7FE2FE0287F012814D10320FDF768
:1054C00063FA06200090AAF1010082B295F91F004C
:1054D000381A001F81B214230398FDF7B0FB002097
:1054E000FDF752FA17E0287F022814D10120FDF7BA
:1054F0004BFA0620009009F1010082B295F91F30A5
:1055000002981844001D81B214230398FDF797FBFD
:105510000020FDF739FAE87F85F8200005F10C003E
:105520000BF051FF8046B8F1000F24D00024287FF3
:1055300010BB10E0ABEBC802A7EB5202D21EA2EBED
:10554000C40291B209F1020290B2002340A2FDF719
:1055500014F9601CC4B2A8F10100A042EAD8821C70
:10556000A7EBC20291B209F1020290B2012305F148
:105570000C02FDF702F95EE0287F01282ED10320FE
:10558000FDF702FA12E0ABEBC802A7EB5202121DC4
:10559000A2EBC40291B22F4A1288A2EB0A02921C1B
:1055A00090B22BA2FDF7B0FA601CC4B2A8F10100C2
:1055B000A042E8D8ABEBC802A7EB5202121D91B291
:1055C000244A1288A2EB0A02921C90B205F10C0246
:1055D000FDF79AFA0020FDF7D7F92CE0287F022882
:1055E00029D10120FDF7D0F90FE0ABEBC802A7EB02
:1055F0005203621CA3EBC20291B209F1020290B203
:1056000013A2FDF781FA601CC4B2A8F10100A04208
:10561000EBD8ABEBC802A7EB5203621CA3EBC202B0
:1056200091B209F1020290B205F10C02FDF76CFA99
:105630000020FDF7A9F90020FDF749F9012008E64F
:10564000300000207CD501084ED601082A00002039
:10565000200000002600002077B581B005466C6868
:1056600014B9002004B070BD012020736068009060
:10567000BDF80E60F3B2BDF80C60F2B2BDF80A10CE
:10568000BDF80800FDF7CDFD0120EBE72DE9F7415E
:1056900081B006464FF00008002774681CB900204E
:1056A00004B0BDE8F081012084F8260094F82500BC
:1056B00008B9A56800E065680095BDF80EC00CF05B
:1056C000FF03BDF80CC00CF0FF02BDF80A10BDF8D6
:1056D0000800FDF7A6FD0120FDF7F9F804F10C0024
:1056E0000BF071FE074607B17F1E0020FCF748FF54
:1056F000BDF80A20193291B2BDF80C20D2B20F3A8F
:1057000090B2012304F10C02FDF737F80020FDF7F9
:10571000DEF80120C4E72DE9F74181B007460025F6
:10572000A8467C681CB9002004B0BDE8F0810120C7
:105730006076207E012801D1666800E0A6680096A8
:10574000BDF80EC00CF0FF03BDF80CC00CF0FF025A
:10575000BDF80A10BDF80800FDF763FD0120FDF754
:10576000B6F804F10C000BF02EFE804610E0BDF8F8
:105770000820163AA2EBC50291B2BDF80C20D2B2B5
:105780000E3A90B200232022FCF7F7FF681CC5B246
:105790004545ECD90020FCF7F3FEBDF80820521D6A
:1057A00091B2BDF80C20D2B20E3A90B2012304F1AE
:1057B0000C02FCF7E2FF0020FDF789F80120B3E7B7
:1057C0002DE9F74F82B007460026B0467C680125D8
:1057D0004FF000094FF0000A0020019014B905B005
:1057E000BDE8F08F012084F82D0004F10C000BF0CF
:1057F000EAFD834604F11C000BF0E5FD834505D965
:1058000004F10C000BF0DFFD064604E004F11C007F
:105810000BF0D9FD06460120FDF759F894F82C004D
:1058200088B9FD49A068884206D1DFF8F093D4F822
:1058300008A0FB4801901FE0DFF8E893D4F808A027
:10584000F948019018E094F82C00012814D1F74988
:10585000606888420AD14DF6FB60FCF79BFEDFF8DA
:10586000C493D4F804A0F048019005E0DFF8AC93AD
:10587000D4F804A0EA48019001980090BDF812C045
:105880000CF0FF03BDF810C00CF0FF02BDF80CC017
:10589000ACF1080C1FFA8CF1BDF80C00FDF7C1FC4F
:1058A00018E0CDF800A0BDF80CB005F1010CABEB91
:1058B000CC0C1FFA8CF1ABEBC50C1FFA8CF0BDF8C9
:1058C00012C00CF0FF03BDF810C00CF0FF02FDF792
:1058D000A8FC6D1CB54201D2102DE2D3CDF800908A
:1058E000BDF80CB005F1010CABEBCC0C1FFA8CF140
:1058F000ABEBC50C1FFA8CF0BDF812C00CF0FF0327
:10590000BDF810C00CF0FF02FDF78BFC4FF6FF70E6
:10591000FCF736FE102000EBC60894F82C0078B98E
:10592000BDF80C20A2EBC60291B2BDF81020D2B295
:10593000123A90B2012304F10C02FCF71EFF1CE0A6
:1059400094F82C00012818D104F11C000BF03BFD49
:10595000401CA8EBC000BDF80C10A1EB5000C01E0D
:105960001FFA80FBBDF81010C9B2123988B20123AA
:1059700004F11C025946FCF700FF0020FCF7A7FFCA
:105980004FF6FF70FCF706FE1020FCF7F9FD012032
:1059900025E72DE9F74F82B007464FF0000B0026B0
:1059A0007D6801244FF000094FF000084FF0000A15
:1059B0001DB9002005B0BDE8F08F0120687705F122
:1059C0000C000BF000FD0646287F88B99849A868AE
:1059D000884206D1DFF85C92D5F80880DFF858A23B
:1059E0001AE0DFF85892D5F80880DFF854A213E0E7
:1059F000287F012810D193496868884206D1DFF8D2
:105A00003C92D5F80480DFF838A205E0DFF8249254
:105A1000D5F80480DFF820A2CDF80090BDF8123050
:105A2000BDF81020BDF80CC0ACF1080C1FFA8CF1C9
:105A3000BDF80C00FDF7F5FB0A2E24D216E0CDF8D8
:105A40000080BDF80EC00CEBC40C1FFA8CF1BDF841
:105A50000EE004F1010C0EEBCC0C1FFA8CF0BDF83B
:105A60001230BDF81020FDF7DCFB641CB4422FD2CD
:105A7000BDF80E10601C01EBC00073490988081ABC
:105A80000928DCD824E016E0CDF80080BDF80EC06F
:105A90000CEBC40C1FFA8CF1BDF80EE004F1010C04
:105AA0000EEBCC0C1FFA8CF0BDF81230BDF81020B4
:105AB000FDF7B7FB641C701EA04209D9BDF80E109B
:105AC000601C01EBC00060490988081A0928DBD86E
:105AD000BDF80E10601C01EBC0005B490988081A74
