:020000040800F2
:10000000289E0020790701082D0600082F06000809
:1000100033060008370600083B0600080000000011
:100020000000000000000000000000009D02000829
:100030003F06000800000000F102000889050108E1
:100040009307010893070108930701089307010824
:100050009307010893070108930701089307010814
:100060009307010893070108930701089307010804
:1000700093070108930701089307010893070108F4
:1000800093070108930701089307010893070108E4
:1000900093070108930701089307010893070108D4
:1000A00093070108930701089307010893070108C4
:1000B00083060008850600088706000893070108E4
:1000C00093070108930701089307010893070108A4
:1000D0009307010893070108930701089307010894
:1000E0009307010893070108930701089307010884
:1000F0009307010893070108930701089307010874
:100100009307010893070108930701089307010863
:100110009307010893070108930701089307010853
:100120009307010893070108930701089307010843
:100130009307010841060008930701089307010887
:100140009307010893070108930701089307010823
:100150009307010893070108930701089307010813
:100160009307010893070108930701089307010803
:1001700093070108930701089307010893070108F3
:10018000930701089307010800F002F800F076F8E1
:100190000AA090E8000C82448344AAF10107DA45E2
:1001A00001D100F06BF8AFF2090EBAE80F0013F0BE
:1001B000010F18BFFB1A43F001031847303F02003C
:1001C000503F02000A444FF0000C10F8013B13F0BE
:1001D000070408BF10F8014B1D1108BF10F8015BA0
:1001E000641E05D010F8016B641E01F8016BF9D193
:1001F00013F0080F1EBF10F8014BAD1C0C1B09D1EA
:100200006D1E58BF01F801CBFAD505E014F8016B5B
:1002100001F8016B6D1EF9D59142D6D370470000ED
:100220000023002400250026103A28BF78C1FBD8FF
:10023000520728BF30C148BF0B607047662912F0D3
:100240004983642910F07283752910F06F83632944
:1002500011F05980002070471FB512F031FB9DE866
:10026000030010F08BFD11F091F804000020002134
:1002700011F014FEE0601FBD10B510BD11F0A4F91F
:100280001146FFF7E9FF00F07BF811F0C2F903B463
:10029000FFF7F2FF03BC11F0F3F900002A4B1968D5
:1002A0000868B0E8F04F80F30988BFF36F8F4FF014
:1002B000000080F3118870470000000006480068C5
:1002C000006880F3088862B661B6BFF34F8FBFF352
:1002D0006F8F00DF00BF00BF08ED00E0DFF80C000B
:1002E000016841F470010160704700BF88ED00E0D3
:1002F000EFF30980BFF36F8F134B1A681EF0100FD6
:1003000008BF20ED108A20E9F04F106008B44FF0CC
:10031000500080F31188BFF34F8FBFF36F8F0FF042
:1003200024F84FF0000080F3118808BC19680868B1
:10033000B0E8F04F1EF0100F08BFB0EC108A80F349
:100340000988BFF36F8F704788010020EFF30580A5
:100350007047000000BF08F01AFE06F0E3FD06F04B
:10036000BFFEF8E710B500200AF00EFB01200AF0EE
:100370000BFB02200AF008FB03200AF005FB10BD6E
:100380001CB54FF4E131224807F000F8FFF7EAFF0F
:1003900007F024FC002001F034FE08F04AFC0AF0CB
:1003A00040FA102001F086FC48F2100001F08CFCAD
:1003B00000F080FA0020012103464FF42062CDE9CD
:1003C000001014A1AFF273000EF099FC0FF097F932
:1003D00000BFFEE700BF30210D480AF01EFE4FF4BB
:1003E000FA700EF0B1FEF6E700BFFEE700BF502046
:1003F00080F31188BFF34F8FBFF36F8F00BF00BF33
:10040000FEE7704710B506F0DCFE01F036FC10BDCB
:10041000001001404D795461736B00000CB5002051
:10042000019000907648006840F48030744908607C
:1004300000BF7348006800F4003000900198401C31
:100440000190009818B90198B0F5A06FF1D16C48EF
:10045000006800F4003010B10120009001E000209D
:1004600000900098012846D165484030006840F06F
:1004700080506349403108606248006840F4804021
:10048000604908605E48083000685D4908310860CE
:100490000846006840F4004008600846006840F4E0
:1004A000A05008605848091F0860081F006840F005
:1004B0008070091F086000BF5148006800F000709C
:1004C0000028F9D040F20520504908604C48083017
:1004D000006820F003004A490831086008460068B7
:1004E00040F00200086000BF45480830006800F096
:1004F0000C000828F8D10CBD10B54548006840F440
:100500007000434908603E48006840F001003C49E3
:10051000086000203A4908310860394800683D49C0
:100520000840374908603C48091D0860081F0068FA
:1005300020F48020091F0860002031490C31086038
:10054000FFF76CFF4FF0006031498039086010BD43
:1005500070B500200022022300240221284D083516
:100560002D6805F00C0020B1042806D0082834D1ED
:1005700007E02A4D2A4E356033E02A4D284E35607B
:100580002FE01F4D2D1D2D68C5F380541C4D2D1DD2
:100590002D6805F03F0154B1224DB5FBF1F5184E21
:1005A000361D3668C6F3881605FB06F209E01B4DBA
:1005B000B5FBF1F5124E361D3668C6F3881605FBFD
:1005C00006F20F4D2D1D2D68C5F301456D1C6B0006
:1005D000B2FBF3F5124E356003E0104D104E35605E
:1005E00000BF00BF064D08352D68C5F303150E4E3C
:1005F000705D0B4D2D68C540094E356070BD000023
:10060000003802400070004019544007003C02408E
:1006100088ED00E0FFFFF6FE103000240024F40017
:100620000000002040787D0104000020704700BFDA
:10063000FEE700BFFEE700BFFEE700BFFEE7704732
:1006400008B50020009040200DF0F3FA012804D1F5
:1006500069460D4800680EF094F840200DF00DFB3F
:100660004FF480300DF009FB009848B1009838B184
:100670004FF0805005490860BFF34F8FBFF36F8F75
:1006800008BD7047704770478001002004ED00E00E
:1006900010B500F00FFA754805F098FE10BD7047D0
:1006A00010B500F007F9724805F090FE10BD10B5C6
:1006B00001F07BF86E4805F089FE10BD704710B55B
:1006C0006C48007830B101280AD002280ED00328E7
:1006D00018D111E000F0C2FA654805F077FE11E08C
:1006E00000F006FF624805F071FE0BE000F078FCB8
:1006F0005F4805F06BFE05E000F0D5FD5C4805F0B5
:1007000065FE00BF00BF10BD704710B500F0D2F904
:10071000002058490870584805F058FE10BD10B523
:1007200000F0C8F8002053490870534805F04EFE09
:1007300010BD10B500F054FC4F4805F047FE10BD49
:1007400010B500F0D5FE4C4805F040FE10BD10B5C8
:1007500000F0B0F9022047490870484805F036FE1D
:1007600010BD10B500F0A6F80020424908704348BB
:1007700005F02CFE10BD10B500F070FA3F4805F0F2
:1007800025FE10BD10B500F08EFD3C4805F01EFEA4
:1007900010BD10B500F08EF90320364908703848B6
:1007A00005F014FE10BD10B500F084F800203149AA
:1007B0000870334805F00AFE10BD10B500F098FE31
:1007C0002F4805F003FE10BD10B500F009FC2C48C1
:1007D00005F0FCFD10BD10B500F06CF901202549B5
:1007E0000870284805F0F2FD10BD10B500F062F861
:1007F000002020490870234805F0E8FD10BD10B521
:1008000000F0EEFB1F4805F0E1FD10BD10B500F053
:1008100025FA1C4805F0DAFD10BD10B500F04AF9C4
:10082000194805F0D3FD10BD10B500F043F8164887
:1008300005F0CCFD10BD10B501F0C7F8124805F069
:10084000C5FD10BD704710B500F0AFFF0F4805F0B3
:10085000BDFD10BD10B500F02DF80C4805F0B6FD3B
:1008600010BD70477047704770470000E8010020D6
:100870008C0200201600002030030020D40300204A
:10088000780400201C050020C0050020640600201C
:1008900010B5FE4B2022D221012006F0F8FB0446C1
:1008A000FB4805F0C8F9FA4B2246F021FA2004F083
:1008B0004EFE10BD08B5F7A006F015FEFFF7E8FFE5
:1008C000002007F0A2FA4FF6FF702023D222F02179
:1008D0000090FA2007F06FFEF44807F012FAF4A037
:1008E0002023D222F0210090FA2008F0B8F84FF629
:1008F000FF701C235A220C210090142007F05BFE8D
:10090000EE4807F0FEF94FF6FF71002007F0DCF922
:10091000EBA214210E2007F002FC00214FF6FF701D
:1009200007F0D2F9E14807F0ECF9E7A282211420A0
:1009300007F0F5FBE7A24FF49171142007F0EFFBED
:10094000E8A21421FA2007F0EAFB4FF66860A02322
:10095000D2223C210090142007F02DFE40F2FC40F2
:10096000A023D2223C210090FA2007F024FE4FF66B
:100970006861002007F0A8F9D04807F0C2F9DCA2AE
:100980006421822007F0CBFBC84807F0BAF9D9A24E
:100990001E21502007F0C3FBD5A2AA21502007F04A
:1009A000BEFBD7A2AF21A02007F0B9FB40F2FC416B
:1009B000002007F089F9C14807F0A3F9CCA24FF451
:1009C000A571822007F0ABFBB84807F09AF9CEA2D8
:1009D0004FF48271502007F0A2FBC5A24FF4C871FA
:1009E000502007F09CFBCAA24FF4C871AF2007F05B
:1009F00096FBA7480121C2699047A548C5490860F0
:100A000008BD10B5FFF756FF10BD2DE9F047C24BEA
:100A10001E22D221012006F03AFB0446BF4B1E22C3
:100A2000D221022006F033FB0546BD4B5022D221D5
:100A3000032006F02CFB0646BA4B5022D22104209C
:100A400006F025FB0746B84B5022D221052006F0C0
:100A50001EFB8046B54B5022D221062006F017FB24
:100A60008146B34805F0E7F8B14B2246F021FA2061
:100A700004F06DFDAE4B2A46F021142004F067FD12
:100A8000AB4B32463C21142004F061FDA84B3A46A2
:100A90003C21FA2004F05BFDA54B42469621142030
:100AA00004F055FDA24B4A469621FA2004F04FFD72
:100AB000BDE8F08708B59FA006F015FDFFF7A5FF7C
:100AC000002007F0A2F94FF6FF701C235A220C21D8
:100AD0000090142007F06FFD784807F012F94FF6E8
:100AE000FF71002007F0F0F875A214210E2007F026
:100AF00016FB00214FF6FF7007F0E6F86B4807F091
:100B000000F96BA24FF4BE71142007F008FBD2234A
:100B100050223C21142007F04BFCD22350223C21D0
:100B2000FA2007F045FCD22350229621142007F02A
:100B30003FFCD22350229621FA2007F039FC4FF6D1
:100B4000FF701E23D222F0210090142007F033FD05
:100B5000D2231E22F021FA2007F02AFC00214FF6B2
:100B6000FF7007F0B1F8514807F0CBF877A0502399
:100B7000D2223C210090142007F071FF76A0502370
:100B8000D2223C210090FA2007F069FF75A0502383
:100B9000D22296210090142007F061FF74A0502308
:100BA000D22296210090FA2007F059FF74A01E234C
:100BB000D222F0210090FA2007F051FF4FF6FF718A
:100BC000002007F081F871A01E23D222F0210090AE
:100BD000142007F044FF56480121C2699047544849
:100BE0004C49086008BD2DE9F0416C4B1E22D22112
:100BF000012006F04CFA0446694B1E22D221022045
:100C000006F045FA0546674B4622D221032006F03E
:100C10003EFA0646644B4622D221042006F037FAFB
:100C20000746624805F007F8604B2246F021FA209B
:100C300004F08DFC5D4B2A46F021142004F087FC63
:100C40005A4B3246AA21142004F081FC574B3A46F5
:100C5000AA21FA2004F07BFCBDE8F08108B554A07D
:100C600006F041FCFFF7BFFF002007F0CEF84FF67B
:100C7000FF701C235A220C210090142007F09BFCCB
:100C80000E4807F03EF84FF6FF71A3E0910600080A
:100C9000E80100204372656174655F53746172748A
:100CA00053637265656E0D0A00000000D4000020D9
:100CB00053455454494E475300000000CC000020D7
:100CC0005449544C4500000030303A30303A30310D
:100CD0000000000043484155205048554F432056DE
:100CE0005500000042414348204B484F410000005E
:100CF000302E350043484C4F52494E45000000000D
:100D00006D672F6C0000000050482D2D0000000082
:100D1000704800001C0000209F060008A106000883
:100D2000AF060008BD060008BF0600080907000856
:100D30008C0200204372656174655F536574746949
:100D40006E677353637265656E0D0A0050415241C0
:100D50004D4554455253000043414C494252415481
:100D6000494F4E00444F53494E4720544553540079
:100D700054595045204F462050524F4245000000E4
:100D80004C414E4755414745530000004241434BBB
:100D900020544F2053544152540000000B070008C8
:100DA0001F07000833070008410700083003002030
:100DB0004372656174655F446F73696E67546573F0
:100DC00074537461727453746172745363726565A1
:100DD0006E0D0A00002006F077FFAFF21C121421FE
:100DE0000E2007F09CF900214FF6FF7006F06CFF13
:100DF000FE4806F086FFAFF294024FF4AA71142069
:100E000007F08DF94FF668606423D2223C210090F0
:100E1000142007F0D0FB40F2FC406423D2223C2196
:100E20000090FA2007F0C7FB4FF66861002006F03B
:100E30004BFFEF4806F065FFEEA26421782007F033
:100E40006EF9EA4806F05DFFEBA21E21462007F08E
:100E500066F9EBA2A521462007F061F9EAA29B21E1
:100E60007F2007F05CF940F2FC41002006F02CFFE7
:100E7000DF4806F046FFDFA24FF4A571782007F0A7
:100E80004EF9DA4806F03DFFAFF27C124FF4827162
:100E9000462007F044F9DDA24FF4C871462007F060
:100EA0003EF9D9A240F281117F2007F038F94FF6C0
:100EB000FF701E23D222F0210090142007F07BFB4C
:100EC0004FF6FF701E23D222F0210090FA2007F087
:100ED00072FB4FF6686006F008FFD2233C22AA217D
:100EE000142007F065FA40F2FC4006F0FEFED22323
:100EF0003C22AA21FA2007F05BFABC4806F001FF69
:100F000000214FF6FF7006F0DFFEAFF278103C23B1
:100F1000D222AA210090142007F0A1FDAFF28C107C
:100F20003C23D222AA210090FA2007F098FD4FF628
:100F3000FF71002006F0C8FEB6A01E23D222F021C9
:100F40000090FA2007F08BFDAFF2C0101E23D222D2
:100F5000F0210090142007F082FDB0480121C26901
:100F60009047AE48AE49086008BD2DE9F041AD4B51
:100F70001E22D221012006F08AF80446AA4B1E2226
:100F8000D221022006F083F80546A84B3C22D2214C
:100F9000032006F07CF80646A54B3C22D221042013
:100FA00006F075F80746A34804F045FEA14B22461B
:100FB000F021FA2004F0CBFA9E4B2A46F0211420AF
:100FC00004F0C5FA9B4B3246AA21142004F0BFFA64
:100FD000984B3A46AA21FA2004F0B9FABDE8F0810C
:100FE00008B595A006F07FFAFFF7BFFF002006F0D6
:100FF0000CFF4FF6FF701C235A220C210090142086
:1010000007F0D9FA7A4806F07CFE4FF6FF7100200F
:1010100006F05AFEAFF2583214210E2007F07FF886
:1010200000214FF6FF7006F04FFE704806F069FE93
:10103000AFF2D0224FF4AA71142007F070F84FF6E7
:1010400068606423D2223C210090142007F0B3FA98
:1010500040F2FC406423D2223C210090FA2007F0A9
:10106000AAFA4FF66861002006F02EFE604806F0EE
:1010700048FE60A26421782007F051F85B4806F032
:1010800040FE5DA21E21462007F049F85CA2A52182
:10109000462007F044F85CA29B217F2007F03FF830
:1010A00040F2FC41002006F00FFE514806F029FEF8
:1010B00050A24FF4A571782007F031F84B4806F0A4
:1010C00020FEAFF2B4324FF48271462007F027F8C9
:1010D0004EA24FF4C871462007F021F84AA240F210
:1010E00081117F2007F01BF84FF6FF701E23D222DC
:1010F000F0210090142007F05EFA4FF6FF701E23D7
:10110000D222F0210090FA2007F055FA4FF66860DD
:1011100006F0EBFDD2233C22AA21142007F048F967
:1011200040F2FC4006F0E1FDD2233C22AA21FA2045
:1011300007F03EF92D4806F0E4FD00214FF6FF7060
:1011400006F0C2FD45A03C23D222AA210090142023
:1011500007F085FCAFF2C4303C23D222AA210090D4
:10116000FA2007F07CFC4FF6FF71002006F0ACFD82
:1011700028A01E23D222F0210090FA2007F06FFC55
:10118000AFF2F8301E23D222F0210090142007F095
:1011900066FC28480121C26990472648204908601A
:1011A00008BD2DE9F0412F4B1E22D221012005F070
:1011B0006EFF04462C4B1E22D221022005F067FF51
:1011C00005462A4B3C22D221032005F060FF06464B
:1011D000274B3C22D221042005F059FF0746254821
:1011E00004F029FD234B2246F02145E0D4000020E5
:1011F000CC00002031353000444953494E462E0082
:101200003430306D6C0000006D6C00003230306D99
:101210006C0000004241434B0000000030030020FE
:101220001C0000204F07000863070008770700082C
:1012300085070008D40300204372656174655F442C
:101240006F73696E675465737453746F7053746110
:10125000727453637265656E0D0A000053544F50EB
:101260000000000093070008A7070008BB0700085C
:10127000C907000878040020FA2004F068F9FE4B42
:101280002A46F021142004F062F9FB4B3246AA21D1
:10129000142004F05CF9F84B3A46AA21FA2004F035
:1012A00056F9BDE8F08108B5F4A006F01CF9FFF787
:1012B00078FF002006F0A9FD4FF6FF701C235A228C
:1012C0000C210090142007F076F9F54806F019FD7E
:1012D0004FF6FF71002006F0F7FCAFF21C621421FC
:1012E0000E2006F01CFF00214FF6FF7006F0ECFC0C
:1012F000EC4806F006FDAFF294524FF4AA711420A8
:1013000006F00DFF4FF668606423D2223C21009066
:10131000142007F050F940F2FC406423D2223C2113
:101320000090FA2007F047F94FF66861002006F0B8
:10133000CBFCDB4806F0E5FCAFF2481264217820D4
:1013400006F0EDFED74806F0DCFCAFF254121E2189
:10135000462006F0E4FEAFF25812A521462006F022
:10136000DEFEAFF25C129B217F2006F0D8FE40F239
:10137000FC41002006F0A8FCC94806F0C2FCAFF210
:101380008C124FF4A571782006F0C9FEC54806F00E
:10139000B8FCAFF284624FF48271462006F0BFFEC3
:1013A000AFF298124FF4C871462006F0B8FEAFF2C3
:1013B000A81240F281117F2006F0B1FE4FF6FF70B7
:1013C0001E23D222F0210090142007F0F4F84FF6EB
:1013D000FF701E23D222F0210090FA2007F0EBF8D4
:1013E0004FF6686006F081FCD2233C22AA2114202B
:1013F00006F0DEFF40F2FC4006F077FCD2233C22F0
:10140000AA21FA2006F0D4FFA64806F07AFC0021B3
:101410004FF6FF7006F058FCAFF2C0103C23D2220A
:10142000AA210090142007F01AFBAFF2D0103C2341
:10143000D222AA210090FA2007F011FB4FF6FF718B
:10144000002006F041FCAFF234201E23D222F0210E
:101450000090FA2007F003FBAFF2D0601E23D222E7
:10146000F0210090142007F0FAFA83480121C269A4
:10147000904781488C49086008BD2DE9F0418B4BAD
:101480001E22D221012005F002FE0446884B1E22B6
:10149000D221022005F0FBFD0546864B3C22D221DD
:1014A000032005F0F4FD0646834B3C22D2210420A4
:1014B00005F0EDFD0746814804F0BDFB7F4B224659
:1014C000F021FA2004F043F87C4B2A46F021142046
:1014D00004F03DF8794B3246AA21142004F037F885
:1014E000764B3A46AA21FA2004F031F8BDE8F081A3
:1014F00008B573A005F0F7FFFFF7BFFF002006F067
:1015000084FC4FF6FF701C235A220C2100901420FB
:1015100007F051F8624806F0F4FB4FF6FF71002027
:1015200006F0D2FBAFF6680214210E2006F0F7FD9C
:1015300000214FF6FF7006F0C7FB5A4806F0E1FBAA
:10154000AFF2E0724FF4AA71142006F0E8FD4FF6F6
:1015500068606423D2223C210090142007F02BF80D
:1015600040F2FC406423D2223C210090FA2007F094
:1015700022F84FF66861002006F0A6FB484806F006
:10158000C0FBAFF290326421782006F0C8FD4548D8
:1015900006F0B7FBAFF2A0321E21462006F0BFFDD9
:1015A000AFF2A432A521462006F0B9FDAFF2A83271
:1015B0009B217F2006F0B3FD40F2FC41002006F0A5
:1015C00083FB374806F09DFBAFF2D8324FF4A5718C
:1015D000782006F0A4FD334806F093FBAFF6D00266
:1015E0004FF48271462006F09AFDAFF2E0324FF4DC
:1015F000C871462006F093FDAFF2F43240F281113B
:101600007F2006F08CFD4FF6FF701E23D222F021C2
:101610000090142006F0CFFF4FF6FF701E23D22259
:10162000F0210090FA2006F0C6FF4FF6686006F041
:101630005CFBD2233C22AA21142006F0B9FE40F222
:10164000FC4006F052FBD2233C22AA21FA2006F0ED
:10165000AFFE144806F055FB00214FF6FF7006F070
:1016600033FBAFF6D0003C23D222AA2100901420F5
:1016700007F0F5F936E00000780400204372656158
:1016800074655F446F73696E675465737453746FE8
:101690007053746F7053637265656E0D0A000000BD
:1016A000CC000020D40000201C000020D707000838
:1016B000EB070008FF0700080D0800081C050020C4
:1016C0004372656174655F446F73696E67546573D7
:1016D00074537461727453746F7053637265656E82
:1016E0000D0A0000AFF28C403C23D222AA210090C8
:1016F000FA2007F0B4F94FF6FF71002006F0E4FA83
:10170000AFF2F0401E23D222F0210090FA2007F021
:10171000A6F9AFF688101E23D222F02100901420E3
:1017200007F09DF9FE480121C2699047FC48FD4938
:10173000086008BD2DE9F041FB4B1E22D22101209B
:1017400005F0A5FC0446F94B1E22D221022005F02B
:101750009EFC0546F64B5022D221032005F097FC53
:101760000646F44B5022D221042005F090FC074697
:10177000F14804F060FAF04B2246F021FA2003F021
:10178000E6FEED4B2A46F021142003F0E0FEEA4B82
:1017900032463C21142003F0DAFEE74B3A463C2166
:1017A000FA2003F0D4FEBDE8F08108B5E3A005F00F
:1017B0009AFEFFF7BFFF002006F027FB4FF6FF70F1
:1017C0001C235A220C210090142006F0F4FEE2485B
:1017D00006F097FA4FF6FF71002006F075FAAFF6A3
:1017E000203214210E2006F09AFC00214FF6FF70E3
:1017F00006F06AFAD94806F084FAAFF6B02240F251
:101800006311142006F08BFCD22350223C211420BB
:1018100006F0CEFDD22350223C21FA2006F0C8FD6E
:101820004FF668605023D22296210090142006F0D3
:10183000C2FE40F2FC405023D22296210090FA20B2
:1018400006F0B9FE00214FF6FF7006F03DFA4FF6A4
:101850006861002006F038FAC1A05023D2229621F8
:101860000090142007F0FBF840F2FC41002006F045
:101870002BFAAFF664305023D22296210090FA2042
:1018800007F0EDF84FF6FF701E23D222F0210090F2
:10189000142006F090FE4FF6FF701E23D222F02196
:1018A0000090FA2006F087FEAC4806F02AFA0021E4
:1018B0004FF6FF7006F008FAADA05023D2223C216B
:1018C0000090142007F0CBF8ABA05023D2223C218B
:1018D0000090FA2007F0C3F84FF6FF71002006F0E1
:1018E000F3F9AFF2D0601E23D222F0210090FA204B
:1018F00007F0B5F8AFF66C301E23D222F02100902D
:10190000142007F0ACF84FF6FF71002006F0DCF968
:1019100089480121C269904787488249086008BD0B
:101920002DE9F047964B1E22D221012005F0AFFB96
:101930000446944B1E22D221022005F0A8FB054646
:10194000914B3C226421032005F0A1FB06468F4BFE
:101950003C226421042005F09AFB07468C4B3C2274
:10196000D221052005F093FB80468A4B6422D221C8
:10197000062005F08CFB8146874804F05CF9864B15
:101980002246F021FA2003F0E2FD834B2A46F021A3
:10199000142003F0DCFD804B3246AA21142003F012
:1019A000D6FD7D4B3A46AA21822003F0D0FD7A4B2A
:1019B0004246AA21FA2003F0CAFD774B4A463C2151
:1019C000FA2003F0C4FDBDE8F08708B573A005F068
:1019D0008AFDFFF7A5FF002006F017FA4FF6FF700B
:1019E0001C235A220C210090142006F0E4FD5A48D2
:1019F00006F087F94FF6FF71002006F065F9AFF6A3
:101A0000405214210E2006F08AFB00214FF6FF7091
:101A100006F05AF9514806F074F968A24FF4917132
:101A2000142006F07CFB4FF243406423D2223C2179
:101A30000090142006F0BFFD45F2AA206423D222B4
:101A40003C210090FA2006F0B6FD4FF243414FF6DC
:101A5000FF7006F039F9404806F053F95BA26421A3
:101A6000782006F05CFB3D4806F04BF958A21E2199
:101A7000462006F054FB59A29B217F2006F04FFB25
:101A800045F2AA214FF6FF7006F01EF9324806F023
:101A900038F953A24FF4A571782006F040FB2F4887
:101AA00006F02FF94FA2FF21462006F038FB52A284
:101AB00040F281117F2006F032FB4FF6FF701E23AB
:101AC000D222F0210090142006F075FD4FF6FF7031
:101AD0001E23D222F0210090FA2006F06CFD4FF672
:101AE000FF7006F002F964233C22AA21142006F0BC
:101AF0005FFC64233C22AA21822006F059FCD223F9
:101B00003C22AA21FA2006F053FC134806F0F9F80B
:101B100000214FF6FF7006F0D7F838A03C236FE0A5
:101B20001C0500201C0000201B08000829080008D4
:101B30003708000845080008C005002043726561A9
:101B400074655F506172616D657465727353637221
:101B500065656E0D0A000000CC000020D400002056
:101B6000444953494E46454354494F4E00000000F6
:101B7000504F4F4C000000005741544552000000A8
:101B800047080008550800086308000865080008B1
:101B90006708000869080008640600204372656150
:101BA00074655F506172616D6574657273566F6CB8
:101BB000756D6553637265656E0D0A00504F4F4C2D
:101BC00020504152414D455445525300313500009B
:101BD000504F4F4C20564F4C554D45006D33000033
:101BE0003036000046494C54524154494F4E205023
:101BF0004552494F44000000680000002B000000DF
:101C00006422AA210090142006F029FF23A03C237F
:101C10006422AA210090822006F021FF204806F0CD
:101C200070F820A03C23D222AA210090FA2006F0CE
:101C300016FF4FF6FF71002006F046F8AFF62C2095
:101C40001E23D222F0210090FA2006F008FFAFF602
:101C5000C4601E23D222F0210090142006F0FFFE63
:101C60004FF6FF71002006F02FF80F480121C269DE
:101C700090470D480D49086008BD0D48008820B107
:101C80000B480088401E0A490880704708490880B0
:101C900000BF074909880029FBD170472D000000CB
:101CA000D40000204F4B0000640600201C000020E0
:101CB0001800002001B5BDF80000F649088008466C
:101CC000008806F012F808BD01B5BDF80000F24921
:101CD00008800846008806F00EF808BD10B50446D6
:101CE000204606F092F810BD2DE9F04105460E465B
:101CF00014469846E74807882046FFF7DBFF314641
:101D0000284605F093FF3846FFF7D4FFBDE8F08181
:101D10002DE9F04706468846174600240025A146CF
:101D2000A246B146C24600BF2EE0002522E0DB48B5
:101D3000007828B937F814000121A940084048B1BB
:101D4000D648007801280AD137F8140080212941AB
:101D5000084020B909F101001FFA80F909E048465E
:101D6000421C1FFA82F90823CA490A885146FFF724
:101D7000BBFF6D1CCA4800788542D8D30AF1010028
:101D80001FFA80FAB146641CC64800788442CCD35E
:101D9000BDE8F0872DE9F84F06468846174600242F
:101DA0000025A246A14600200090B246C14600BFD1
:101DB00030E0002524E0B948007828B937F814004D
:101DC0000121A940084048B1B4480078012809D150
:101DD00037F8140080212941084018B9AE4800881E
:101DE000009002E0AB48008800905046421C1FFA69
:101DF00082FA0223BDF800204946FFF775FF6D1CEB
:101E0000A74800788542D6D309F101001FFA80F96E
:101E1000B246641CA34800788442CAD3BDE8F88F58
:101E20002DE9F04107460D4614461E46A4F1200058
:101E3000C4B29A48007810B1012834D119E0012EBB
:101E40000BD19948016897480078604301EB400244
:101E500039462846FFF75CFF0AE093490B68914931
:101E60000978614303EB4102E8B23946FFF792FF7C
:101E70001AE0012E0BD18D4801688A480078604332
:101E800001EB400239462846FFF742FF0AE0874946
:101E90000B6884490978614303EB4102E8B2394693
:101EA000FFF778FF00E000BF00BFBDE8F0812DE93B
:101EB000F04707460D461446984600267C480088A1
:101EC000411B77480078401E91FBF0F90BE0227827
:101ED000434629463846FFF7A3FF71480078284457
:101EE00085B2641C761C207808B1012000E0002037
:101EF0004E4501D2012100E0002108400028E6D132
:101F0000BDE8F0872DE9F04104460D4616461F4610
:101F1000A21B521C91B2EA1B521C90B223462A46C5
:101F200005F067FEBDE8F0812DE9F04104460D465D
:101F300016461F463B4632462946204606F001FA21
:101F4000BDE8F0812DE9F04106460F4614461D46D6
:101F500023462A463946304606F02AFABDE8F08183
:101F600070B504460D46164632462946204606F010
:101F700040FA70BD002202600A7802604B78026865
:101F800002EB032202608B78026802EB03420260DC
:101F9000CB78026802EB0362026070477CB50446AE
:101FA000002001900090A11C6846FFF7E3FF04F1B8
:101FB0000A0101A8FFF7DEFF36200107088088200C
:101FC0004FF0C24108802C20C10608800DE0019826
:101FD000205C01992144497800EB012085B24FF043
:101FE000C24005800198801C0190DDE90010884204
:101FF000EDD336200107088008204FF0C241088049
:102000007CBD10B504462548047014B1012C14D1D0
:1020100009E010202249087018202249087025483C
:1020200005F06FFE0AE008201D4908700C201D49CC
:102030000870214805F065FE00E000BF00BF10BD3C
:1020400010B504461CB9032008F0C5FC04E0012CBF
:1020500002D1032008F0B7FC10BD10B505F0BEFD9D
:1020600010BD10B540F20F1340F2DF1200210846F8
:1020700005F0BFFD10BD2DE9F04104460D460026D8
:102080000027B0462946204605F0E4FD06463046C6
:10209000BDE8F0812A0000202C0000202000002054
:1020A00021000020220000204C00002064000020BD
:1020B00026000020CC000020E4000020D149087058
:1020C000097839B936210A07118008214FF0C24238
:1020D000118022E0CB490978012907D136210A076E
:1020E000118068214FF0C242118016E0C54909787D
:1020F000022907D136210A071180C8214FF0C242B8
:1021000011800AE0BF490978032906D136210A0760
:102110001180A8214FF0C242118070472DE9F0478D
:1021200004460D46904600260027B146B246B54803
:10213000007818B1B348007802280FD1A146B24800
:1021400000782844401E83B2B04800782044401EE6
:1021500082B22946204605F04CFD16E0A9480078D9
:10216000012803D0A748007803280ED1AA46A74823
:1021700000782844401E83B2A34800782044401EC3
:1021800082B22946204605F034FD2C20C106088085
:10219000002625E000271EE09D48007828B938F881
:1021A00016000121B940084048B19948007801283B
:1021B0000BD138F8161080203841014029B99548D4
:1021C00000884FF0C241088004E0934800884FF037
:1021D000C24108807F1C8D4800788742DCD3761C82
:1021E000894800788642D5D3BDE8F08770B50546AA
:1021F0000E461446A4F12000C4B28548007810B100
:10220000012818D10BE0854801687F4800786043B9
:1022100001EB400229463046FFF780FF0CE0804882
:10222000016879480078604301EB40022946304656
:10223000FFF774FF00E000BF00BF70BD2DE9F0475D
:1022400007460E4614464FF000080025A94675487B
:1022500007806C48007848B9734800886B49097852
:1022600090FBF1F000F0FF09354632E06548007858
:1022700001280BD16D4800886449097890FBF1F082
:1022800000F0FF093D466748068022E05D4800787F
:1022900002280CD1644800885C49097890FBF1F071
:1022A00000F0FF0959480078301A85B211E055480E
:1022B000007803280DD15D4800885449097890FBC7
:1022C000F1F000F0FF0951480078381A85B25548FE
:1022D00006803CE04B48007850B9227829465148A6
:1022E0000088FFF783FF49480078284485B22BE037
:1022F0004448007801280AD122784A4801882846B3
:10230000FFF774FF41480078284485B21CE03D483F
:10231000007802280AD12278294642480088FFF72F
:1023200065FF3A480078281A85B20DE035480078F4
:10233000032809D122783B4801882846FFF756FF39
:1023400032480078281A85B2641C08F10108207808
:1023500008B1012000E00020C84501D2012100E0C1
:10236000002108400028B5D1BDE8F08710B5029CD7
:1023700010BD2DE9FC4704460D4616461F46DDF804
:1023800028800020019000908146A11C6846FFF73C
:10239000F1FD04F10A0101A8FFF7ECFDF019401E60
:1023A00083B205EB0800401E82B231462846FFF793
:1023B000A9FD36200107088088204FF0C24108801F
:1023C0002C20C10608800FE00198205C019921446F
:1023D000497800EB01201FFA80F94FF0C240A0F8C5
:1023E00000900198801C0190DDE900108842EBD339
:1023F00036200107088008204FF0C2410880BDE860
:10240000FC8700002800002022000020210000207E
:10241000200000202C0000202A0000204C0000207A
:10242000640000202E000020260000202400002050
:102430002DE9F74F82B08346914600250020019098
:102440009E480068D0F8008009F00100002830D0D4
:102450009A4800680068C71C98480068D0F80CA02B
:1024600000BF22E00026002419E01EB93878019050
:102470007F1C80260198304070B13AF8022B8F4BB8
:102480001B68DB882B4499B28C4B1B689B882344C8
:1024900098B20823FFF728FC7610601CC4B298F8A5
:1024A0000000A042E1DC681CC5B298F80100A84217
:1024B000D8DC09F0020000282DD0804800680068B0
:1024C000C71C7E480068D0F80CA000251FE000263D
:1024D000002416E01EB9387801907F1C80260198F0
:1024E000304058B1039A2A4491B20BEB040290B2E7
:1024F000FFF7C1FDAAF800000AF1020A7610601C7D
:10250000C4B298F80000A042E4DC681CC5B298F898
:102510000100A842DBDC09F0040010B9B9F1080F92
:1025200029D1664800680068C71C00251FE0002606
:10253000002416E01EB9387801907F1C802601988F
:10254000304058B15D4B1B681A8A039B2B4499B2EB
:102550000BEB040398B20823FFF7C6FB7610601C50
:10256000C4B298F80000A042E4DC681CC5B298F838
:102570000100A842DBDC51480068A0F804B04F49D4
:1025800003980968C88005B0BDE8F08F70B50446AF
:102590000D46012229462046FFF74AFF062229461A
:1025A0002046FFF745FF70BD70B5064643480068FA
:1025B000C488424800688588012E06D0022E32D099
:1025C000032E1DD0042E36D107E0042C01DB04209D
:1025D00000E02046201A84B22EE039480088001B13
:1025E00038494978401A042801DB042005E03448C2
:1025F0000088001B33494978401A204484B21BE00C
:1026000031480088401B2F490978401A042801DB13
:10261000042005E02C480088401B2A490978401A0C
:10262000284485B208E0042D01DB042000E02846A0
:10263000281A85B200E000BF00BF21462846FFF7F8
:10264000A5FF032004F0EEF970BD10B50446142078
:102650000EF0B2F8194908600846006808B9002071
:1026600010BD18490978174A527811FB02F1480049
:102670000EF0A2F811490968C86010480068C068E7
:1026800008B90020ECE70CB90E4800E020460B49E1
:102690000968086000200949096808822020074964
:1026A000096808720120DBE770B504460D46062272
:1026B00029462046FFF7BCFE70BD00003000002018
:1026C0002600002034000020240000202DE9F041E5
:1026D00004460D4616461F46601B82B2002339464B
:1026E0002846FFF721FC601B82B2002331462846B2
:1026F000FFF71AFCF01B82B2012339462846FFF788
:1027000013FCF11B8AB2611E88B201233946FFF720
:102710000BFCBDE8F0812DE9F04707460C469046DA
:102720001D46DDF8209000262B46424621463846BD
:10273000FFF7CCFF4846FFF7BDFA01260AE03B1B36
:102740009B1E9AB2AB1999B2631C98B20023FFF793
:10275000EBFB761CA8EB0500B042F0D8BDE8F08793
:102760002DE9F04105460E461446984602272A1BDD
:1027700091B2321BD0B22246FFF7F2FB631E9AB22F
:102780002B1B99B2331BD8B2FFF7EAFB4046FFF789
:1027900091FA08E0E31B9AB22B1B99B2331BD8B213
:1027A000FFF7DEFB7F1CA742F4D3BDE8F0812DE9E3
:1027B000F04F85B004460D4617461E460020049093
:1027C0008046814682460390029083460190B5423E
:1027D00008D1BC4206D10823214628460E9AFFF7AD
:1027E00083FAA1E0BC4221D1B54202DDB0462E46BB
:1027F00045460123214628460E9AFFF775FA681CC4
:102800001FFA80F909E00223214628460E9AFFF7B5
:102810006BFA09F101001FFA80F9B145F3DB0423DB
:10282000214630460E9AFFF75FFA7DE0B54219D196
:10283000BC4202DDB846274644460E98A5F1020C7C
:102840000CF0FF03A6F1010C0CF0FF02A4F1010C47
:102850001FFA8CF1A7F1010C00901FFA8CF0FFF722
:102860005AFF61E0BC4201DDE01B00E0381BB542CD
:1028700001DDA91B00E0711B884201DD012000E0A1
:1028800000200490049828B1A0462C464546B8463E
:1028900037464646B54205DDA0463C464746B0466B
:1028A0002E464546701B80B20390BC4201DDE01B02
:1028B00000E0381B80B202900399491C484200EBAB
:1028C000D07149100FFA81FBA246BC4202DA012006
:1028D000019002E04FF0FF300190A94622E00498F9
:1028E00030B10823494650460E9AFFF7FDF905E03E
:1028F0000823514648460E9AFFF7F6F902985844C5
:102900000FFA80FBBBF1000F08DB019850441FFA5F
:1029100080FA0398ABEB00000FFA80FB09F101008D
:102920001FFA80F9B145DADD05B0BDE8F08F70B56A
:1029300004460D46A4F11E0188B200233C2229461C
:10294000FFF7F2FAA5F11E0081B201233C222046D6
:10295000FFF7EAFA70BD2DE9F04104460E46154630
:102960001F46DDF81880A01B83B2E81B82B2214607
:102970002846FFF7C7FA4046FFF710FBFE4A1288C9
:10298000521E91B2FD4A1288521E90B2FA4A138822
:10299000FA4A1288FFF7B6FABDE8F0812DE9F04156
:1029A00004460F461546002638460EF0A6F8691E66
:1029B000884203D238460EF0A0F800E0681E0646B2
:1029C0003EB13246394620460EF04CF90020A05563
:1029D00001E000202070BDE8F081014609B9002027
:1029E0007047012081F8310000BFF9E72DE9FF4170
:1029F0000646884617460024002536200DF0DCFEEA
:102A00000446F4B126802E224146A01CFFF7C6FFE3
:102A10009DF80C0084F83000BDF82800608684F82A
:102A200034702046FFF7D9FF18200DF0C5FE05468B
:102A30001DB16C600420287403E020460DF0EBFE0D
:102A40000024284604B0BDE8F081014609B9002001
:102A50007047002008770120487700BFF8E72DE98C
:102A6000F0410646884617460025002424200DF034
:102A7000A3FE0446DCB12680C148A060C148606066
:102A80001022414604F10C00FFF788FF2762204620
:102A9000FFF7DBFF18200DF08FFE05461DB16C60BF
:102AA0000120287403E020460DF0B5FE00242846DE
:102AB000BDE8F081014609B900207047002081F887
:102AC0002500012081F8260000BFF6E72DE9F0413E
:102AD000064688461746002400252C200DF06CFE83
:102AE0000446DCB126801922414604F10C00FFF7B0
:102AF00055FFA548A060A5486060A7622046FFF783
:102B0000D9FF18200DF058FE05461DB16C6003205A
:102B1000287403E020460DF07EFE00242846BDE820
:102B2000F081014609B90020704701204876984895
:102B3000486098488860002008760120F4E72DE975
:102B4000F0410446884617460025002614B16088E7
:102B5000032802D10020BDE8F08120200DF02CFEDA
:102B60000546FDB12C600C22414605F10C00FFF733
:102B700015FFEF6118200DF01FFE06469EB175602F
:102B8000022030742846FFF7CCFF6188201D40F8F2
:102B900021606088401C60806088012807D16168DE
:102BA0004968087603E028460DF035FE00253046DA
:102BB000D1E7014609B90020704700204880AFF2F4
:102BC000810008610120F7E770B505460024142054
:102BD0000DF0F2FD04461CB125802046FFF7E9FF09
:102BE000204670BD014609B9002070474FF6FF70BE
:102BF000088010204880002008760120F5E72DE9A4
:102C0000F04104460F461646002514B1A08A0A2852
:102C100002D10020BDE8F08120200DF0CDFD054659
:102C2000BDB16C601022394605F10800FFF7B6FE11
:102C3000EE612846FFF7D6FFA18A04F1180040F89C
:102C40002150A08A401CA082A08A012801D1A1693C
:102C500008760120DEE7014609B9002070474E489A
:102C600048604E48086001208874002008728882FD
:102C7000AFF2750008640120F0E770B50646002445
:102C8000002544200DF098FD044684B1268220469C
:102C9000FFF7E1FF18200DF08FFD05461DB16C60B8
:102CA0000720287403E020460DF0B5FD00242846D7
:102CB00070BD014609B900207047002081F82C0042
:102CC000012081F82D0000BFF6E72DE9F047064608
:102CD0008946174698460024002534200DF06CFDE7
:102CE000044614B326802E48A0602E48606010224F
:102CF000494604F10C00FFF751FE1022394604F159
:102D00001C00FFF74BFEC4F830802046FFF7D1FFD0
:102D100018200DF051FD05461DB16C60052028748A
:102D200003E020460DF077FD00242846BDE8F0873B
:102D3000014609B9002070470020C87201200873BD
:102D400000BFF8E72DE9F04706460F469046994642
:102D5000DDF820A00024002514200DF02DFD0446F0
:102D60004CB126806760A4F8088084F80A90C4F803
:102D700010A0204618E026E02600002024000020B5
:102D8000DCB9010882BF01082C9F01088EA201084E
:102D900068980108CA9B0108F0A50108FAA9010872
:102DA00028C50108CECA0108FFF7C2FF18200DF0A0
:102DB00003FD05461DB16C600620287403E0204623
:102DC0000DF029FD00242846BDE8F08710B5044623
:102DD0000CB9002010BD012084F82800FE49896844
:102DE00048000DF0E9FC60620120F3E72DE9F047AF
:102DF00006468946174698460024002530200DF0E7
:102E0000DBFC04462CB32680F4486060F448A060E4
:102E10001022494604F10C00FFF7C0FD04F81C7FA6
:102E2000122060707620A07064202071E070002075
:102E300060716420A071C4F810801C3C2046FFF72C
:102E4000C5FF18200DF0B8FC05461DB16C600820C8
:102E5000287403E020460DF0DEFC00242846BDE87F
:102E6000F087014609B900207047012081F87500FC
:102E700000BFF9E72DE9F04707468A469046994694
:102E8000089E0025002476200DF096FC0446002CB8
:102E900032D0002084F87400278007225146A01CFD
:102EA000FFF77CFD0722414604F10900FFF776FD9C
:102EB000322E09DD6422494604F110000DF03CFE7B
:102EC000322084F8740007E07200494604F11000D3
:102ED0000DF032FE84F874602046FFF7C2FF182020
:102EE0000DF06AFC05461DB16C600920287403E0F2
:102EF00020460DF090FC00242846BDE8F0870146EE
:102F000009B900207047012081F8DA0000BFF9E715
:102F10002DE9F05F07468A4690469946DDE90A6B3F
:102F200000250024DC200DF047FC0446002C34D0A2
:102F3000002084F8D800278007225146A01CFFF704
:102F40002DFD0722414604F10900FFF727FD642EFD
:102F500009DDC822494604F110000DF0EDFD6420A2
:102F600084F8D80007E07200494604F110000DF023
:102F7000E3FD84F8D86084F8D9B02046FFF7BFFF9E
:102F800018200DF019FC05461DB16C600A2028744C
:102F900003E020460DF03FFC00242846BDE8F09FEA
:102FA00070B505466C680CB9002070BD8DA004F0AA
:102FB0009AFA0120E07195A004F095FA0020FFF73D
:102FC00020F89EA004F08FFA4FF6FF70FEF77CFE0B
:102FD000A7A004F088FA1020FEF76CFEB0A004F061
:102FE00082FA0120E1E707B5AAB0002028904FF44B
:102FF00000401F909FEDB60B8DED140B2A98406892
:103000000F900F9810B900202DB000BD01210F982E
:1030100080F8DA109FEDAE0B8DED160BAE480088F0
:1030200035380E900FF0BBF9CDE91201AB4800889E
:103030003F380E900FF0B3F9CDE91C019FEDA80BBE
:1030400053EC102B9DED120B51EC100B0EF06EFF9C
:10305000CDE922019DED1C0B8DED200B9E480088D3
:1030600048380E900FF09BF9CDE924019B48008869
:1030700051380E900FF093F9CDE926010F9890F892
:10308000D8000B900FF0A2F9CDE90C019DED0C0BCF
:1030900053EC102B9DED240B51EC100B0EF0FAFFAE
:1030A000CDE918019FED900B53EC102B9DED260BF5
:1030B00051EC100B0EF0EEFFCDE91A010020FEF7E7
:1030C000F9FD0120FEF79DFF9FED890B53EC102BBE
:1030D0009DED240B51EC100B0EF028FFCDE90A01F9
:1030E0009DED0A0B51EC100B0FF02CF980B20E90F5
:1030F0009DED120B51EC100B0FF024F980B20D90E6
:103100009DED1C0B51EC100B0FF01CF980B200234D
:103110000C90DDE90D12FEF707FF9DED260B51EC3B
:10312000100B0FF00FF980B20E909DED120B51ECC9
:10313000100B0FF007F980B20D909DED260B53ECAC
:10314000102B9DED1C0B51EC100B0FF0CFFACDE9BD
:103150000A019DED0A0B51EC100B0FF0F3F880B251
:1031600001230C90DDE90D12FEF7DEFE9FED620BF0
:1031700053EC102B9DED120B51EC100B0EF0D6FE04
:10318000CDE90A019DED0A0B51EC100B0FF0DAF8B6
:1031900080B29FED5B0B53EC102B0E909DED1C0B42
:1031A00051EC100B0EF0C2FECDE90A019DED0A0BA9
:1031B00051EC100B0FF0C6F880B2012352A20D9013
:1031C0000E99FEF774FE9FED510B53EC102B9DED05
:1031D000220B51EC100B9DE07C00002026CF010853
:1031E00054CE0108696E205365744E65775265634D
:1031F00074436F6E74726F6C56697369626C65208C
:103200004E6577726563740D0A000000696E205385
:1032100065744E657752656374436F6E74726F6C3C
:1032200056697369626C6520474C5F54525545205E
:103230004E6577726563740D0A000000696E205355
:1032400065744E657752656374436F6E74726F6C0C
:1032500056697369626C6520474C5F464F4E545FF8
:10326000424947204E6577726563740D0A0000007D
:10327000696E205365744E657752656374436F6E53
:1032800074726F6C56697369626C6520474C5F5746
:1032900068697465204E6577726563740D0A000075
:1032A000696E205365744E657752656374436F6E23
:1032B00074726F6C56697369626C6520474C5F422B
:1032C0006C7565204E6577726563740D0A000000A9
:1032D0000000000000000000260000202400002064
:1032E0000000000000001040000000000000264028
:1032F000000000000000004000000000000014403A
:103300000000000000001840300000000000000035
:10331000000032400EF00AFE9FEDFE0B53EC102B26
:10332000CDE908019DED080B51EC100B0FF0DEF913
:10333000CDE90A019DED0A0B51EC100B0FF002F8DC
:1033400080B21FED130B53EC102B0E909DED200B54
:1033500051EC100B0FF0CAF9CDE90A019DED0A0BF3
:1033600051EC100B0EF0EEFF80B20123AFF26802B9
:103370000D900E99FEF79BFD0F9890F8D90001284B
:1033800053D11FED250B53EC102B9DED240B51EC6D
:10339000100B0EF0CBFDCDE908019DED080B51ECB3
:1033A000100B0EF0CFFF80B20E909DED260B51EC6E
:1033B000100B0EF0C7FF80B20D909DED120B51EC7B
:1033C000100B0EF0BFFF80B29FEDD40B53EC102B0F
:1033D0000C909DED1C0B51EC100B0FF087F9CDE913
:1033E00008019DED080B51EC100B0EF0ABFF80B205
:1033F0000B900CA90EC9FEF785FD0020FEF76EFCB0
:10340000C8480088401E80B20E90C7480088401E01
:1034100080B20D90C3480388C3480288DDE90D01DE
:10342000FEF770FD4FF6F0701F9021E00F981030FE
:10343000289930F911000B900EF0B1FFCDE90C0185
:103440009DED160B53EC102B9DED0C0B51EC100B5E
:103450000FF00AF909D20F981030289930F91100AD
:103460000E900EF09CFFCDE916012898401C289084
:103470000F9890F8D81028988142D7D89DED1A0B54
:1034800053EC102B9DED260B51EC100B0FF02EF989
:10349000CDE90C019DED0C0B53EC102B9DED160BA3
:1034A00051EC100B0EF0F6FDCDE914010020289030
:1034B000C3E1289800287CD00020FEF7FBFB9DED9F
:1034C000220B51EC100B0EF03DFF80B20E902898AD
:1034D0000EF07CFFCDE906019DED1A0B53EC102B8D
:1034E0009DED060B51EC100B0EF0C0FFCDE908016D
:1034F0009DED200B53EC102B9DED080B51EC100BA8
:103500000FF0E8F8CDE90A019DED0A0B51EC100B24
:103510000EF018FF80B2002304220D900E99FEF7E2
:1035200003FD44F20820FEF7C5FB1FED8F0B53ECA3
:10353000102B9DED240B51EC100B0EF0F7FCCDE998
:103540000A019DED0A0B51EC100B0EF0FBFE80B250
:103550001FED9D0B53EC102B0E909DED220B51ECAB
:10356000100B0FF0C3F8CDE90A019DED0A0B51ECE9
:10357000100B0EF0E7FE80B20D9028980EF026FF9B
:10358000CDE906019DED1A0B53EC102B9DED060BBA
:1035900051EC100B0EF06AFFCDE908019DED200BF8
:1035A00053EC102B9DED080B51EC100B0FF092F823
:1035B00000E00EE0CDE90A019DED0A0B51EC100B85
:1035C0000EF0C0FE80B200230C90DDE90D12FEF774
:1035D000ABFC28980A287DD10020FEF76BFB9FEDFD
:1035E000530B53EC102B9DED220B51EC100B0EF0F6
:1035F0009DFCCDE90A019DED0A0B51EC100B0EF07C
:10360000A1FE80B20E9028980EF0E0FECDE90201F6
:103610009DED1A0B53EC102B9DED020B51EC100B92
:103620000EF024FFCDE904019DED200B53EC102B8F
:103630009DED040B51EC100B0FF04CF81FEDD40B6B
:1036400053EC102BCDE906019DED060B51EC100B50
:103650000FF04CF89FED370B53EC102BCDE9080120
:103660009DED080B51EC100B0FF040F8CDE90A016D
:103670009DED0A0B51EC100B0EF064FE80B201239D
:103680000D900F9A09320E99FEF711FC9DED160B65
:1036900053EC102B29A110A80DF0E4F89FED290B95
:1036A00053EC102B9DED160B51EC100B0EF0A2FEFF
:1036B0006AD29FED1E0B53EC102B9DED220B51ECAB
:1036C000100B0EF033FCCDE90A019DED0A0B51EC15
:1036D000100B00E0AEE00EF035FE80B20E902898A0
:1036E0000EF074FECDE904019DED1A0B53EC102B86
:1036F0009DED040B51EC100B0EF0B8FECDE9060168
:103700009DED200B53EC102B9DED060B51EC100B97
:103710001CE000000000000000002240000000004B
:103720000000F03F260000202400002000000000E0
:1037300000004240000000000000304025342E31DF
:10374000660000000000000000408F400EF0C2FF45
:103750009FEDFE0B53EC102BCDE908019DED080BFE
:1037600051EC100B0EF0C2FFCDE90A019DED0A0BE2
:1037700051EC100B0EF0E6FD80B2012310AA0D9063
:103780000E99FEF794FB55E09FEDF20B53EC102BD6
:103790009DED220B51EC100B0EF0C8FB1FED1D0B25
:1037A00053EC102BCDE908019DED080B51EC100BEB
:1037B0000EF0BCFBCDE90A019DED0A0B51EC100B9C
:1037C0000EF0C0FD80B20E9028980EF0FFFDCDE9FE
:1037D00004019DED1A0B53EC102B9DED040B51ECE5
:1037E000100B0EF043FECDE906019DED200B53ECCE
:1037F000102B9DED060B51EC100B0EF06BFF9FEDA7
:10380000D30B53EC102BCDE908019DED080B51ECC7
:10381000100B0EF06BFFCDE90A019DED0A0B51EC88
:10382000100B0EF08FFD80B2012310AA0D900E999F
:10383000FEF73DFB2898401C289028980A287FF620
:1038400038AE00202890FDE39DED180B53EC102BB3
:103850009DED120B51EC100B0EF048FFCDE912015B
:103860000020FEF727FA1FED530B53EC102B9DEDB4
:10387000120B51EC100B0EF059FBCDE90A019DED36
:103880000A0B51EC100B0EF05DFD80B20E909DED19
:103890001C0B51EC100B0EF055FD80B201230422DD
:1038A0000D900E99FEF740FB0F9890F8D8000F2866
:1038B0006CDC289A521CA9A110A80CF0D3FF9FED34
:1038C000A80B53EC102B9DED120B51EC100B0EF0CE
:1038D0002DFBCDE90A019DED0A0B51EC100B0EF00A
:1038E00031FD80B29FED9E0B53EC102B0E909DEDA1
:1038F0001C0B51EC100B0EF019FBCDE90A019DEDEC
:103900000A0B51EC100B0EF01DFD80B2012310AA22
:103910000D900E99FEF7CBFA44F20820FEF7CAF993
:103920009DED260B51EC100B0EF00CFD80B21FED3F
:10393000850B53EC102B0E909DED120B51EC100BE0
:103940000EF0F4FACDE90A019DED0A0B51EC100BD3
:103950000EF0F8FC80B20D909DED260B53EC102B71
:103960009DED1C0B51EC100B0EF0C0FECDE90A01D1
:103970009DED0A0B51EC100B0EF0E4FC80B201231C
:103980000C90DDE90D12FEF7CFFA87E10F9890F861
:10399000D8000F287BDD0F9890F8D800282876DC17
:1039A0002898401C0321B0FBF1F201FB1200002813
:1039B000EBD1289A521C69A110A80CF053FF9FED7F
:1039C000680B53EC102B9DED120B51EC100B0EF00D
:1039D000ADFACDE90A019DED0A0B51EC100B0EF08A
:1039E000B1FC80B29FED5E0B53EC102B0E909DED61
:1039F0001C0B51EC100B0EF099FACDE90A019DED6C
:103A00000A0B51EC100B0EF09DFC80B2012310AAA2
:103A10000D900E99FEF74BFA44F20820FEF74AF992
:103A20009DED260B51EC100B0EF08CFC80B21FEDBF
:103A3000C50B53EC102B0E909DED120B51EC100B9F
:103A40000EF074FACDE90A019DED0A0B51EC100B52
:103A50000EF078FC80B20D909DED260B53EC102BF0
:103A60009DED1C0B51EC100B0EF040FECDE90A0150
:103A70009DED0A0B51EC100B0EF064FC80B201239B
:103A80000C90DDE90D12FEF74FFA07E1FFE70F9802
:103A900090F8D800282858DD0F9890F8D8004628CC
:103AA00053DC2898401C00F003000028EDD1289A30
:103AB000521C2AA110A80CF0D5FE9FED290B53EC47
:103AC000102B9DED120B51EC100B0EF02FFACDE9DF
:103AD0000A019DED0A0B51EC100B0EF033FC80B285
:103AE0009FED1F0B53EC102B0E909DED1C0B51EC1A
:103AF000100B0EF01BFACDE90A019DED0A0B51ECFB
:103B0000100B0EF01FFC80B2012310AA0D900E992D
:103B1000FEF7CDF944F20820FEF7CCF89DED260B18
:103B200051EC100B0EF00EFC80B29FED0F0B53EC1E
:103B3000102B0E909DED120B51EC100B0EF0F6F9C0
:103B4000CDE90A019DED0A0B12E031E00000000012
:103B50000000144000000000000020402564000028
:103B60000000000000001840000000000000F03FCE
:103B700051EC100B0EF0E6FB80B20D909DED260B84
:103B800053EC102B9DED1C0B51EC100B0EF0AEFD09
:103B9000CDE90A019DED0A0B51EC100B0EF0D2FBA2
:103BA00080B201230C90DDE90D12FEF7BDF975E03E
:103BB0002898401C0A21B0FBF1F201FB12000028FA
:103BC0006CD1289A521CAFF26C0110A80CF04AFE7E
:103BD0001FED1D0B53EC102B9DED120B51EC100B38
:103BE0000EF0A4F9CDE90A019DED0A0B51EC100B82
:103BF0000EF0A8FB80B21FED260B53EC102B0E909D
:103C00009DED1C0B51EC100B0EF090F9CDE90A0163
:103C10009DED0A0B51EC100B0EF094FB80B20123CA
:103C200010AA0D900E99FEF742F944F20820FEF713
:103C300041F89DED260B51EC100B0EF083FB80B28A
:103C40001FED370B53EC102B0E909DED120B51EC2A
:103C5000100B0EF06BF9CDE90A019DED0A0B51EC4A
:103C6000100B0EF06FFB80B20D909DED260B53EC08
:103C7000102B9DED1C0B51EC100B0EF037FDCDE918
:103C80000A019DED0A0B51EC100B0EF05BFB80B2AC
:103C900001230C90DDE90D12FEF746F92898002863
:103CA0007DD10F981030289930F9110003900EF053
:103CB00076FBCDE904019DED140B53EC102B9DED2B
:103CC000040B51EC100B0EF0E5F9CDE906019DED6A
:103CD0001C0B53EC102B9DED060B51EC100B0EF052
:103CE000F9FCCDE908019DED080B51EC100B0EF02D
:103CF00029FB80B20E909DED120B51EC100B0EF0D3
:103D000021FB80B20D909DED1C0B51EC100B0EF0C1
:103D100019FB80B20C909DED180B53EC102B9DED10
:103D2000120B51EC100B0EF001F9CDE908019DEDDD
:103D3000080B51EC100B0EF005FB80B20B90BDF898
:103D40007C0000900BA80FC8FEF731FD0F981030D3
:103D5000289930F9110001900EF021FBCDE9020104
:103D60009DED140B53EC102B9DED020B51EC100B41
:103D70000EF090F9CDE904019DED1C0B53EC102BD6
:103D80009DED040B51EC100B0EF0A4FC1FED8A0B03
:103D900053EC102BCDE906019DED060B00E0B2E0DF
:103DA00051EC100B0EF0A2FCCDE908019DED080BC3
:103DB00051EC100B0EF0C6FA80B20E909DED120B76
:103DC00051EC100B0EF0BEFA80B21FED990B53ECC4
:103DD000102B0D909DED1C0B51EC100B0EF086FC82
:103DE000CDE908019DED080B51EC100B0EF0AAFA7D
:103DF00080B20C909DED180B53EC102B9DED120B27
:103E000051EC100B0EF092F8CDE908019DED080B76
:103E100051EC100B0EF096FA80B20B90BDF87C00BE
:103E200000900BA80FC8FEF7C2FC0F98103028991D
:103E300030F9110003900EF0B2FACDE904019DEDC6
:103E4000140B53EC102B9DED040B51EC100B0EF0EA
:103E500021F9CDE906019DED1C0B53EC102B9DEDD6
:103E6000060B51EC100B0EF035FCCDE908019DED71
:103E7000080B51EC100B0EF065FA80B21FEDC60B6B
:103E800053EC102B0E909DED120B51EC100B0EF01D
:103E90002DFCCDE908019DED080B51EC100B0EF047
:103EA00051FA80B20D909DED1C0B51EC100B0EF0F1
:103EB00049FA80B20C909DED180B53EC102B9DED40
:103EC000120B51EC100B0EF031F81FEDD90B53EC27
:103ED000102BCDE906019DED060B51EC100B0EF0F9
:103EE00005FCCDE908019DED080B51EC100B0EF01F
:103EF00029FA80B20B90BDF87C0000900BA80FC887
:103F0000FEF755FCA5E10F981030289930F9110003
:103F100003900EF044FACDE904019DED140B53EC2F
:103F2000102B9DED040B51EC100B0EF0B3F8CDE906
:103F300006019DED1C0B53EC102B9DED060B51EC77
:103F4000100B0EF0C7FBCDE908019DED080B51ECFD
:103F5000100B0EF0F7F980B20E909DED120B51ECA4
:103F6000100B0EF0EFF980B20D902898411E0F98BB
:103F7000103030F9110003900EF011FACDE9040170
:103F80009DED140B53EC102B9DED040B51EC100B1D
:103F90000EF080F8CDE906019DED1C0B53EC102BC3
:103FA0009DED060B51EC100B0EF094FBCDE90801D2
:103FB0009DED080B51EC100B0EF0C4F980B20C9083
:103FC0009DED180B53EC102B9DED120B51EC100BCB
:103FD0000DF0ACFFCDE908019DED080B51EC100B85
:103FE0000EF0B0F980B20B90BDF87C0000900BA8E9
:103FF0000FC8FEF7DCFB0F981030289930F911003C
:1040000001900EF0CCF9CDE902019DED140B53ECBB
:10401000102B9DED020B51EC100B0EF03BF8CDE98F
:1040200004019DED1C0B53EC102B9DED040B51EC8A
:10403000100B0EF04FFB9FEDFC0B53EC102BCDE95A
:10404000060100E04CE19DED060B51EC100B0EF06B
:104050004DFBCDE908019DED080B51EC100B0EF066
:1040600071F980B29FEDF00B53EC102B0E909DED8B
:10407000120B51EC100B0EF039FBCDE908019DED50
:10408000080B51EC100B0EF05DF980B20D902898E2
:10409000411E0F98103030F9110001900EF07FF999
:1040A000CDE902019DED140B53EC102B9DED020B9D
:1040B00051EC100B0DF0EEFFCDE904019DED1C0B52
:1040C00053EC102B9DED040B51EC100B0EF002FB8A
:1040D0009FEDD50B53EC102BCDE906019DED060BA2
:1040E00051EC100B0EF002FBCDE908019DED080B21
:1040F00051EC100B0EF026F980B20C909DED180BD0
:1041000053EC102B9DED120B51EC100B0DF00EFF2C
:10411000CDE908019DED080B51EC100B0EF012F9E2
:1041200080B20B90BDF87C0000900BA80FC8FEF782
:104130003EFB0F981030289930F9110003900EF0D3
:104140002EF9CDE904019DED140B53EC102B9DEDE0
:10415000040B51EC100B0DF09DFFCDE906019DED18
:104160001C0B53EC102B9DED060B51EC100B0EF0BD
:10417000B1FACDE908019DED080B51EC100B0EF0E2
:10418000E1F880B29FEDA80B53EC102B0E909DED43
:10419000120B51EC100B0EF0A9FACDE908019DEDC0
:1041A000080B51EC100B0EF0CDF880B20D90289852
:1041B000411E0F98103030F9110003900EF0EFF807
:1041C000CDE904019DED140B53EC102B9DED040B78
:1041D00051EC100B0DF05EFFCDE906019DED1C0BBF
:1041E00053EC102B9DED060B51EC100B0EF072FAF8
:1041F000CDE908019DED080B51EC100B0EF0A2F873
:1042000080B20C909DED180B53EC102B9DED120B12
:1042100051EC100B0DF08AFE9FED830B53EC102B2D
:10422000CDE906019DED060B51EC100B0EF05EFA88
:10423000CDE908019DED080B51EC100B0EF082F852
:1042400080B20B90BDF87C0000900BA80FC8FEF761
:10425000AEFA0F9890F8D800401E289988423CD1B9
:104260000020FDF727FD9FED720B53EC102B9DED09
:10427000120B51EC100B0DF059FECDE90A019DED2A
:104280000A0B51EC100B0EF05DF880B29FED6A0B3B
:1042900053EC102B0E909DED1C0B51EC100B0DF000
:1042A00045FE9FED670B53EC102BCDE908019DED0A
:1042B000080B51EC100B0DF039FECDE90A019DED14
:1042C0000A0B51EC100B0EF03DF880B201230D905B
:1042D0000F9A921C0E99FDF7EAFD2898401C289031
:1042E0000F9890F8D810289881423FF6ADAA002088
:1042F000FDF787FE0120FEF787BE2DE9F04F2DED7B
:10430000108B89B083460024002008909FED4E0B4F
:10431000B0EE40AAF0EE60AA9FED4B0B8DED060BC0
:10432000DBF8045025B909B0BDEC108BBDE8F08F67
:10433000012085F8750046480088323886B2454924
:104340000988A1F148000EF02AF841EC180B301D45
:1043500087B29FED410B53EC102B51EC180B0EF074
:10436000C5F941EC1B0B0DF0EDFF1FFA80FA384840
:1043700000883C381FFA80F93648008850381FFA08
:1043800080F895F8740099FBF0F0C0B208900A200C
:1043900098FBF0F003900EF002F841EC190B0020AE
:1043A000FDF788FC0120FDF72CFE51EC180B0DF0F9
:1043B000C9FF80B200234A4631460390FDF7B4FDA1
:1043C00040460EF003F841EC1C0B53EC182B0EF09A
:1043D00081F941EC1B0B0DF0B5FF80B20123424681
:1043E00031460390FDF7A0FD9FED1D0B53EC102B04
:1043F00051EC180B0DF09AFD41EC1B0B0DF0A2FFD8
:1044000080B20390701D81B2012317A20398FDF7BB
:104410004EFD07F10B0291B2AAF1050290B2012301
:1044200011A2FDF744FD37E0000000000000F03F5E
:1044300000000000000038400000000000000840BC
:1044400000000000000030400000000000000000FC
:104450002600002024000020000000000000104082
:1044600000000000000018403000000005F11001BD
:1044700031F914000DF093FF41EC1B0B53EC1A2B98
:104480000EF0F2F807D205F1100131F914000DF029
:1044900086FF41EC1A0B641C95F87400A042E5D825
:1044A00040460DF093FF41EC1C0B53EC192B0EF022
:1044B0001DF941EC1B0B53EC1B2B51EC1A0B0DF0AF
:1044C000E9FDCDE906010024C3E00020FDF7F2FB81
:1044D0000020FDF7EFFB20460DF078FF41EC1E0BAE
:1044E00053EC192B0DF0C2FF41EC1C0B50460DF0A4
:1044F0006DFF41EC1D0B53EC1C2B0EF0F7F841EC5B
:104500001B0B0DF01FFF80B20023042239460390DD
:10451000FDF70AFD092C70D120460DF057FF53EC32
:10452000192BCDE900019DED000B51EC100B0DF0A6
:104530009DFF41EC1E0B50460DF048FF41EC1F0B58
:1045400053EC1E2B0EF0D2F841EC1D0B9FEDFE0B31
:1045500053EC102B0EF0CAF841EC1C0B1FED480B6E
:1045600053EC102B0EF0C2F841EC1B0B0DF0EAFEE1
:1045700080B2039007F1280081B2012305F10902FE
:104580000398FDF794FC53EC1A2BAFF6506104A886
:104590000CF068F99FEDEE0B53EC102B51EC1A0B5D
:1045A0000DF028FF2AD220460DF010FF41EC1F0B22
:1045B00053EC192B0DF05AFF41EC1D0B50460DF03A
:1045C00005FF41EC1E0B53EC1D2B0EF08FF841EC58
:1045D0001C0B9FEDE10B53EC102B0EF087F841EC18
:1045E0001B0B0DF0AFFE80B2039007F1280081B2E3
:1045F000012304AA0398FDF75AFC29E020460DF098
:10460000E5FE41EC1F0B53EC192B0DF02FFF41EC95
:104610001D0B50460DF0DAFE41EC1E0B53EC1D2B2A
:104620000EF064F841EC1C0B9FEDCB0B53EC102B00
:104630000EF05CF841EC1B0B0DF084FE80B2039091
:1046400007F1300081B2012304AA0398FDF72FFC83
:10465000641C0A2CFFF439AF0024C4E005F11001FA
:1046600031F914000DF09BFE41EC1D0B9DED060B86
:1046700053EC102B0DF00EFD41EC1C0B53EC182BE2
:104680000EF028F841EC1B0B0DF05CFEC0B203905D
:1046900051EC180B0DF056FEC0B2029010200090A5
:1046A0000898301A401C81B23046DDE90223FEF73B
:1046B00032F80898301A86B20020FDF7FBFA51EC68
:1046C000180B0DF03FFE80B20390701C81B20123E5
:1046D00004220398FDF728FC95F874000F2814DCD9
:1046E000621CAFF6883104A80CF0BCF851EC180B32
:1046F0000DF028FE801D80B20390B01D81B2012311
:1047000004AA0398FDF7D3FB49E095F874000F283D
:1047100026DD95F87400282822DC601C0321B0FBFC
:10472000F1F201FB1200D0BB621CAFF6D03104A83D
:104730000CF098F81FEDB60B53EC102B51EC180B46
:104740000DF0F4FB41EC1B0B0DF0FCFD80B203906F
:10475000B01D81B2012304AA0398FDF7A8FB1EE057
:10476000601C00F00300D0B9621CAFF6104104A831
:104770000CF078F81FEDC60B53EC102B51EC180B16
:104780000DF0D4FB41EC1B0B0DF0DCFD80B203906F
:10479000B01D81B2012304AA0398FDF788FB95F8A8
:1047A0007400401EA0421DD11FEDDD0B53EC102BF9
:1047B00051EC180B0DF0BAFB41EC1C0B1FEDE00B9C
:1047C00053EC102B0DF0B2FB41EC1B0B0DF0BAFDBE
:1047D00080B2039006F1180081B20123AA1C03984D
:1047E000FDF765FB641C95F87400A0423FF636AFF8
:1047F0000020FDF706FC012095E52DE9FC5F04464D
:104800008A46207C082870D1002500264FF0000B36
:104810000027002001900090DFF844816068D0F804
:104820002490606890F82000616891F91F10884218
:104830000ADA606890F91F000A3080B2019060685F
:1048400090F8200009300090606890F820006168BE
:1048500091F91F1088420ADD606890F91F00083046
:1048600080B20190606890F8200009300090BAF1A1
:10487000000F2DD1002625E0002700251BE02FB9D1
:10488000D8F800B008F104084FF400270BEA07003D
:1048900070B122899319019A9A1A91B2A289123A97
:1048A0002A4490B2FDF7E7FBA9F8000009F10209DC
:1048B0007F08681CC5B22A480C380068A842DED8B8
:1048C000701CC6B226480C384068B042D4D239E0D9
:1048D000606890F82000616891F91F10884231D01B
:1048E0006068D0F82490002627E02CE000270025FF
:1048F0001CE02FB9D8F800B008F104084FF40027E5
:104900000BEA070078B139F8022B238903EB060C78
:10491000009BACEB030399B2A389123B2B4498B2E2
:104920000823FDF7E1F97F08681CC5B20C480C3874
:104930000068A842DDD8701CC6B209480C3840682F
:10494000B042D3D800BF0DE00000000000000040DE
:104950000000000000408F400000000000001440F4
:1049600088000020BDE8FC9F2DE9F04F87B0064687
:104970000027002002908146824683460124019050
:104980008046756815B907B0BDE8F08F95F8280026
:10499000012811D0012085F82800F64A1268D18834
:1049A000F44A126890880122FDF742FD287F18B969
:1049B00000213046FFF721FF95F81EB00120FDF7DA
:1049C00020FBED480690A8680590EC4804906868C4
:1049D0000390287F68BB3789B6F80C90B6F80EA014
:1049E00004980090381F81B253464A463846FDF776
:1049F000B2FF0EE00598621CA7EB820291B2A7EB12
:104A00008402009090B253464A46FDF7A4FF601C12
:104A1000C4B21B2CEEDB0698621CA7EB820291B29B
:104A2000A7EB8402009090B253464A46FDF793FFED
:104A3000ACE0287F01284DD1D148008801904FF685
:104A4000FF70FDF737F9B37B96F80CC0ACF1010CA1
:104A50000CF0FF02B6F80AC0ACF1020C1FFA8CF1A0
:104A60003089FDF733FEBDF80400FDF723F9B08966
:104A7000001F87B2F089001F80B20290B6F808903C
:104A8000B6F80AA00320FDF719FB042012235246B2
:104A9000394600900698FDF76CFC0BE0042000906E
:104AA000A7EB840081B2122352460598FDF761FC02
:104AB000601CC4B21B2CF1DB04200090A7EB840027
:104AC00081B2122352460498FDF753FC0020FDF7F3
:104AD000F5FA5BE0287F022858D1A94800880190A8
:104AE0004FF6FF70FDF7E6F896F80EC0ACF1050C36
:104AF0000CF0FF0396F80CC0ACF1060C0CF0FF02B2
:104B0000B6F80AC0ACF1010C1FFA8CF1B6F808C077
:104B10000CF1010C1FFA8CF0FDF7D8FDBDF8040074
:104B2000FDF7C8F8B089001F87B2F089001F80B276
:104B30000290B6F80890B6F80AA00120FDF7BEFA78
:104B4000042012234A46009002990698FDF711FCB2
:104B50000CE004200090029800EB840081B2122344
:104B60004A460598FDF705FC601CC4B21B2CF0DB1F
:104B700004200090029800EB840081B212234A4680
:104B80000498FDF7F6FB0020FDF798FA95F8200051
:104B900095F91F10884209D0287F38B90021304686
:104BA000FFF72BFE01213046FFF727FE287FE0B9F3
:104BB0000398AAF1010C1FFA8CF309F1010C1FFAFA
:104BC0008CF2009095F91FC0A7EB0C0CACF10A0C0D
:104BD0001FFA8CF195F91FC0A7EB0C0CACF1040C7B
:104BE0001FFA8CF0FDF7B7FE2FE0287F012814D1C3
:104BF0000320FDF763FA06200090AAF1010082B2BB
:104C000095F91F00381A001F81B214230398FDF78D
:104C1000B0FB0020FDF752FA17E0287F022814D1DC
:104C20000120FDF74BFA0620009009F1010082B245
:104C300095F91F3002981844001D81B2142303987F
:104C4000FDF797FB0020FDF739FAE87F85F8200093
:104C500005F10C000BF051FF8046B8F1000F24D095
:104C60000024287F10BB10E0ABEBC802A7EB520278
:104C7000D21EA2EBC40291B209F1020290B200234B
:104C800040A2FDF714F9601CC4B2A8F10100A042D3
:104C9000EAD8821CA7EBC20291B209F1020290B2DB
:104CA000012305F10C02FDF702F95EE0287F0128DF
:104CB0002ED10320FDF702FA12E0ABEBC802A7EBFE
:104CC0005202121DA2EBC40291B22F4A1288A2EB2B
:104CD0000A02921C90B22BA2FDF7B0FA601CC4B27B
:104CE000A8F10100A042E8D8ABEBC802A7EB520242
:104CF000121D91B2244A1288A2EB0A02921C90B2B1
:104D000005F10C02FDF79AFA0020FDF7D7F92CE027
:104D1000287F022829D10120FDF7D0F90FE0ABEB65
:104D2000C802A7EB5203621CA3EBC20291B209F1C5
:104D3000020290B213A2FDF781FA601CC4B2A8F17E
:104D40000100A042EBD8ABEBC802A7EB5203621CF8
:104D5000A3EBC20291B209F1020290B205F10C027A
:104D6000FDF76CFA0020FDF7A9F90020FDF749F9DD
:104D7000012008E630000020B0CC010882CD0108F7
:104D80002A000020200000002600002077B581B016
:104D900005466C6814B9002004B070BD0120207372
:104DA00060680090BDF80E60F3B2BDF80C60F2B21E
:104DB000BDF80A10BDF80800FDF7CDFD0120EBE7B6
:104DC0002DE9F74181B006464FF0000800277468CE
:104DD0001CB9002004B0BDE8F081012084F8260051
:104DE00094F8250008B9A56800E065680095BDF84D
:104DF0000EC00CF0FF03BDF80CC00CF0FF02BDF8B4
:104E00000A10BDF80800FDF7A6FD0120FDF7F9F82E
:104E100004F10C000BF071FE074607B17F1E002065
:104E2000FCF748FFBDF80A20193291B2BDF80C20FA
:104E3000D2B20F3A90B2012304F10C02FDF737F819
:104E40000020FDF7DEF80120C4E72DE9F74181B02D
:104E500007460025A8467C681CB9002004B0BDE8C0
:104E6000F08101206076207E012801D1666800E093
:104E7000A6680096BDF80EC00CF0FF03BDF80CC08C
:104E80000CF0FF02BDF80A10BDF80800FDF763FD45
:104E90000120FDF7B6F804F10C000BF02EFE804661
:104EA00010E0BDF80820163AA2EBC50291B2BDF899
:104EB0000C20D2B20E3A90B200232022FCF7F7FF6A
:104EC000681CC5B24545ECD90020FCF7F3FEBDF8DF
:104ED0000820521D91B2BDF80C20D2B20E3A90B209
:104EE000012304F10C02FCF7E2FF0020FDF789F832
:104EF0000120B3E72DE9F74F82B007460026B04600
:104F00007C6801254FF000094FF0000A0020019055
:104F100014B905B0BDE8F08F012084F82D0004F12C
:104F20000C000BF0EAFD834604F11C000BF0E5FDDC
:104F3000834505D904F10C000BF0DFFD064604E0C3
:104F400004F11C000BF0D9FD06460120FDF759F8CD
:104F500094F82C0088B9FD49A068884206D1DFF892
:104F6000F093D4F808A0FB4801901FE0DFF8E89325
:104F7000D4F808A0F948019018E094F82C00012812
:104F800014D1F749606888420AD14DF6FB60FCF7FE
:104F90009BFEDFF8C493D4F804A0F048019005E02C
:104FA000DFF8AC93D4F804A0EA480190019800908F
:104FB000BDF812C00CF0FF03BDF810C00CF0FF02EA
:104FC000BDF80CC0ACF1080C1FFA8CF1BDF80C0058
:104FD000FDF7C1FC18E0CDF800A0BDF80CB005F15C
:104FE000010CABEBCC0C1FFA8CF1ABEBC50C1FFA30
:104FF0008CF0BDF812C00CF0FF03BDF810C00CF02F
:10500000FF02FDF7A8FC6D1CB54201D2102DE2D3C2
:10501000CDF80090BDF80CB005F1010CABEBCC0C59
:105020001FFA8CF1ABEBC50C1FFA8CF0BDF812C067
:105030000CF0FF03BDF810C00CF0FF02FDF78BFC75
:105040004FF6FF70FCF736FE102000EBC60894F810
:105050002C0078B9BDF80C20A2EBC60291B2BDF8C5
:105060001020D2B2123A90B2012304F10C02FCF7E4
:105070001EFF1CE094F82C00012818D104F11C003C
:105080000BF03BFD401CA8EBC000BDF80C10A1EBE1
:105090005000C01E1FFA80FBBDF81010C9B21239B3
:1050A00088B2012304F11C025946FCF700FF0020DE
:1050B000FCF7A7FF4FF6FF70FCF706FE1020FCF789
:1050C000F9FD012025E72DE9F74F82B007464FF0A3
:1050D000000B00267D6801244FF000094FF0000806
:1050E0004FF0000A1DB9002005B0BDE8F08F012087
:1050F000687705F10C000BF000FD0646287F88B9A3
:105100009849A868884206D1DFF85C92D5F80880F3
:10511000DFF858A21AE0DFF85892D5F80880DFF8D7
:1051200054A213E0287F012810D19349686888426F
:1051300006D1DFF83C92D5F80480DFF838A205E00C
:10514000DFF82492D5F80480DFF820A2CDF8009093
:10515000BDF81230BDF81020BDF80CC0ACF1080C41
:105160001FFA8CF1BDF80C00FDF7F5FB0A2E24D2D6
:1051700016E0CDF80080BDF80EC00CEBC40C1FFA91
:105180008CF1BDF80EE004F1010C0EEBCC0C1FFA13
:105190008CF0BDF81230BDF81020FDF7DCFB641C6C
:1051A000B4422FD2BDF80E10601C01EBC000734951
:1051B0000988081A0928DCD824E016E0CDF8008018
:1051C000BDF80EC00CEBC40C1FFA8CF1BDF80EE05C
:1051D00004F1010C0EEBCC0C1FFA8CF0BDF8123070
:1051E000BDF81020FDF7B7FB641C701EA04209D962
:1051F000BDF80E10601C01EBC00060490988081A58
:105200000928DBD8BDF80E10601C01EBC0005B491B
:105210000988081A15D0CDF800A0BDF80EC00CEB17
:10522000C40C1FFA8CF1BDF80EE004F1010C0EEB7A
:10523000CC0C1FFA8CF0BDF81230BDF81020FDF731
:105240008AFB4F480088FCF735FD0120FCF7D9FEAA
:10525000072E0DD2BDF80E20921D91B2BDF8102080
:10526000123A90B2012305F10C02FCF720FE0CE08B
:10527000BDF80E20921D91B2BDF81020123A90B2E6
:10528000012305F10C02FCF712FE0020FCF7B9FE29
:105290004FF6FF70FCF718FD1020FCF70BFD012006
:1052A00022E72DE9F74181B0074600257C681CB94B
:1052B000002004B0BDE8F0810120A074D4F804807F
:1052C000FCF79FFE4FF6FF70FCF7FEFC0020FCF79A
:1052D000F1FCCDF80080BDF80E60F3B2BDF80C60B3
:1052E000F2B2BDF80860163EB1B2BDF80800FDF795
:1052F00032FB207A48BB00E06D1CA08AA84206D988
:1053000004F1180050F82500007E0028F4D04FF674
:10531000FF700090BDF80E60761CF3B2BDF80C6013
:10532000F2B2BDF80A60863EB1B2BDF80A60163E20
:10533000B0B2FDF7F0F90120FCF763FE1020FCF796
:10534000B9FCA08A002870DD1CE02DE028C501080A
:1053500064C1010846C301080AC70108ECC8010876
:10536000CECA0108DCB9010818B60108FAB701086D
:10537000BEBB0108A0BD010882BF010826000020B5
:105380002A00002004F1180353F8253003F1080225
:10539000BDF80830303B99B2BDF80C30103BD8B2A4
:1053A0000123FCF784FD40E0E068466800E06D1CE6
:1053B000B08A401EA84206D906F1180050F8250010
:1053C000007E0028F3D04FF6FF700090BDF80EC0AD
:1053D0000CF1010C0CF0FF03BDF80CC00CF0FF0247
:1053E000BDF80AC0ACF1700C1FFA8CF1BDF80A00D0
:1053F000FDF791F90120FCF704FE1020FCF75AFCA0
:10540000B08A002810DD06F1180353F8253003F1A7
:105410000802BDF808305B1D99B2BDF80C30103B96
:10542000D8B20123FCF743FD00BF0020FCF7E9FDE3
:105430004FF6FF70FCF748FC1020FCF73BFC012006
:1054400037E7F7B505466C680CB90020FEBD0120B2
:1054500084F83100287C042877D1608EFCF72AFC80
:1054600094F83000012840D1FCF7CBFD94F83400CB
:1054700048B9BDF80610BDF80A20D0B20123A21C1D
:10548000FCF715FD2DE094F83400012818D1032015
:10549000FCF714FEA01C0BF030FBBDF8041001EB70
:1054A000C00086B2BDF80A10FD4A1288511A88B2AF
:1054B000A21C3146FCF7C2FE0020FCF7FFFD10E005
:1054C00094F8340002280CD10120FCF7F7FDBDF858
:1054D0000610BDF80A00A21CFCF7B0FE0020FCF785
:1054E000EDFD0020FCF78DFD2FE094F8340048B965
:1054F000BDF80610BDF80A20D0B20123A21CFCF7AB
:10550000D6FC22E094F8340001280DD10320FCF7EA
:10551000D5FDBDF80610BDF80A00A21CFCF78EFEF2
:105520000020FCF7CBFD10E094F8340002280CD1E9
:105530000120FCF7C3FDBDF80610BDF80A00A21C4F
:10554000FCF77CFE0020FCF7B9FD01207EE72DE989
:10555000FC4705460E4614461F46388B1E2874DA53
:105560004FF00008C246002000900190CC4800880F
:10557000854203DCCB480088864202DD0020BDE87E
:10558000FC87ADF80250ADF80660207C042805D1F8
:105590006068C54961610188218004E1207C072899
:1055A0003AD1A5F1160080B2ADF8020006F116005E
:1055B00080B2ADF80400BD4860610098A060019819
:1055C000E060398B07F1200040F82140388B401C07
:1055D0003883D4F804A0BAF8100020809AF80800A4
:1055E000C0B90020FDF749FB8146D9F80480C8F80E
:1055F0000C40012088F80800AD48C8F80400AD4808
:10560000C8F80000F1B2A5F1160290B23B464A4636
:10561000FFF79DFF0120B2E7207C012802D0207C0B
:10562000052819D105F1080080B2ADF8000006F197
:105630001A0080B2ADF80400207C012806D1606811
:105640009D49616101882180ADE0BAE060689B49B5
:10565000616101882180A6E0207C022810D1606869
:105660009749616101680988218005F1140189B2B7
:10567000ADF8001006F1140189B2ADF8041092E003
:10568000207C03280FD160688E49616101882180E8
:1056900005F1140189B2ADF8001006F1140189B2C8
:1056A000ADF804107FE0207C06280FD160688649A1
:1056B0006161018821800189691A89B2ADF80210FF
:1056C000817A314489B2ADF804106CE0207C08285E
:1056D00036D160687D49616101882180017F49B9C7
:1056E000291F89B2ADF8021006F1120189B2ADF896
:1056F000041024E0017F01290ED1ADF80050A5F17E
:10570000120189B2ADF8021006F1740189B2ADF848
:105710000410ADF8066012E0017F02290FD1ADF848
:105720000050A5F1120189B2ADF8021006F178011E
:1057300089B2ADF80410311D89B2ADF8061032E01F
:10574000207C092805D16068614961610188218058
:1057500029E0207C0A2805D160685E4961610188E2
:10576000218020E0207C0B281DD15BA001F0BBFE36
:10577000D4F80490B9F80200284480B2ADF80000D3
:10578000B9F80400304480B2ADF80400ADF802501E
:10579000ADF8066056A001F0A6FE5E486061B9F85B
:1057A0000000208000BF0098A0600198E060398B65
:1057B00007F1200040F82140388B401C388301203D
:1057C000DDE60020DBE62DE9F0410446884616467A
:1057D000002514B90020BDE8F08130460BF08DF9AA
:1057E000D0B116E004F1200050F82500007C042818
:1057F0000ED104F1200050F8250047683888404554
:1058000006D12E223146B81CFDF7C8F80120E2E788
:105810006D1C208BA842E5D80020DCE72DE9F04183
:1058200004460F469046002514B90020BDE8F081DB
:1058300016E004F1200050F82500007C04280ED169
:1058400004F1200050F8250046683088B84206D19F
:105850002E22B11C4046FDF7A1F80120E6E76D1CA1
:10586000208BA842E5D80020E0E710B502460B46A1
:10587000002400210AB9002010BD4EE002F12000F2
:1058800050F82100007C082846D102F1200050F891
:1058900021004468208898423ED1E07FECE7000078
:1058A000260000202400002043540008A3520008D2
:1058B00004AE01080EB20108C7500008F54E0008FA
:1058C0004B4E0008C14D00088D4D00086949000885
:1058D000FB420008E72F00084765744F626A53696E
:1058E0007A65204E6577726563740D0A00000000CA
:1058F0005365744E657752656374436F6E74726F4F
:105900006C56697369626C65204E65777265637465
:105910000D0A0000A12F0008491C108B8842ADD849
:105920000020A9E77CB503460020002400940194E0
:1059300021B9009C1C60019C5C607CBDCFE001F142
:10594000200454F82040247C042C12D101F12005BD
:1059500055F820506C682588954208D101F1200542
:1059600055F82050AE681E60ED685D60E5E7401CAC
:1059700000BF01F1200454F82040247C012C12D1F6
:1059800001F1200555F820506C682588954208D112
:1059900001F1200555F82050AE681E60ED685D608D
:1059A000CBE7401C00BF01F1200454F82040247CC8
:1059B000052C12D101F1200555F820506C6825887E
:1059C000954208D101F1200555F82050AE681E60BF
:1059D000ED685D60B1E7401C00BF01F1200454F8A0
:1059E0002040247C032C12D101F1200555F82050D1
:1059F0006C682588954208D101F1200555F82050A2
:105A0000AE681E60ED685D6097E7401C00BF01F165
:105A1000200454F82040247C022C12D101F12005EE
:105A200055F820506C682588954208D101F1200571
:105A300055F82050AE681E60ED685D607DE7401C43
:105A400000BF01F1200454F82040247C072C12D11F
:105A500001F1200555F820506C68258A954208D13F
:105A600001F1200555F82050AE681E60ED685D60BC
:105A700063E7401C00BF01F1200454F82040247C5F
:105A8000062C12D101F1200555F820506C682588AC
:105A9000954208D101F1200555F82050AE681E60EE
:105AA000ED685D6049E7401C00BF01F1200454F837
:105AB0002040247C082C12D101F1200555F82050FB
:105AC0006C682588954208D101F1200555F82050D1
:105AD000AE681E60ED685D602FE7401C00BF0C8B58
